:1000000006C120C11FC11EC11DC11CC11BC11AC117
:1000100019C118C117C116C115C114C113C112C12C
:1000200011C110C10FC1485454502F312E3020320D
:100030003030204F4B0D0A436F6E74656E742D5433
:100040007970653A20746578742F68746D6C0D0A48
:10005000507261676D613A206E6F2D6361636865F0
:100060000D0A0D0A003C68313E323030204F4B3CC7
:100070002F68313E00485454502F312E30203230FA
:1000800030204F4B0D0A436F6E74656E742D54799A
:1000900070653A20746578742F68746D6C0D0A5021
:1000A0007261676D613A206E6F2D63616368650DE3
:1000B0000A0D0A00485454502F312E30203430316C
:1000C00020556E617574686F72697A65640D0A43B4
:1000D0006F6E74656E742D547970653A207465780E
:1000E000742F68746D6C0D0A0D0A3C68313E343013
:1000F0003120556E617574686F72697A65643C2F42
:1001000068313E0000010800060400016E616E00C7
:10011000696E660000407A10F35A00A0724E18090A
:100120000010A5D4E80000E87648170000E40B545E
:10013000020000CA9A3B000000E1F505000080962D
:100140009800000040420F000000A086010000005F
:10015000102700000000E803000000006400000019
:1001600000000A00000000000100000000002C76E2
:10017000D888DC674F0823DFC1DFAE59E1B1B796FD
:10018000E5E3E453C63AE651997696E8E6C284265A
:10019000EB898C9B62ED407C6FFCEFBC9C9F40F236
:1001A000BAA56FA5F490055A2AF75C936B6CF967B2
:1001B0006DC11BFCE0E40D47FEF520E6B500D0ED77
:1001C000902E0300943577050080841E08000020DF
:1001D0004E0A000000C80C333333330F986E12837D
:1001E0001141EF8D2114893BE65516CFFEE6DB1851
:1001F000D1844B381BF77C1D901DA4BBE424203216
:1002000084725E228100C9F124ECA1E53D2711240E
:100210001FBECFE5D4E0DEBFCDBF10E0A0E6B0E06A
:10022000E4E7FEE102C005900D92A03FB107D9F7C7
:1002300013E0A0EFB0E001C01D92A130B107E1F7DB
:10024000F5D616CEDDCE8091F0009091F1000196AA
:100250009093F1008093F00008958F9A81E090E0F0
:1002600008959093EA028093E902009711F0979A1B
:1002700001C0979881E090E008958091E902909103
:10028000EA02009719F080E090E002C081E090E07F
:10029000E8DF0895AD98962F9F71982B9FB9779BB3
:1002A000FECF1FB8779BFECF67FF03C01FB8779BB9
:1002B000FECFAD9A8FB10895AD986F71682B6FB96D
:1002C000779BFECF4FB9779BFECFAD9A08959C01E7
:1002D000AD988AE38FB9779BFECFFB01C90106C0B9
:1002E00001971FB8779BFECF4FB141930097C1F79D
:1002F000620F731FFB011082AD9A0895FB01AD9848
:100300002AE72FB9779BFECF05C0019721912FB91E
:10031000779BFECF0097C9F7AD9A08951F93CF93AF
:10032000DF93182FC82FD0E0C076D0702091EB0259
:1003300030E0C217D30781F080EA6FE143E0BCDF11
:10034000AE0185E0559547958A95E1F780E86FE124
:10035000B3DF10761093EB02DF91CF911F910895D8
:10036000CF93DF930F92CDB7DEB7682F6983D6DFC7
:1003700080E069818FDF0F90DF91CF9108951F9307
:10038000CF93DF930F92CDB7DEB7182F6983C6DF07
:1003900080E4612F498190DF0F90DF91CF911F9111
:1003A0000895682F84EDEBDF82ED61E0E8DF88E2FD
:1003B0008A95F1F78AEED4DF80FDFCCF82ED60E014
:1003C000DEDF89EDCDDF90E008951F93CF93DF93BB
:1003D0000F92CDB7DEB7982F162F84ED692F798352
:1003E000CEDF86ED612FCBDF87ED7981672FC7DF09
:1003F00018E203C0812F8A95F1F78AEEB1DF80FD04
:10040000F9CF0F90DF91CF911F910895682F6770FA
:1004100085E7B5DF0895CF93DF93EC01A59AAD9AF8
:1004200087B3886287BBBC9AC39AC59A80E58DB9A9
:10043000709A8FEF60E04FEF3FDF80E090E0019730
:10044000F1F71092ED021092EC0288E060E097DF85
:1004500089E060E094DF8CE060E091DF8DE060E0B7
:100460008EDF8AE06FEF8BDF8BE069E188DF84E06D
:1004700060E085DF85E06AE182DF86E06FEF7FDFA5
:1004800087E06FE17CDF88E360EB79DF88E26FE390
:1004900076DF89E260E373DF80E369EF70DF81E399
:1004A00067EF6DDF80EC6DE06ADF81EC60E067DFB5
:1004B00080E862EC42E300DF86EC62E160DF87EC1B
:1004C0006CE05DDF84EC62E15ADF8AEC6CED57DFB3
:1004D0008BEC65E054DF84EE688151DF85EE698145
:1004E0004EDF82EE6A814BDF83EE6B8148DF80EE68
:1004F0006C8145DF81EE6D8142DF80E160E071E07B
:1005000064DF8FE10BDF80E86BE140ECD5DE80E853
:100510006FE144E0D1DEDF91CF91089582E720DFE3
:10052000863008F08F5F089588E31ADF682F6160D6
:1005300088E325DF089588E313DF682F6E7F88E363
:100540001EDF089581E12DDF21E0009709F420E00E
:10055000822F08950F931F93CF93DF93EC018B01AC
:100560000CC08CE1FDDE81FF08C080E86FE140E84F
:10057000A3DE80EA6FE140E89FDE80E06FE18ADE83
:1005800083FDEFCF82E060E0FADE83E06AE1F7DE30
:1005900086E06C2FF4DECE018050964E87E0692F06
:1005A000EEDE8AE760E040E087DECE01B801A6DE3D
:1005B00080E86FE148E080DEDF91CF911F910F91DD
:1005C000089589E3CDDE91E0882309F490E0892F36
:1005D0000895AF92BF92CF92DF92EF92FF920F9366
:1005E0001F93CF93DF936C015B0189E3B9DE88230E
:1005F00009F461C0C091EC02D091ED0280E06C2F53
:10060000BEDE6D2F772767FD7A9581E0B8DE8AE33D
:1006100060E040DE082F8AE360E03CDE382F20E017
:1006200010E0022B132B1093ED020093EC028AE3EF
:1006300060E030DEF82E8AE360E02CDEE82E8AE30C
:1006400060E028DEC82FD0E08AE360E023DE382FA8
:1006500020E02C2B3D2B27FF11C0CF2DD0E09E2D6D
:1006600080E0C82BD92BC601019724978C179D07D2
:1006700008F4EC01CE01B5012ADE02C0C0E0D0E0F2
:100680008AE10130180734F08CE06FEF78DE8DE0FE
:1006900069E10BC0602F61508CE071DE01501040A9
:1006A000612F772767FD7A958DE069DE80E86EE13E
:1006B00040E402DE02C0C0E0D0E0CE01DF91CF9185
:1006C0001F910F91FF90EF90DF90CF90BF90AF9070
:1006D0000895CF92DF92EF92FF920F931F93CF93E3
:1006E000DF936C01EB01413051F4AB0148505040B5
:1006F00060E070E04F5E5F4F6F4F7F4F0FC0423042
:1007000051F4AB014850504060E070E04A5F5F4FE9
:100710006F4F7F4F03C040E050E0BA017E01F60109
:1007200019C0808190E0A0E0B0E00027182F292FA9
:100730003A2F818190E0A0E0B0E0082B192B2A2B02
:100740003B2B400F511F621F731F32968EEF9FEF9E
:10075000E80EF91E92E0E916F10418F7FE01EE7FAB
:10076000EC0DFD1DC0FF0FC0808190E0A0E0B0E067
:10077000BA2FA92F982F882702C060707070480F79
:10078000591F6A1F7B1FCB01AA27BB270097A10512
:10079000B10599F7CA0180959095DF91CF911F918E
:1007A0000F91FF90EF90DF90CF900895009741F068
:1007B000AEEEB2E0FC0186E001900D928150E1F7CF
:1007C0000895DC015A96FB0180E02D919191291743
:1007D00029F48F5F8430C9F781E0089580E008959F
:1007E000FC016932710598F08485883081F4858533
:1007F000863069F4B696A4EFB2E080E021919D9135
:10080000291739F48F5F8430C9F781E0089580E0BB
:10081000089580E00895FC016A327105B0F0848586
:10082000883099F48585882381F48685853469F438
:100830007E96A4EFB2E080E021919D91291739F4D2
:100840008F5F8430C9F781E0089580E0089580E0EB
:100850000895CF93DF93DC01CEEED2E0FC01369613
:1008600080E090819D93999191938F5F8630C9F735
:10087000DF91CF910895CF93DF93EC01188E198EFD
:1008800080E48C8B1D8A8E8BCE010E9664E170E025
:1008900040E01FDF988F898FDF91CF910895CF932C
:1008A000DF93DC015E96C4EFD2E0FC017A9620E093
:1008B00030813D93399131932F5F2430C9F7DBDFCD
:1008C000DF91CF910895FC01BA96DC019E9684E0F9
:1008D0009291690F711D9E916C93442311F0908346
:1008E00001C01082672F7727815091F70895CF9329
:1008F000DF93EC018CA19AA19CA38AA38DA19BA15B
:100900009DA38BA3CE01DFDF1AAA1BAA80E58EA7C9
:10091000DF91CF910895CF93DF93EC019ADF1C8A8A
:1009200082E08D8BAE01405E5F4F8EEE92E0FE0165
:10093000769620E03081DA013D93AD01DC013D91F6
:10094000CD0131932F5F2630A9F7AE014A5D5F4F8D
:1009500084EF92E0FE017C9620E03081DA013D9345
:10096000AD01DC013D91CD0131932F5F2430A9F71A
:100970008AE290E0BE01EEDDDF91CF9108950F9302
:100980001F93CF93DF93EC018B0163DFCE0187DFF1
:100990001AA29CA1983F18F08DA18F5F8DA3985F3C
:1009A0009CA3C801BE01D6DDDF91CF911F910F91AD
:1009B0000895FC01908980E0218930E0282B392BB3
:1009C0002451304086A582958F7090E0880F991F42
:1009D000880F991F281B390B37FF02C020E030E039
:1009E000C90108959C01CB0107C0D901A80FB91F07
:1009F000D696EC93D6970196FA014F5F5F4FE4913C
:100A0000EE2399F70895DA01FB01F696E80FF91F36
:100A1000822F03C09D91919381508823D9F7CB01F8
:100A2000820F911D0895DA010D900020E9F79D01D4
:100A300021503040241B350BE6DF08950F931F93A0
:100A4000CF93DF9300D00F92CDB7DEB78C014B83ED
:100A500069837A83FEDE4B81842F8061F80187A74A
:100A600069817A81443029F06115710511F461E0E2
:100A700070E0C80141E03BDFF801108A88E2818B19
:100A8000C8010DDF84E0F80180AB11AAC8014A96C5
:100A90006CE170E042E01DDEF80192AB83AB86E3CF
:100AA00090E0B80157DD0F900F900F90DF91CF913C
:100AB0001F910F9108950F931F93CF93DF93EC0134
:100AC0008B01CB018896988B898BCE01D4DE1AAA34
:100AD0001BAAB801645E7F4FCE014A9642E0F9DD61
:100AE0009AAB8BABC801C696BE0134DDDF91CF91C6
:100AF0001F910F910895CF92DF92EF92FF920F9383
:100B00001F93CF93DF9300D0CDB7DEB76C01F42EE7
:100B1000E52E69837A839DDE6981062F7A81172FFE
:100B20000D3D110510F00CED10E0F601108AC80122
:100B30004C96818BC601B3DEF60182A184A383A10A
:100B400085A3E2A2F3A216A2C801089687A310A665
:100B500011A6B801605F7F4FC6014A9641E0B9DD3A
:100B6000F60190A781A7C8018A96B601F3DC0F9021
:100B70000F90DF91CF911F910F91FF90EF90DF9039
:100B8000CF900895DC019A96FB0102C051915D93CC
:100B90005E2F561B5417D0F3642F70E0A901ABDF12
:100BA00008956115710541F0DB01E4EFF2E024E006
:100BB0003D9131932150E1F7009709F0F7DD089559
:100BC0009093F8028093EE000895CF93DF93EC01A9
:100BD00040DE188A8CE2898BCE0161DE82E18FA72C
:100BE000CE0161E070E040E082DE1EA21FA2809193
:100BF000EF0088A719A68D5F8093EF0082E08EAB8F
:100C000084E08FAB85E088AF19AE80E68EA78AE0DE
:100C100088AB19AACE014A9660E270E042E059DD45
:100C20009AAB8BAB8AE390E0BE0194DCDF91CF916D
:100C300008950F931F93CF93DF93EC018B01609185
:100C4000F9027091FA0240E0F9DE89E18FA7CE0146
:100C5000B80131DFDF91CF911F910F9108959093EB
:100C6000FC028093FB020895FF920F931F93CF9392
:100C7000DF93EC018B01B4DD882339F08D8981305D
:100C800009F04EC0CE0147DE4BC0CE01B801C3DD36
:100C9000882309F445C08F89813081F49AA1983066
:100CA00069F4E091FB02F091FC02309719F0CE015B
:100CB0004A960995CE01B80162DE32C0863081F5D0
:100CC0009CA18091F802981759F59DA18091EE00A2
:100CD000981731F5FFA4F1FE03C0CE0176DF20C0E6
:100CE000F4FE1EC0CE0165DE9093FA028093F902F5
:100CF000009741F4F0FE14C0CE0160E070E040E0E7
:100D00009DDE0EC08EA582958F7090E0880F991F92
:100D1000880F991F8296085010400817190710F481
:100D200080E090E0DF91CF911F910F91FF900895A7
:100D30000F931F934FB7F89482B790E0A0E0B0E014
:100D400008B600FE08C00097A105B10521F480E0B7
:100D500091E0A0E0B0E00091FD021091FE02209130
:100D6000FF02309100034FBF322F212F102F002799
:100D7000080F191F2A1F3B1F52E0000F111F221FCF
:100D8000331F5A95D1F7B801C9011F910F910895EA
:100D90004F925F926F927F928F929F92AF92BF928B
:100DA000CF92DF92EF92FF920F931F93CF93DF9337
:100DB00000D000D00F92CDB7DEB73C014B011982B5
:100DC0001A821B821C821D82A19AA9988FEF90EE35
:100DD000A0E081509040A040E1F700C00000A99A37
:100DE00095ED9A95F1F70000A19881E197E203C093
:100DF000019709F45DC0999BFBCF81E197E203C0A5
:100E0000019709F455C09999FBCF68E2A62EB12C41
:100E100010E007E071E0472E512C03C0019719F450
:100E200047C081E197E2999BF9CF82DF6B017C019A
:100E300081E197E202C00197D9F19999FCCF78DF5F
:100E4000DC01CB018C199D09AE09BF0989329105DE
:100E5000A105B10580F0E1E0F0E0EC0FFD1FE10F2E
:100E6000F11DC201002E02C0880F991F0A94E2F7FB
:100E70009081982B9083002319F41F5F07E001C035
:100E800001500894A108B108A114B10451F6898158
:100E9000D4018C9311961C9211979B81F30190833E
:100EA0001182890F9D81981731F08FEF9FEF05C058
:100EB0008EEF9FEF02C080E090E00F900F900F90B8
:100EC0000F900F90DF91CF911F910F91FF90EF90B6
:100ED000DF90CF90BF90AF909F908F907F906F905A
:100EE0005F904F900895AA98A29A87EB96E0019799
:100EF000F1F700C00000A298EFEEF0E03197F1F7B3
:100F000000C0000083B3EFE8F6E03197F1F700C0CE
:100F1000000084700895AA98A29A95E09A95F1F736
:100F200000008111A29887EC90E00197F1F700C0D2
:100F30000000A2980895AA98A29A80E18A95F1F7F4
:100F4000A298E5E3EA95F1F7000093B3E3EDF0E052
:100F50003197F1F700C0000081E092FF80E0089532
:100F6000CF93DF93D9E0C0E006C0E5DF87958827FF
:100F70008795C695C82BD150C1F78C2FDF91CF91A3
:100F80000895EF92FF920F931F93CF93DF9301E1A8
:100F900010E0C0E0D0E00AC0D695C795CCDFF82EAF
:100FA000F794FF24F794EE24CE29DF290150104056
:100FB00099F7CE01DF91CF911F910F91FF90EF90A4
:100FC0000895CF93DF93D82FC9E004C08D2F81708F
:100FD000A2DFD695C150D1F7DF91CF910895CF937D
:100FE000DF9381DF8CECEDDF84E4EBDFA4DF88238B
:100FF000E9F379DF8CECE5DF8EEBE3DFB1DFC82FBF
:10100000AFDFD82F70DF7D2F60E06C0F711D882758
:1010100077FD8095982FF5D020E030E040E05FE349
:1010200054D1BCD0CB01DF91CF910895CF93DF9302
:10103000CDB7DEB7C258D0400FB6F894DEBF0FBEB2
:10104000CDBF0BD984EE90E0E6D98FEF91EEA4E00E
:1010500081509040A040E1F700C0000084E166E7C5
:1010600074E0B3D98FEF91EEA4E081509040A0409E
:10107000E1F700C0000084EE90E06AEE70E091DDE0
:1010800080E590E09DDD83E291E0E9DD22E8D22E6B
:101090007E010894E11CF11C38E6A32E30E0B32E4B
:1010A00084EF91E062EF70E094DABC0182EF90E0AF
:1010B000DBDD8C010097A1F3BC016E507F4F80E611
:1010C00090E044E050E012D6009769F082EF90E0A3
:1010D00060E070E046E250E085DCBC0182EF90E029
:1010E00045E650E055C0B8016A507F4F85E690E074
:1010F00042E050E0FBD5009709F044C08091E70240
:101100009091E80201969093E8028093E70282EFC3
:1011100090E060E070E045E750E064DC8C01D701CE
:10112000ED2D1D92EA95E9F78DB79EB708970FB69A
:10113000F8949EBF0FBE8DBFEDB7FEB73196ADB729
:10114000BEB71296FC92EE921197B382A282809162
:10115000E7029091E802958384838091F00090915A
:10116000F1009783868307D6EDB7FEB738960FB6A2
:10117000F894FEBF0FBEEDBF82EF90E0B801A7016B
:1011800052DC07C082EF90E060E070E044EB50E09A
:1011900029DCBC0182EF90E04CDD82CF04D0689462
:1011A000B1118DC0089570D088F09F5790F0B92F7D
:1011B0009927B751A0F0D1F0660F771F881F991FAC
:1011C0001AF0BA95C9F712C0B13081F077D0B1E00A
:1011D000089574C0672F782F8827B85F39F0B93F1A
:1011E000CCF3869577956795B395D9F73EF49095AE
:1011F0008095709561957F4F8F4F9F4F0895E8942C
:1012000009C097FB3EF490958095709561957F4F4E
:101210008F4F9F4F9923A9F0F92F96E9BB279395FC
:10122000F695879577956795B795F111F8CFFAF40C
:10123000BB0F11F460FF1BC06F5F7F4F8F4F9F4F3D
:1012400016C0882311F096E911C0772321F09EE89B
:10125000872F762F05C0662371F096E8862F70E001
:1012600060E02AF09A95660F771F881FDAF7880FDB
:101270009695879597F9089557FD9058440F551FF7
:1012800059F05F3F71F04795880F97FB991F61F008
:101290009F3F79F087950895121613061406551F7F
:1012A000F2CF4695F1DF08C0161617061806991FEB
:1012B000F1CF86957105610508940895E894BB27E0
:1012C00066277727CB0197F908950BD078C069D0AE
:1012D00028F06ED018F0952309F05AC05FC0112491
:1012E000EECFCADFA0F3959FD1F3950F50E0551FC5
:1012F000629FF001729FBB27F00DB11D639FAA276B
:10130000F00DB11DAA1F649F6627B00DA11D661FB9
:10131000829F2227B00DA11D621F739FB00DA11DDA
:10132000621F839FA00D611D221F749F3327A00D94
:10133000611D231F849F600D211D822F762F6A2F30
:1013400011249F5750408AF0E1F088234AF0EE0FB5
:10135000FF1FBB1F661F771F881F91505040A9F7C2
:101360009E3F510570F014C0AACF5F3FECF3983E4A
:10137000DCF3869577956795B795F795E7959F5F29
:10138000C1F7FE2B880F911D9695879597F90895C3
:1013900097F99F6780E870E060E008959FEF80EC28
:1013A000089500240A9416161706180609060895CB
:1013B00000240A9412161306140605060895092E31
:1013C0000394000C11F4882352F0BB0F40F4BF2BA0
:1013D00011F460FF04C06F5F7F4F8F4F9F4F0895E0
:1013E000A5E1B0E0E5EFF9E067C34C017F876E87C8
:1013F000FC0117821682838181FD04C058C34C858D
:101400005D8504C01E010894211C311CF4019381E8
:10141000EE85FF8593FD859193FF8191FF87EE8790
:10142000882309F440C3853241F493FD859193FFED
:101430008191FF87EE87853251F490E0B4014C8BA7
:101440005D8B6DD44C895D895D874C87D8CFFF2437
:10145000DD2410E01032B0F48B3269F08C3228F4C5
:10146000803251F0833271F40BC08D3239F0803309
:1014700049F411602CC01260146029C0186027C0A4
:10148000106125C017FD2EC0282F20532A3098F454
:1014900016FF08C08F2D880FF82EFF0CFF0CF80EDA
:1014A000F20E15C08D2D880FD82EDD0CDD0CD80E58
:1014B000D20E10620CC08E3221F416FDF4C21064FC
:1014C00006C08C3611F4106802C0883659F4EE85D7
:1014D000FF8593FD859193FF8191FF87EE87882398
:1014E00009F0B8CF982F9554933018F41061805EAE
:1014F00006C0982F9556933008F091C11F7E16FDB7
:1015000002C0E6E0FE2E1F73853611F4106406C09B
:10151000863611F4106802C0F110FA9417FF07C064
:10152000FBE3FF1548F0EF2CE39427E00DC027E024
:101530002F1530F02F2D07C027E07CE3E72E04C0E5
:1015400027E067E0F62EEE24CA0104969D878C877B
:10155000FA016081718182819381A1010E2DE3D214
:101560005C01C9802C2D30E0398B288BC0FE03C074
:10157000388933FF06C011FD06C012FF06C000E225
:1015800005C00DE203C00BE201C000E08889998923
:101590008C7090700097C9F1002311F084E001C0B5
:1015A00083E08D1550F4D81A13FD08C080E290E056
:1015B000B401B5D3DA94D1F701C0DD24002321F0C2
:1015C000802F90E0B401ABD3888983FD05C030E162
:1015D000E32E31E0F32E10C02CE0E22E21E0F22EBB
:1015E0000BC00115110509F0805290E0B40197D3AA
:1015F0000894E11CF11C04C0012F10E00071107070
:10160000F7018491882369F74BC217FF0EC0EA0CDB
:10161000F889F4FF04C08A81813309F4EA941E1426
:101620004CF528E02E1548F12CC016FD2AC08F2D50
:1016300090E08A159B0544F03CEFA3163FEFB306FC
:101640001CF0106801C0FA94FF2049F0E2E0F0E0DD
:10165000EC0FFD1FEF0DF11D80818033A1F317FF0B
:1016600010C0EF2CE3948F2D90E0A816B90644F437
:10167000FA1807C0EE24E39404C098E0E92E01C0F4
:10168000FF2417FF07C01A141B043CF495012F5FB9
:101690003F4F05C025E030E002C021E030E00023EC
:1016A00011F02F5F3F4FFF2029F08F2D90E0019622
:1016B000280F391F8D2D90E02817390714F4D21AFE
:1016C00001C0DD24612E7724C301897090700097DA
:1016D00041F405C080E290E0B40121D3DA94DD202A
:1016E000C9F7002321F0802F90E0B40118D363FCE8
:1016F00008C005C080E390E0B40111D3DA94DD2086
:10170000C9F717FF46C08501B7FE02C000E010E030
:101710006624772495012E1931093B8B2A8B2501EC
:10172000401A510A420C531C6F2D70E0EE24FF2426
:10173000E61AF70A3FEF0F3F130721F48EE290E01D
:10174000B401EDD2A016B10654F02A893B892017C6
:1017500031072CF4F201E60DF71D818101C080E311
:10176000015010400894611C711C0E151F0524F0D7
:1017700090E0B401D4D2DECF0A151B0541F49A8162
:10178000963320F4953319F4388934FF81E390E0DF
:1017900043C08A81813311F09FEEC92290E0B401E9
:1017A000BED2FF2079F08EE290E0B401B8D212E010
:1017B000F101E10FF11D1F5F808190E0B401AFD214
:1017C000FA94B1F764FE03C085E490E002C085E6B8
:1017D00090E0B401A4D2B7FC05C0A114B10441F457
:1017E000C4FE06C0B094A194B108B3948DE201C0C8
:1017F0008BE290E0B40193D280E305C08F5FE6EF07
:10180000FFEFAE0EBF1EFAE0AF16B104BCF790E0DA
:10181000B40185D2C501C096B40181D241C18336DD
:1018200031F0833789F0833509F055C021C09A0122
:101830002E5F3F4F3D872C87FA018081898381E0AD
:10184000E82EF12C510112C09A012E5F3F4F3D87C7
:101850002C87FA01A080B18016FF03C06F2D70E0C5
:1018600002C06FEF7FEFC5014FD27C011F7713C01D
:101870009A012E5F3F4F3D872C87FA01A080B180EF
:1018800016FF03C06F2D70E002C06FEF7FEFC50140
:1018900022D27C01106813FD1AC005C080E290E0DE
:1018A000B4013DD2DA948D2D90E0E816F906B0F33C
:1018B0000EC0F50117FD859117FF81915F0190E042
:1018C000B4012DD2D110DA940894E108F108E114A2
:1018D000F10479F7E5C0843611F0893669F59A018B
:1018E00017FF0AC02C5F3F4F3D872C87FA0180818C
:1018F0009181A281B3810BC02E5F3F4F3D872C8722
:10190000FA0180819181AA2797FDA095BA2F012F16
:101910000F76B7FF08C0B095A095909581959F4F21
:10192000AF4FBF4F0068BC01CD01A1012AE030E0FC
:1019300041D2E82EE21840C0853721F41F7E2AE00C
:1019400030E020C0197F8F36A9F0803720F4883529
:1019500009F0A9C00BC0803721F0883709F0A3C077
:1019600001C0106114FF09C0146007C014FF08C053
:10197000166006C028E030E005C020E130E002C07B
:1019800020E132E0CA0117FF09C004969D878C87C9
:10199000FA01608171818281938108C002969D87DE
:1019A0008C87FA016081718180E090E0A10102D210
:1019B000E82EE218012F0F7706FF09C00E7FEF1403
:1019C00030F404FF06C002FD04C00F7E02C01E2DCD
:1019D00001C01F2D802F90E004FF0CC0FE01EE0D12
:1019E000F11D2081203311F4097E09C002FF06C0D9
:1019F0001E5F05C086789070009709F01F5FA02ECB
:101A0000BB2403FD11C000FF0CC0FE2C1D1548F4C3
:101A1000FD0CF11A1D2D05C080E290E0B4017FD1CC
:101A20001F5F1D15C8F304C01D1510F4D11A01C0A5
:101A3000DD24A4FE0EC080E390E0B40170D1A2FECC
:101A40001DC0A1FE03C088E590E010C088E790E0CB
:101A50000DC0C50186789070009781F0A1FC02C08E
:101A600080E201C08BE207FD8DE290E0B40157D126
:101A700005C080E390E0B40152D1FA94EF14C8F3AA
:101A8000EA94F101EE0DF11D808190E0B40147D19F
:101A9000EE20B1F705C080E290E0B40140D1DA94C5
:101AA000DD20C9F7ACCCF4018681978102C08FEFAD
:101AB0009FEF6596E2E11CC02F923F924F925F929A
:101AC0006F927F928F929F92AF92BF92CF92DF924E
:101AD000EF92FF920F931F93CF93DF93CDB7DEB7B3
:101AE000CA1BDB0B0FB6F894DEBF0FBECDBF099447
:101AF0002A88398848885F846E847D848C849B849E
:101B0000AA84B984C884DF80EE80FD800C811B81AB
:101B1000AA81B981CE0FD11D0FB6F894DEBF0FBEDA
:101B2000CDBFED010895283008F027E03327DA0112
:101B3000990F311D87FD916000966105710539F49B
:101B400032602E5F3D9330E32A95E1F708959F3F81
:101B500030F080387105610509F03C5F3C5F3D93D2
:101B6000913008F08068911DDF93CF931F930F93FE
:101B7000FF92EF92192F987F9695E92F969596955B
:101B8000E90FFF27E259FE4F99273327EE24FF2460
:101B9000A701E70105900894079428F4360FE71E83
:101BA000F81E491F511D660F771F881F991F069445
:101BB000A1F70590079428F4E70EF81E491F561F59
:101BC000C11D770F881F991F661F0694A1F7059006
:101BD000079428F4F80E491F561FC71FD11D880F00
:101BE000991F661F771F0694A1F70590079420F4AC
:101BF000490F561FC71FD81F990F661F771F881FD1
:101C00000694A9F784911095177041F0D695C79561
:101C100057954795F794E7941A95C1F7E4E1F1E0F9
:101C200068941590159135916591959105907FE295
:101C30007395E118F10A430B560BC90BD009C0F795
:101C4000E10CF11E431F561FC91FD01D7EF47033D7
:101C500011F48A95E6CFE894015030F0080F0AF4A9
:101C60000027021708F4202F2395022F7A3328F03B
:101C700079E37D932A95E9F710C07D932A9589F63B
:101C8000069497956795379517951794E118F10A7B
:101C9000430B560BC90BD00998F023957E91739591
:101CA0007A3308F070E37C932013B8F77E9170616B
:101CB0007D9330F0839571E37D9370E32A95E1F78E
:101CC0001124EF90FF900F911F91CF91DF919927F1
:101CD00087FD90950895FC010590615070400110BA
:101CE000D8F7809590958E0F9F1F0895FB01DC011A
:101CF0004150504030F08D910190801919F400202E
:101D0000B9F7881B990B0895FC0161507040019050
:101D10000110D8F7809590958E0F9F1F08950F930F
:101D20001F93CF93DF938C01EB018B8181FF1BC04D
:101D300082FF0DC02E813F818C819D81281739073C
:101D400064F4E881F9810193F983E88306C0E885AA
:101D5000F985802F0995009731F48E819F81019636
:101D60009F838E8302C00FEF1FEFC801DF91CF91D9
:101D70001F910F910895AEE0B0E0E0ECFEE0AACE36
:101D80000D891E8986E08C831A8309838FEF9FE774
:101D90009E838D83AE01475E5F4FCE0101966F89B2
:101DA000788D1EDBEF81F885E00FF11F10822E96F3
:101DB000E4E0ACCEFA01AA27283051F1203181F1BC
:101DC000E8946F936E7F6E5F7F4F8F4F9F4FAF4F43
:101DD000B1E03ED0B4E03CD0670F781F891F9A1F56
:101DE000A11D680F791F8A1F911DA11D6A0F711D0A
:101DF000811D911DA11D20D009F468943F912AE016
:101E0000269F11243019305D3193DEF6CF010895FD
:101E1000462F4770405D4193B3E00FD0C9F7F6CF2E
:101E2000462F4F70405D4A3318F0495D31FD4052F6
:101E3000419302D0A9F7EACFB4E0A695979587958C
:101E400077956795BA95C9F700976105710508956B
:101E50009B01AC010A2E0694579547953795279517
:101E6000BA95C9F7620F731F841F951FA01D0895AF
:041E7000F894FFCF14
:101E740047455420002F20003C623E41546D656765
:101E8400613820576562736572766572202F20452C
:101E94004E4332384A36303C2F623E3C62723E3CFE
:101EA40062723E5365727665722073746174733A1C
:101EB4003C62723E4163633A256420506E673A2562
:101EC400643C62723E3C62723E2843292052616443
:101ED40075204D6F746973616E20323031322C205D
:101EE4007777772E706F636B65746D616769632EA6
:101EF4006E657400CD1516171819C0A80164500A30
:00000001FF
