:100000009DC0B6C0B5C044C2B3C0B2C0B1C0B0C0DC
:10001000AFC0AEC0ADC0ACC0ABC0AAC0A9C0A8C084
:10002000A7C0A6C0A5C0A4C0A3C0A2C0A1C0A0C0B4
:100030009FC09EC0EFC5F0C5F1C5F2C5F3C5F2C5BE
:10004000F1C5F0C5F2C501C60AC61BC60BC60DC672
:1000500011C615C62BC62DC647C649C64BC64AC6CD
:1000600049C648C64BC6A7C653C6A5C654C655C63C
:1000700062C665C6A0C69FC69EC69DC69CC69BC6D8
:100080009AC699C698C697C696C695C694C693C68C
:1000900092C691C68EC612011001FF000008C0165C
:1000A000B30620460102000134035500530042000C
:1000B00032004C005000540020006C006F007700AC
:1000C0002D00730070006500650064002000610071
:1000D0006400610070007400650072002403680011
:1000E0006100660074006D0061006E006E00230008
:1000F00073006F0066007400770061007200650095
:1001000004030904090237000101008032090400D8
:100110000002FF000000070501020800000705813A
:10012000020800000904000102FF000000070501A9
:100130000308000A0705810308000A0011241FBEF6
:10014000CFEFD2E0DEBFCDBF11E0A0E0B1E0E6EB43
:10015000FFE002C005900D92A430B107D9F711E07D
:10016000A4E0B1E001C01D92AD36B107E1F73BC696
:1001700047CFCF93DC01C62F809100018E31F1F083
:100180008091000184FF07C08091420198E889278F
:100190008093420103C08AE580930001E3E4F1E02B
:1001A0009C2F91509F3F19F08D918193FACF6C2F26
:1001B00083E491E069D1CC5FC0930001CF910895B1
:1001C000FF920F931F93CF93DF9360915301161605
:1001D0000CF0CBC080914F01C3E6D1E0C81BD10920
:1001E000162F135000E090E8F92E80914E018D32C9
:1001F00011F48AEFD7D380914E018F3F21F4612F04
:10020000CE01D8D4ACC08D3209F092C03AE530931B
:100210000101183009F09FC02881822F807609F0F3
:1002200075C0E0E4F1E0009340019981992389F4DD
:100230002F71223059F48C81813841F4902F8091B4
:1002400000018E3109F491E090934001118202E0A7
:1002500010C0953021F48A818093540161C096309A
:1002600049F580ECF82E8B81813041F4E6E9F0E02D
:1002700002E1F0935201E093510152C0823021F427
:10028000E4E0F1E007E3F5CF833009F049C08A816B
:10029000882321F4E0E0F1E004E0EBCF813021F4A9
:1002A000ECEDF0E004E2E5CF8230D1F5E8EAF0E0F1
:1002B00004E3DFCF983019F4E6E5F1E008C09930A7
:1002C00021F48A818093560109C09A3011F401E02B
:1002D000D0CF9B3031F48BE4809342013093000106
:1002E0001FC0913011F09330D9F48A818823C1F472
:1002F0008C818138A9F4913011F48AE501C08EE136
:10030000809300018BE4809342010AC0CE0157D351
:10031000082F8F3F29F4888187FF1CC00E811AC0E7
:100320008F818823C1F48E818017A8F4082F13C011
:100330008091040187FD0FC0612FCE01F1D30FEF33
:10034000801731F4009302018EE18093010102C015
:10035000811100E0FF24F0920401009302018091DA
:100360005301181614F4109253018091010184FF77
:100370004FC0809102018F3F09F44AC0682F893035
:1003800008F068E0861B809302011BE48091040161
:1003900080FD13EC8F5F80930401A8E3B1E087FF39
:1003A0001BC0E0915101F0915201962F915086FFB0
:1003B00007C09F3F59F084918D9331969150F9CFAA
:1003C0009F3F21F081918D939150FACFF09352018C
:1003D000E0935101772709C0662329F0CD0153D35B
:1003E000682F772702C060E070E0C62F693040F4C4
:1003F00088E391E049D09C2F9C5FC83028F401C06D
:100400009EE18FEF809302011093370190930101D9
:100410009AE083B1837011F49150D9F7992339F49C
:100420009093540190934D018AE580930001DF91F0
:10043000CF911F910F91FF90089580916B00816083
:1004400080936B00809168008160809368008BE4EA
:10045000809342010895A82FB92F8FEF9FEF41E0BD
:1004600050EA615070F02D9138E0722F7827969500
:100470008795269570FF02C0842795273A95A9F79E
:10048000F0CF809590950895E6DF8D939D93089524
:10049000CF93CFB7CF93189BFECF189B0EC0189B5E
:1004A0000CC0189B0AC0189B08C0189B06C0C091BE
:1004B0005001C395C09350019EC0DF93C0914F017E
:1004C000DD27C95ADE4F189B02C0DF91E6CF2F937C
:1004D0000F931F9303B12FEF00FB20F94F933F932E
:1004E00013B14FEF012700FB21F93BE031C04E7FF4
:1004F000012F13B1216028C0102F4D7F2260000012
:1005000003B129C04B7F2460012F000013B12BC021
:1005100013B1477F28602AC04F7E03B120612CC0F1
:100520004F7D13B120622FC04F7B03B1206432C0D6
:10053000422703B149934FEF0000102710FB20F929
:1005400013B11370A9F1297F91F2012700FB21F962
:1005500003B1237F89F23150F0F1102710FB22F90B
:1005600013B1277E79F2012700FB23F92F7C81F25A
:1005700003B1102710FB24F92F7971F200C013B1D9
:10058000012700FB25F92F7359F200C003B1102792
:1005900010FB26F9223040F200C013B1012700FB06
:1005A00027F9243028F64F77206813B10000F9CFDF
:1005B0003B503195333011E01BBBB8F0C31BD0402A
:1005C0000881033C51F10B3441F11981412F1F7710
:1005D00020914D01121731F40936A1F10D3279F055
:1005E000013E69F02227209355013F914F911F91C1
:1005F0000F912F91DF91CF91CFBFCF91189547FDEC
:100600000FEF009355013F914F911F910F912F9143
:10061000DF91CBB3C0FD3FCFEECF0091550100235A
:1006200021F3109153011123A1F53430A2F130933D
:10063000530100934E0110914F013BE0311B309369
:100640004F0129C00091530101301CF50AE547FD17
:1006500009C03091010134FD20C000930101C7E3BE
:10066000D1E01FC03091000134FD17C0009300019C
:10067000C2E4D1E016C0052710E005B91FC0052768
:1006800022C0052727C005272CC0052710E005B983
:1006900033C04AE503C042ED01C0432FC4E1D0E0BE
:1006A00032E014B11360289A05B114B95F9353E096
:1006B00020E820FF052705B9279517951C3FD8F698
:1006C00020FF0527279505B917951C3FC0F620FF89
:1006D00005272795179505B91C3F98F620FF052794
:1006E000279517951C3F05B970F600C0499120FF6A
:1006F000052705B9279517951C3F38F620FF0527D4
:10070000279505B917951C3F38F520FF0527279534
:10071000179505B91C3F10F520FF0527279517955C
:100720001C3F05B9E8F4242F3A9519F60C7F5F9128
:1007300005B900C010915401C651D04011F010937A
:100740004D0111E01BBB016014B11C7F402F4C7F99
:1007500005B914B945B949CF0527D3CF0527D8CF57
:100760000527DDCF3091090131FD16C020912E0102
:10077000E22FFF27EE0FFF1FE35FFE4F9183808381
:100780002F5F2F703E7F80912D01281709F4326072
:1007900020932E0130930901089520912D0130916D
:1007A000090130FF0CC021502F70E22FFF27EE0F00
:1007B000FF1FE35FFE4F0190F081E02D15C0E22F97
:1007C000FF27EE0FFF1FE35FFE4F2F5F0190F081C9
:1007D000E02D2F703D7F80912E01821709F431604A
:1007E00020932D0130930901CF01089580910801D4
:1007F00085FF04C01AB88FEF8BB908958091070167
:100800008BB980910C0180FF03C08BB1809501C032
:100810008FEF8AB90895EADF81E087B98EE388B95E
:10082000809108019BE08927880F880F85B98CE3A8
:1008300084B90895982F3AB125B135990CC0822F0B
:10084000892385B992FD02C08FEF8AB988E1359975
:1008500007C08150E1F780910B01816080930B010B
:1008600089B192FF3AB925B999270895982F8091B7
:100870000A018C7421F0892F992774DF08959093D1
:1008800007018091080185FD07C09BB980910C018B
:1008900080FF02C090959AB90895CF9390910A0174
:1008A0009570C82FC06C9111CF7D909108019C2745
:1008B000C093080180910C0186FD04C095FD96DF70
:1008C0008BE0C827CC0FCC0FC5B980910C0182FFFB
:1008D00003C0C095CC7FC4B9CF910895282F887FDD
:1008E00085608093090122952695277081E090E02C
:1008F00002C0880F991F2A95E2F7282F80930A01DA
:10090000332724FF02C08EEF01C08FEF80930B01CD
:1009100025703070232B41F08091080185FF04C0C1
:100920008F7D8093080162DF10922E0110922D01BD
:10093000089580910A018C7411F02FDF01C089B1F4
:100940009927089596B1990F990F976080910C019E
:1009500086FD02C080E8982780910B019823892F9B
:100960009927089580910A018C7411F085B101C016
:1009700083B1982F969596959F7080910C0186FD76
:1009800002C08BE0982780910801807F982B892FE7
:1009900099270895882329F09FE09A95F1F78150CF
:1009A000E1F70895982F80912F01882319F49093EF
:1009B0003101409A9093300190932F010895FC01EA
:1009C00081818093320162817381709334016093DD
:1009D000330146815781509336014093350185E0BC
:1009E00091E090935201809351012181222349F497
:1009F00082818093050183818093060182E090E0EB
:100A00000895213089F48281882311F492DF03C094
:100A1000813031F497DF8093050181E090E0089503
:100A2000823071F59FDFF7CF223059F4828188231D
:100A300019F484811BDF24C0823011F584812DDFFD
:100A40001FC08081803CA1F4822F815A8330C0F482
:100A5000233A99F46630710581F44230510569F406
:100A600089E397E39093060180930501CA010895F5
:100A7000803431F4215A223018F48FEF90E0089539
:100A800080E090E008951F93CF93DF93FC01162F31
:100A9000C0913301D0913401262F33278091350145
:100AA000909136018217930710F4109135018091CF
:100AB0003201813A39F4812F9927AC01BE01CF016F
:100AC0005DD217C0823A49F4812F9927DE01019740
:100AD0001CF05DD20192FBCF0CC0833A39F4812F18
:100AE0009927AC01BE01CF0140D203C02FEF30E007
:100AF00012C0212F3327C20FD31FD0933401C093CC
:100B000033018091350190913601821B930B9093B4
:100B1000360180933501C901DF91CF911F9108956E
:100B2000FF920F931F93CF93DF93FC01F62EC0919A
:100B30003301D0913401262F3327809135019091D4
:100B400036018217930710F4F0903501809132013D
:100B5000813A49F40F2D1127A801BF01CE010ED211
:100B6000C00FD11F10C0823A59F490E09F1558F47D
:100B70008191DE01082E13D2A89521969F5FF6CFB2
:100B80002FEF30E010C0D0933401C09333012F2DEC
:100B900033278091350190913601821B930B9093FE
:100BA000360180933501C901DF91CF911F910F91DB
:100BB000FF900895AF92BF92CF92DF92EF92FF9293
:100BC0001F93CF93DF93CDB7DEB728970FB6F89476
:100BD000DEBF0FBECDBF7C01162F5E010894A11CA5
:100BE000B11C6501662309F4EEC084E6DBDEF70183
:100BF00081917F0184FF49C02FEF992787FD909550
:100C0000A92FB92FFC017097E031F105D0F5E65E10
:100C1000FF4F09948EDE27C095DE25C0A3DE23C0DA
:100C20008FED01C087EF06DE1EC080910A018C7C2B
:100C300019F42FEF30E025C087FF03C020E130E03A
:100C400020C0ABDD282F33271CC080910A0187FF0D
:100C500003C080E090E007C08FEF90E004C02091D7
:100C600009010FC08AB1282F0CC027B1220F220F13
:100C7000287F07C024B1269526952F7002C02091A9
:100C80000C01F60121936F0196C0115009F49BC02D
:100C900021917F01992787FD9095A92FB92FFC01FC
:100CA000819708F088C0E65DFF4F0994822FDEDD52
:100CB00082C080910A0184FF07C020FD05C0809199
:100CC0000B018E7F80930B01922F969596958091C4
:100CD0000C0186FD05C080E2982787B18095982B8E
:100CE0009E7388B1817024C0822FD7DD64C02BB978
:100CF0008BED02C02BB983EF9DDD5DC080910A01B1
:100D00008C7409F458C0822F992791602BDD53C051
:100D1000822FE4DD50C02AB94EC0922F9695969549
:100D2000916C97B980910C0186FD45C0909588B172
:100D3000892B88B940C0220F220F24B93CC0622FF2
:100D4000657480910C01862760930C01882399F1CA
:100D5000482F552740FF12C0262F3327C901807422
:100D60009070892B59F48091080185FD07C020FF00
:100D700003C08BB1809501C08FEF8AB942FF0FC0CD
:100D8000262F3327C90180749070892B41F422FFEC
:100D900004C085B180958C7301C08CE384B946FF93
:100DA0000AC0862F992780749070892B21F433DD37
:100DB00002C0822FEFDD115009F019CF6C2D6A1996
:100DC00011F0C501D6D928960FB6F894DEBF0FBE34
:100DD000CDBFDF91CF911F91FF90EF90DF90CF902B
:100DE000BF90AF900895CFEFD2E0DEBFCDBF10E04F
:100DF00014BF88E10FB6F8948093600010926000F1
:100E00000FBE8FEE8093640080B7806880BF15DBD3
:100E1000789483B7817F846083BF83B7816083BF09
:100E200083B1992783709070892B09F0889583B7D7
:100E3000817F8C6083BF88E190E028E00FB6F89452
:100E4000A895809360000FBE20936000ABEFBFEFCA
:100E50009ED0802D992780930C018F3F11F4109222
:100E60000C01109207018CEC80930801D4DC80E225
:100E700035DDC0910A018C2F992782FF0CC080912B
:100E8000090180FD3DC035993BC087DC8BB92A98AC
:100E900081E080DD2CC083FF2CC08091080185FF9C
:100EA00012C08091090181FD2BC02B9903C0349998
:100EB00027C02B9A349B24C089B19927359991601A
:100EC00051DC2B981DC02A9B10C08091090180FD28
:100ED00017C0359915C061DC8BB925B124738070BA
:100EE000892B09F0286025B92A98359B09C02A9AD0
:100EF00007C083B1992783709070892B09F088957A
:100F0000C09150011C1731F483B199278370907000
:100F1000892B09F4A89554D91C1709F4AACF1C2FC2
:100F200020912F01222389F080913101815031F4E9
:100F300088B191E0892788B980913001215009F466
:100F4000409820932F0180933101F99992CFABEF14
:100F5000BFEF1DD0802D90910C01891709F489CF26
:100F6000ABEFBFEF092E1BD084CFFB01DC0102C029
:100F700005900D9241505040D8F70895FB01DC01D7
:100F800002C001900D9241505040D8F70895F99950
:100F9000FECFB2BDA1BDF89A119600B40895F9999B
:100FA000FECFB2BDA1BD00BC11960FB6F894FA9A5F
:060FB000F99A0FBE08953E
:040FB6005A5AFF0084
:00000001FF
