:080000001BC0FECFFDCFFCCFB9
:10000800FBCFFACFF9CFF8CFF7CFF6CFF5CFF4CFB4
:10001800F3CFF2CF2AC0F0CFEFCFEECFEDCF10273E
:10002800E80364000A00010000100001100001004C
:10003800F894EE27ECBBF1E0FBBFEBBFE5BFF8E1BE
:10004800F1BDE1BD8DE0A2E0BB27ED938A95E9F70C
:1000580080E094E0A0E6ED930197E9F7EFE5EDBFC6
:10006800E4E0EEBFC0E6D1E02EC08A93EA93FA93AB
:10007800EFB7EA93E0E2F1E04CD053D0F1F345B0AA
:100088005524E1E2F1E045D04CD0F1F365B0772496
:10009800E2E2F1E03ED045D0F1F385B09924E3E205
:1000A800F1E037D03ED0F1F3A5B0BB24E4E2F1E0B3
:1000B80030D037D0F1F3C5B0DD24E991EFBFF99125
:1000C800E99189911895EFEFE8BBE0E0E7BBEFEF26
:1000D800E2BBE0E0E1BBEBB9E8E1EAB9E6E8E0BDA4
:1000E800E0E0E0BDE9E1E9B9E6B1EC6CE6B97894A5
:1000F800E2E3F0E0FA93EA9317D0A0916001A1330C
:1001080009F4949AA0916001A23309F49498F0CF6D
:10011800FFCFE7B985E38A95F1F7E6B1E066E6B97E
:100128000895E6B1E0760895E991F991309639F0AD
:1001380080ED97E00197F1F7A8953197C9F70895F1
:00000001FF
