:0C00000045C0FECFFDCFFCCFFBCFFACFF8
:10000C00F9CFF8CFB1C0C6C0F5CFF4CFF3CFF2CF54
:10001C00F1CFF0CFEFCFEECFEDCF2800252E32660B
:10002C00560020252E32665600493A252E3266415E
:10003C000020252E32666D0042313A252E3266564E
:10004C000042323A252E3266560042333A252E3281
:10005C0066560042343A252E326656002D4E414EDD
:10006C00000001002D4E414E000080C00100040034
:10007C002600010052026E000200560276000000BB
:10008C00F894EE27ECBBF1E0FBBFEBBFE5BFF8E16A
:10009C00F1BDE1BD8DE0A2E0BB27ED938A95E9F7B8
:1000AC0080E094E0A0E6ED930197E9F7E8E7F0E053
:1000BC0085919591009761F0A591B591059015905A
:1000CC00BF01F00105900D920197E1F7FB01F0CF14
:1000DC00EFE5EDBFE4E0EEBFC0E6D1E048C21ED7CD
:1000EC00E7B98BE18A95F1F71CD7E064E6B919D72B
:1000FC00E071E9F316D7E061E6B9E4B1F5B1AAC64F
:10010C00AA81A13080F1D394EAEFED1510F4939409
:10011C00DD24EA819E1660F48394E981E81539F4B4
:10012C0003D7A0E8B0E0EA27FB27E2BB8824BB2476
:10013C00EA81E915C0F4A394EAEFEA1510F4AA24B5
:10014C00B394F2D6EF77E2BBEA81EB1560F4A881A9
:10015C00A13008F09924E881E150E883E03019F4EB
:10016C00E0E0EA83E98331C6AA93BA93EA93FA935F
:10017C00EFB7EA93A4E8B1E0DAD6D6D6A0E4B0E0C3
:10018C00EA27FB27E2BBE991EFBFF991E991B9911D
:10019C00A99118950A921A92FA926A937A938A9371
:1001AC009A93AA93BA93EA93FA93EFB7EA93869940
:1001BC0006C0EAE0EA93EA93E3E0EA93A1DF7394E2
:1001CC00E4E6E71511F463947724E5E0E61531F4E1
:1001DC00B4D685DFE0937801F0937901EAE0E61577
:1001EC0031F4E1E0ADD6E0937A01F0937B01EFE0DE
:1001FC00E61531F4E2E0A4D6E0937C01F0937D01A6
:10020C00E4E1E61531F4E3E09BD6E0937E01F09354
:10021C007F01E9E1E61531F4E4E092D6E093800148
:10022C00F0938101EEE1E61531F4E5E089D6E09337
:10023C008201F0938301E3E2E61509F053C182D603
:10024C00EDECFCEC6CEC72E40FDAE0938A01F093C9
:10025C008B0160938C0170938D01E0917A01F09188
:10026C007B017AD6E0938601F09387016093880135
:10027C0070938901E0917C01F0917D016DD6E09342
:10028C008E01F0938F016093900170939101E09136
:10029C007E01F0917F016BD6E0E0F0E068E473E45E
:1002AC00E3D9E0939201F0939301609394017093DE
:1002BC009501E091A601F091A7016091A8017091C0
:1002CC00A9015BD63ADA09F44EC060D609F008F4FD
:1002DC0006C0E0E0E0934E02E1E0E0934F0256D618
:1002EC0030F4E1E0E0934E02E0E0E0934F0245D6BB
:1002FC005FD617D9A0918401B091850188279927E1
:10030C0061D864D97F936F93FF93EF93A091A6016B
:10031C00B091A7018091A8019091A90152D601D961
:10032C00AF91BF918F919F919FD9DF01CB01E0E0FD
:10033C00F0E060E772E498D9E093AA01F093AB0186
:10034C006093AC017093AD01E0E0F0E0E0938401C8
:10035C00F093850136D6E093A601F093A701609344
:10036C00A8017093A901CC2009F03FC0EDD4E5D5CC
:10037C00E4D5D6D42FD6E8E2F0E031D622D632D668
:10038C00E2ECF1E02CD6EEE2F0E029D611D62AD63A
:10039C00E6EDF1E024D6E5E3F0E021D6E091920120
:1003AC00F091930160919401709195011BD6EAEE46
:1003BC00F1E015D6EDE3F0E012D6E091AA01F09150
:1003CC00AB016091AC017091AD010CD603D6F0D4A9
:1003DC00E2ECF1E00CD6B1D5E1E0EA93A1D4E6ED84
:1003EC00F1E005D6EAEEF1E002D6E1E0EC1509F019
:1003FC0078C0AAD4A2D5A1D593D4A4D5FAD5E0932C
:10040C009601F09397016093980170939901E09194
:10041C008001F0918101ABD5ECD5E0939A01F0937A
:10042C009B0160939C0170939D01EFD5E2D5E09305
:10043C009E01F0939F016093A0017093A101E5D5FB
:10044C00D8D5E093A201F093A3016093A40170931B
:10045C00A501EEEFF1E0C3D5E4E4F0E0C0D5E09106
:10046C009601F09197016091980170919901BAD51C
:10047C00E2E1F2E0B4D5EDE4F0E0B1D5E0919A011F
:10048C00F0919B0160919C0170919D01ABD5E6E2CE
:10049C00F2E0A5D5E6E5F0E0A2D5E0919E01F09161
:1004AC009F016091A0017091A1019CD5EAE3F2E05B
:1004BC0096D5EFE5F0E093D5E091A201F091A30180
:1004CC006091A4017091A5018DD5EEEFF1E08FD56F
:1004DC00E2E1F2E08CD5E6E2F2E089D5EAE3F2E083
:1004EC0086D56624A0E08099A1E0A03021F4A091EB
:1004FC005002A03009F008C0E0916201EF5FE09378
:10050C006201E1E0E0935002A0E08199A1E0A0300B
:10051C0021F4A0915102A03009F008C0E1E0E09371
:10052C005102E0916201E150E0936201A0E08099F8
:10053C00A1E0A13019F4E0E0E0935002A0E0819931
:10054C00A1E0A13019F4E0E0E0935102EDD4E460B5
:10055C00E2BBE991EFBFF991E991B991A991999118
:10056C00899179916991F990199009901895E0E029
:10057C00E8BBE7BBE5BBE4BBE2BBECEFE1BBE1E016
:10058C00E3BFE0E0E2BFEFBDE3E0EEBDE0E0EDBDD8
:10059C00ECBDE7BDE6BDEBBDEABDE9BDE8BDE2BD26
:1005AC00E5BDE4BDE3BDE5BFE5E0E9BFE0E8E8B9E2
:1005BC00E0E0E0BFE7B9E3E8E6B9E0E1EA9316D49E
:1005CC007894FFCFFFCF5D9BFECFE881ECB942C49E
:1005DC00BDD8AC81BD81E5D63097B1F0AA81BB8185
:1005EC00E0D68F01309749F00230E0E01E0758F05A
:1005FC00F80131978F01ED93FC93AC81BD8197D4B9
:10060C003197AE81A08303C0EE81EA93DCDFA5D8DD
:10061C0027960895FFD4E0E8EA83EFE3EB8394D8C0
:10062C00EE85FF85EF3FAFEFFA0739F4E885F985E2
:10063C00D6D4E8E6F0E0F3D475C0EF3FAFE7FA07A5
:10064C0031F4EFD4CCD4E9E6F0E0E9D46BC0AB855F
:10065C00A73010F0E6E0EB871B85E6D411F0E8D468
:10066C00FCCFF4D466D819F430E0E2D41BC03B853F
:10067C00F2D409F008F407C0DBD4EDD418F0F5D4AB
:10068C00F9D4FBCF08C0E7D428F4EFD4FED403D5BB
:10069C003150F9CFCDD4DAD403D5FDD4DCD410F05D
:1006AC00E4D4E8D410E0EB85E11708F1FFD403D5CE
:1006BC00F7D481D620D4EC83FD836E837F83D5D48D
:1006CC00D3D7C3D60E2FFDD403D5F096EC93E02FE1
:1006DC00FBD5F4D6EBD47AD7C8D4FDD4DCD4E12F37
:1006EC001F5FE03001F7EDD4EEE2EC93DCCFF6D4F3
:1006FC00AA85A083303024F4E4D4EDE2EC93319558
:10070C003A3034F0EBD4F0D402D6F096DB01EC9313
:10071C00E5D4EAD426D6F096DB01EC93A885B9850E
:10072C00E0E0EC9318D860960895EF972F970AD8CD
:10073C0010E0FE01EC5AFF4F0190F081E02DE88BA8
:10074C00F98BDE01A65ABF4FF2D33197E4912E2FCD
:10075C00E03009F402C2E12FCFD4309731F42532C6
:10076C0011F411E001C0CAD4F7C1E130A0E0FA07DE
:10077C00B9F4253211F4C2D4EEC112E0E0E0EB8BF7
:10078C0000E02D3211F401E0E7C12B3219F4EBE259
:10079C00EB8BE2C1203219F4E0E2EB8BDDC104C03B
:1007AC00E230A0E0FA0749F450E013E0203321F4E2
:1007BC00B1D4B3D4B5D4D0C104C0E330A0E0FA07AF
:1007CC0099F4203310F02A3308F008C0A52FABD4CD
:1007DC00ACD45E2F652FAED45E2FBEC140E02E325E
:1007EC0011F414E0B9C115C0E430A0E0FA07C9F463
:1007FC00203310F02A3308F00CC08CD4E0E2F0E087
:10080C008FD4A42F90D491D44E2F642F93D44E2FE9
:10081C00A3C12C3629F47ED498D482D415E09CC183
:10082C0005C0E530A0E0FA0709F096C191D4E33693
:10083C00A0E0FA0739F48ED494D48CD4A481AA9372
:10084C0097D489C1E534A0E0FA0721F0E536A0E0A1
:10085C00FA0709F404C0E636A0E0FA07B9F593D418
:10086C0097D4A3D59CD4A0D4A985AA2322F0AB8974
:10087C00AB3231F010C09AD4B5D591D4EDE2EB8BFC
:10088C0049D499D421F0EB89EA9372D404C098D45A
:10089C009AD4AB89A0833ED4E0E2F0E099D409F479
:1008AC0046E0263641F482D486D54A93EF85F88902
:1008BC0096D37AD108C07AD47ED54A932A93E88904
:1008CC00F9898DD3A7DE5FD487D41EC0E337A0E0AF
:1008DC00FA0721F469D485D47FD40EC0E037A0E0A8
:1008EC00FA07B9F461D47DD46BD479D3CAD21E2F54
:1008FC0011D4E8E0F0E014D40DD479D4403011F0E8
:10090C00411708F001C0142F40E0E0E0EA8B30E022
:10091C007BC0E436A0E0FA0721F0E936A0E0FA0744
:10092C0021F4F8D369D4FCD304C0E537A0E0FA076E
:10093C00A1F4EAE0EA8BEED308D44AD439F0E0E033
:10094C00FAEC6AE97BE3A7D31AE028C0E0E1F7E20E
:10095C0060E070E0A0D315E021C0E835A0E0FA0714
:10096C0029F4D8D3E8E0F0E0DBD305C0E837A0E009
:10097C00FA0709F0F0C0E0E1EA8BCCD3E6D328D437
:10098C0039F0E0E0F0E060E070E185D318E006C0FB
:10099C00E0E0F0E160E070E07ED314E0403019F06C
:1009AC00B9D325D401C041E0B5D3CFD311D429F0AC
:1009BC00FBD3EED31496F9D40FC0ACD320D431F0C2
:1009CC00F3D3E6D31496EDD485D406C0EDD3E0D39F
:1009DC001496E7D466277727EE83FF836887798799
:1009EC0099D30DD481F0A985AA232AF4DFD364D43A
:1009FC00D6D3EDE2EB8BEB89E03019F01F5F4F5F44
:100A0C0002C088D3FED3342F63D3E170B1F4151731
:100A1C0010F4351708F011C07DD3CDD351F07AD333
:100A2C00EED329F077D3EDD32B89115001C020E3FD
:100A3C0001C020E263D35150EACF1417A8F46AD353
:100A4C00E0E1F0E06DD366D3DAD339F063D3D9D3D8
:100A5C00DDD309F0515011504150E8D389D35030B7
:100A6C0009F051504150E9CF312FEA89E030C1F4FF
:100A7C003030A9F04FD3E8E0F0E0AAD321F0A0D3B6
:100A8C00A2D3E49105C0AA85BB85ED91AA87BB874B
:100A9C00EA936ED3503009F051503150E9CF51C028
:100AAC00C8D33AD42E2F2A3068F034D3E8E0F0E0E3
:100ABC008FD319F04DD3F79603C04AD3E95AFF4FA1
:100ACC002E2F03C045D3F0962E2F24D3E0E1F0E077
:100ADC007FD329F5213348F4C8D2A130E0E0BE071A
:100AEC00E0E08E07E0E09E0709F40DC0431750F4D8
:100AFC00531718F0EDD2E17009F015C020E20AD3BB
:100B0C005AD369F020E306D3E0E1F0E009D302D335
:100B1C0076D329F0FFD275D379D309F05150EED2A8
:100B2C00503009F05150315084D329D438D3EA894C
:100B3C00E3D29BD2CFD3F0D3AED288D2FAD509F080
:100B4C00AFCFC6D2E17039F0503029F05150E0E20D
:100B5C00EA930ED3F9CF10E0F4CDFBD5EF966D965A
:100B6C000895FF92F82E2297F1D5DE019DD38D01C9
:100B7C00DE01169699D315D4EA83FB83DE01149615
:100B8C0093D30FD42CD21A930A93FE01369627D204
:100B9C00E0E0F0E024D2C9DDAA81BB81E0E0EC9377
:100BAC00DCD52496FF90089535D2E0E0EA83EFE39C
:100BBC00EB83CCD5EB85FC85EF3FAFEFFA0739F42F
:100BCC00EE81FF810CD2E0E7F0E029D26DC0EF3F5F
:100BDC00AFE7FA0739F4EE81FF8101D2E1E7F0E0EB
:100BEC001ED262C0AC85AA2332F429D3FBD32CD3FA
:100BFC0030D3EDE2EC93A885A73010F0E6E0E8875F
:100C0C00188512D221F02CD356D22FD3FACF32D34F
:100C1C008FD41AD310E037D328D32CD36AD528F02D
:100C2C001FD333D222D31F5FF8CF103021F411D34E
:100C3C00E0E3EC9319C0F8D1B9F012D33CD230D226
:100C4C00BAD359D112D316D30FD5FFD30E2F01D34C
:100C5C003FD2F096EC933CD203D33CD32FD4B6D4F2
:100C6C0017D339D2F1D2E7CFE885E030C9F0F1D211
:100C7C00EEE2EC93E885E150E887EF5F89F008D36A
:100C8C0004D2E2D2DCD2E1D30E2FE3D221D2F09601
:100C9C00EC931ED2FDD21ED311D41DD2D5D2EACFE5
:100CAC00AE81BF81E0E0EC9358D52D960895FFE01E
:100CBC00FA95F1F70895A7B3AF70A7BBC19AC09886
:100CCC00F6DFC29AF4DFA6B3C298F1DFC29AEFDF67
:100CDC00C298A7FDF5CF0895A07FAB2BA8BBC29AF5
:100CEC00E6DFC298E4DF0895C198A7B3A76FA7BB4E
:100CFC00B8B3BF70A881F0DFA881A295EDDFC19ACF
:100D0C00A9C0C29AD4DFE6B3C298D1DFE07F0895C0
:100D1C00CEDFF7DFAE2FF5DFC198E295EA2B089511
:100D2C00CADFFCD0EA5AFD4FE081E6D1DF01E98150
:100D3C00E3D1EA0FFB1FB1D2E981E0935A02E881BB
:100D4C00E0935B0222960895B6DFE2E0A6D2B3DF11
:100D5C00ECE0A3D2B0DFE1E0A0D2E0E0E0935B02F4
:100D6C00E0935A020895EF93FF93A8816894AA30F8
:100D7C0061F0E894E0915A02EF5FE0935A02E0913F
:100D8C005C02A0915A02EA1758F4E0915B02EF5F03
:100D9C00E0935B02D2D0E0915B02EA93C1DF2EF0CC
:100DAC008ADFC09AA881AA939FDFFF91EF9152C06E
:100DBC001A93A981BA81ED91A983BA831E2FE030D1
:100DCC0019F01A93D0DFF5CF188123960895AA272E
:100DDC00BB271197F1F70895C198A7B3A76FA7BBCD
:100DEC00B8B3BF70A88178DFC19A34C0C298C098DC
:100DFC00E881E0935C0292D0E058FF4FE0935802F8
:100E0C008DD0E054FF4FE0935902E1DF0FD2E4DFC5
:100E1C00DEDF0CD2E1DFDBDF09D2DEDFD8DFE0E2A0
:100E2C00EA93DADFD4DFE8E238D2D1DFE4E035D27E
:100E3C00CEDFE5E832D2CBDFA7B3AF70A7BBC19A48
:100E4C0067DFE53011F0E0E005C035DFE6E025D2E4
:100E5C007BDFE1E021960895E991F991A991B9918F
:100E6C00CD0105900D920020E1F7FC010895A991A8
:100E7C00B991EE27FF276D91662311F03196FBCFC8
:100E8C000895AA27BB27E991F9910590002011F04C
:100E9C001196FBCFFD0108957B816A81F981E88170
:100EAC0077FB770F67FD7160972F9E5781F078F075
:100EBC00983190F4AA27BB27882708948795B79573
:100ECC00A7959A95D1F7EA23FB23682305C0E894EC
:100EDC007727EE27FF2766276F77769508F46068EB
:100EEC0077F9A991B99189919991EA17FB0768074C
:100EFC00790797FB0895D3D15ED2CEDFE883F983CF
:100F0C006A837B8311F4CBD107C0EEF7A881B9813A
:100F1C008A819B81B8D1DFD024960895E881F0E0D6
:100F2C000895E6B1F0E00895E2B3F0E00895ED9194
:100F3C00FD913196FE93EE930895E0E0EA930895C7
:100F4C00EA93CDC8E0917801F09179016627772773
:100F5C00B5D2DF01CB01089566277727AFD2DF0129
:100F6C00CB01EAE9F9E965E971E47ED308956627D6
:100F7C007727A4D2DF01CB010895A0918601B0910F
:100F8C00870180918801909189010895E0918601F3
:100F9C00F09187016091880170918901A091A6015F
:100FAC00B091A7018091A8019091A901A2D30895B5
:100FBC00E0918E01F0918F016091900170919101FF
:100FCC000895E0918601F0918701609188017091FC
:100FDC0089010895EEEAF1E0FA93EA930895FA9301
:100FEC00EA930895E8D184E0BCDD28960895F7DFF4
:100FFC00DFCEEAE9F9E96CE473E436D3A0E0B0E0C3
:10100C0080EA90E4E2D18DD20895E0918201F091D2
:10101C008301ADCF2497E0E0E883E9830895DFDF17
:10102C001BCFE885F9850895E12F1150E030089524
:10103C00AC81BD818E819F81E0E0F0E060E271E4E3
:10104C00C5D2EC83FD836E837F830895EC85FD858B
:10105C006E857F850895EC81FD816E817F81AC85E5
:10106C00BD858E859F8545D30895AC85BD858E85C0
:10107C009F850895EDECFCEC6CEC7DE3A7D2EC873E
:10108C00FD876E877F873F5F0895E0E0F0E060E2C8
:10109C0071E49CD20895EC87FD876E877F87089555
:1010AC00A0E0B0E080E09FE343D20895AC81BD8125
:1010BC008E819F810895EDECFCEC6CEC7DE386D287
:1010CC000895A885B9851196A887B98711970895B1
:1010DC00E02FF0E0089579D124D20895A2DF319663
:1010EC00E887F98731970895BF01A32FB0E0A7FDDA
:1010FC00BFEFEAE0F0E00895F0E008952A93FE01D6
:10110C00E95AFF4F0190F081E02D69DFFE017396E3
:10111C0066DF5ECAA02FB0E00895E0E8F0E0089525
:10112C00EA2B0E2F0895B0E00895EAE0F0E0EA0211
:10113C00F00108957727A22FF6DFE0E3F0E04BD122
:10114C00EA1BFB0BDB01EA0F0895E2E0F0E00895E7
:10115C00E22FD2CFFE01E85AFF4F0190F081E02D33
:10116C0008953497DE01A85ABF4FED93FC93089570
:10117C00FE01E95AFF4F0190F081E02D30DFFE01B6
:10118C0073962DDF25CAFE017496EA87FB870895B6
:10119C00DE01A85ABF4F0D90BC91A02D0895EE838F
:1011AC00FF83688779870895D5DFDBCFEE81FF81D8
:1011BC00688579850895B1DFEA23FB23309708957C
:1011CC00EA85FB8508953196EA87FB873197089568
:1011DC00EA23FB2330970895F3DF01DF48DE1E2F4F
:1011EC000895D6DF1496DDD0EA87FB870895EFE7E4
:1011FC00FFEFEA230E2F0895E4E0F0E00895FCDF02
:10120C00E7CFEBEFFFEFEA230E2F0895EB89EA937C
:10121C00FE01E95AFF4F0190F081E02DE0DEFE0166
:10122C00E95AFF4FDCDED4D950300895E0E3EA935D
:10123C0008950CDFAE81BF81888599850895E98575
:10124C00FA856B857C850895E987FA876B877C879F
:10125C000895AE81BF811196AE83BF831197089517
:10126C00AA81BB818C819D810895EA83FB836C8369
:10127C007D830895EA81FB816C817D81A985BA8586
:10128C008B859C850895E0E0F0E060E87FE30895AD
:10129C00A985BA858B859C850895EA9325CDE8812F
:1012AC00F9816A817B8108950024AF0DB01D0895EA
:1012BC00F195E195F0400895F09560957095E19564
:1012CC00FF4F6F4F7F4F0895FE2FFF0FFF0B6F2FB8
:1012DC007F2F08956F2F660F660B762F08958B2F37
:1012EC00880F880B982F08950024112490E1AA0FE1
:1012FC00BB1F001C111C0E1A1F0A18F40E0E1F1E09
:10130C0001C0A1609A9599F7FD01D00108953BD0D9
:10131C00EBDF0EF4CDDF08953F934F935F930024E2
:10132C0011244427552730E2AA0FBB1F881F991F91
:10133C00001C111C441F551F0E1A1F0A460B570B7D
:10134C0028F40E0E1F1E461F571F01C0A1603A95B0
:10135C0059F7FD01BC01D001CA015F914F913F913A
:10136C000895E894B7FF04C0A095B09511966894C1
:10137C00F7FD9EDFB9DFFD010EF49ADF0895CCDF97
:10138C00FD01BC010895E894F7FF02C091DF689459
:10139C00B7FF06C0A095B095119600F8039400FA1B
:1013AC000895ED91FC9111970895ED91FD916D913A
:1013BC007C91139708957A936A93FA93EA9308951C
:1013CC00689401C0E89401D07AD0182E862F612D34
:1013DC00192E972F712D1B2EBF2FF12D1A2EAE2FDC
:1013EC00E12D089530976040704009F070580895D1
:1013FC00552342F4503811F4E0FF04C03196691FB4
:10140C00791F6BF050E8572711F45F93CDC05F3F05
:10141C0031F0660F000C57956795752F08955F9303
:10142C0000200AF0CDC0C6C050E8192E1522880F36
:10143C00991F9527550F879550E8072E0522660FA3
:10144C00771F7527550F67950895689401C0E89428
:10145C005F93F2DF703818F07F3F08F4A5C056E1B7
:10146C00571BAAF4519558300EF4593030F0EFEF69
:10147C00FFEF6FEF7FE777F91AC077275523B9F0A5
:10148C00EE0FFF1F661F771F5A95D1F710C07727F5
:10149C00583028F0EF2FF62F672F5850F9CF5523DF
:1014AC0031F076956795F795E7955A95D1F7002029
:1014BC000AF402DF5F910895689401C0E8943097B4
:1014CC0060407040B1F0002426F0772312F40094B1
:1014DC00F3DE172E7EE1112032F07A95EE0FFF1F0E
:1014EC00661F111CF9CFEF2FF62F612D5F938ADF4A
:1014FC005F9108954F93AF01FD01DA01AB01BC017F
:10150C00CA01402D012C142E4F910895EA0FFB1F98
:10151C00681F0895E095F0956095EF5FFF4F6F4F52
:10152C0008955F9381DF903871F150E8152604C05F
:10153C005F937ADF903839F1703821F1572F591BAE
:10154C0013F112F4D7DFFACF583118F0AA27BB27C2
:10155C008827583028F0AB2FB82F88275850F9CF50
:10156C00552329F08695B795A7955A95D9F7502DFF
:10157C00512562F0CBDF38F46795F795E7957395B5
:10158C0013F41EC0B7DF3EDF5F910895EA1BFB0B1F
:10159C00680B51F010F40094BDDF6623A2F3EE0F3C
:1015AC00FF1F661F7A95CBF7EE27FF276627772755
:1015BC005F910895EFEFFFEF6FE77FEF5F91089575
:1015CC00EFEFFFEF6FE77FE75F9108955F932CDFFD
:1015DC00703851F3903841F301240894791F23F4A7
:1015EC001CF300203AF3ECCF0F921F932F933F93F1
:1015FC004F93112722279927689FA0018F9F302D89
:10160C00410D591F6B9F300D411D591F8E9F27D0C7
:10161C00BF9F25D06A9F23D0BE9F1DD0AF9F1BD0EC
:10162C00AE9F110D291F391F491F591FE32FF42F8E
:10163C00652F522F4F913F912F911F910F90662341
:10164C002AF0550FEE1FFF1F661F02C073954BF259
:10165C00CFDE5F910895100D211D391F02C0200DA2
:10166C00311D491F591F08955F93DEDE703821F438
:10167C0011200AF49FCFA4CF903809F495CF012400
:10168C000894970B1BF4D4F30020F3CF792F1F93FE
:10169C002F933F934F93112411272227332744274D
:1016AC00552790E2AE17BF078607410730F0AE1BF7
:1016BC00BF0B860B410B089401C08894551F221F49
:1016CC00331F111CAA1FBB1F881F441F9A9551F76B
:1016DC00F901612D4F913F912F911F91662332F0AB
:1016EC00550FEE1FFF1F661F7A9543F281DE5F9147
:1016FC00089599239AF0772342F0971748F029F42C
:10170C00AE17BF07860720F031F09894889408959F
:10171C009894089408951894889408957723C2F7A0
:10172C00971798F3A9F7EA17FB07680788F399F35B
:10173C00ECCF3097604070400895EA17FB076807BC
:10174C00790708955A934A933A932A931A930A93D2
:10175C0008955D814C813B812A811981088108950E
:00000001FF
