:0200000025C019
:10000200FECFFDCFFCCFFBCFFACFF9CFF8CFF7CFA2
:1000120090C0F5CFF4CFF3CFF2CFF1CFF0CFEFCF47
:10002200EECFEDCF6261743A002C0054696D653AEF
:10003200000001002D4E414E000080C001007901F8
:10004200340002007D013C000000F894EE27ECBB76
:10005200F1E0FBBFEBBFE5BFF8E1F1BDE1BD8DE033
:10006200A2E0BB27ED938A95E9F780E094E0A0E651
:10007200ED930197E9F7EEE3F0E085919591009712
:1000820061F0A591B59105901590BF01F001059021
:100092000D920197E1F7FB01F0CFEFE5EDBFE4E050
:1000A200EEBFC0E6D1E0C6C0F9D1E7B98BE18A95CF
:1000B200F1F7F7D1E064E6B9F4D1E071E9F3F1D1F7
:1000C200E061E6B9E4B1F5B1E7C1AA81A13080F1FE
:1000D200C394EAEFEC1510F48394CC24EA818E16D3
:1000E20060F4B394E981EB1539F4DED1A0E8B0E015
:1000F200EA27FB27E2BBBB24AA24EA81E815C0F465
:10010200D394EAEFED1510F4DD24A394CDD1EF776B
:10011200E2BBEA81EA1560F4A881A13008F08824E4
:10012200E881E150E883E03019F4E0E0EA83E98312
:1001320074C10A921A92FA926A937A938A939A9360
:10014200AA93BA93EA93FA93EFB7EA93869906C011
:10015200EAE0EA93EA93E3E0EA93B7DF5394EFEF3E
:10016200E51511F443945524E9E1E41561F505D14F
:100172009ED19ADFE0936B01F0936C01A0916B0129
:10018200B0916C01ECECF0E0B7D1E0936A01E09140
:100192006B01F0916C016627772727D2DF01CB0133
:1001A200EFE6F2E163E070E44ED2E0937501F09382
:1001B20076016093770170937801E0916A017AD1B8
:1001C2007BD17DD161D0E4E6E41531F5E091750192
:1001D200F09176016091770170917801CFD16CD165
:1001E20073D152D064D163D1B4D0E6E2F0E064D1ED
:1001F20005D165D1F6D0EBE2F0E05ED1FFD064D15B
:10020200F0D0E7E0EA9353D1A4D0EDE2F0E054D18C
:10021200F5D05AD1E6D04424E991EFBFF991E991A2
:10022200B991A9919991899179916991F9901990CE
:1002320009901895E0E0E8BBE7BBE5BBE4BBE2BB95
:10024200E0E8E1BBE1E0E3BFE0E0E2BFEFBDEEBD2D
:10025200EDBDECBDE7BDE6BDEBBDEABDE9BDE8BD68
:10026200E2BDE5BDE4BDE3BDE5BFE1E0E9BFE0E835
:10027200E8B9E0E0E0BFE7B9E3E8E6B9E0E1EA9334
:10028200DDD07894FFCFFFCFA991B991E991F9918F
:1002920030962AF4E095F09531966DE26D93E894EC
:1002A20080E197E20DD088EE93E00AD084E69927A8
:1002B20007D08AE005D06E2F10D066276C93089580
:1002C2006627E817F90720F06395E81BF90BC9F7D1
:1002D200662311F416F008956894605D6D93089595
:1002E200FFE0FA95F1F70895A7B3AF70A7BBC19AE3
:1002F200C098F6DFC29AF4DFA6B3C298F1DFC29AC1
:10030200EFDFC298A7FDF5CF0895A07FAB2BA8BB66
:10031200C29AE6DFC298E4DF0895C198A7B3A76F37
:10032200A7BBB8B3BF70A881F0DFA881A295EDDFAB
:10033200C19AB2C0C29AD4DFE6B3C298D1DFE07FDD
:100342000895CEDFF7DFAE2FF5DFC198E295EA2BF5
:100352000895CADFA3D0E358FE4FE081ABD0DF019E
:10036200E981A8D0EA0FFB1FB4D0E981E0938101B3
:10037200E881E093820122960895B6DFE2E0A9D0F7
:10038200B3DFECE0A6D0B0DFE1E0A3D0E0E0E093A1
:100392008201E09381010895EF93FF93A88168940D
:1003A200AA3061F0E894E0918101EF5FE09381016E
:1003B200E0918301A0918101EA1758F4E091820152
:1003C200EF5FE093820173D0E0918201EA93C1DF93
:1003D2002EF08ADFC09AA881AA939FDFFF91EF9146
:1003E2005BC01A93A981BA81ED91A983BA831E2FAA
:1003F200E03019F01A93D0DFF5CF0EC01A93E981DD
:10040200FA813196E983FA833197E4911E2FE03025
:1004120019F01A93C1DFF3CF188123960895AA2702
:10042200BB271197F1F70895C198A7B3A76FA7BB90
:10043200B8B3BF70A88169DFC19A2EC0C298C098B4
:10044200E881E09383012AD0E058FF4FE0937F01D7
:1004520025D0E054FF4FE09380013DD03CD03BD00B
:10046200DEDFE0E2EA93E0DFDADFE8E232D0D7DF94
:10047200E4E02FD0D4DFE5E82CD0D1DFA7B3AF7012
:10048200A7BBC19A5EDFE53011F0E0E005C02CDFCA
:10049200E6E01FD072DFE1E021960895E881F0E006
:1004A2000895E6B1F0E00895E2B3F0E00895E0E0E7
:1004B200EA930895F0E00895FA93EA930895E0919B
:1004C2006001F0916101F8CFE0916201F091630166
:1004D200F3CFEA9322CFA3DFE0E3EA93A5CFF0952F
:1004E20060957095E195FF4F6F4F7F4F08956F2F85
:1004F200660F660B762F08950024112490E1AA0F4F
:10050200BB1F001C111C0E1A1F0A18F40E0E1F1E10
:1005120001C0A1609A9599F7FD01D0010895552374
:1005220042F4503811F4E0FF04C03196691F791F7C
:100532006BF050E8572711F45F9373C05F3F31F0BF
:10054200660F000C57956795752F08955F930020ED
:100552000AF073C06CC050E8192E1522880F991F3B
:100562009527550F879550E8072E0522660F771FAE
:100572007527550F67950895689401C0E8945F93B5
:10058200F2DF703818F07F3F08F44BC056E1571B7A
:10059200AAF4519558300EF4593030F0EFEFFFEFD6
:1005A2006FEF7FE777F91AC077275523B9F0EE0F7F
:1005B200FF1F661F771F5A95D1F710C07727583053
:1005C20028F0EF2FF62F672F5850F9CF552331F02F
:1005D20076956795F795E7955A95D1F700200AF435
:1005E2007EDF5F910895689401C0E894309760407F
:1005F2007040B1F0002426F0772312F400946FDFEC
:10060200172E7EE1112032F07A95EE0FFF1F661F42
:10061200111CF9CFEF2FF62F612D5F938ADF5F91C7
:100622000895EE27FF27662777275F910895EFEF5A
:10063200FFEF6FE77FEF5F910895EFEFFFEF6FE757
:100642007FE75F9108955F9386DF703821F4112070
:100652000AF4EDCFF2CF903809F4E3CF01240894E5
:10066200970B1BF4D4F30020F3CF792F1F932F9312
:100672003F934F93112411272227332744275527CD
:1006820090E2AE17BF078607410730F0AE1BBF0BE3
:10069200860B410B089401C08894551F221F331FFB
:1006A200111CAA1FBB1F881F441F9A9551F7F901FD
:1006B200612D4F913F912F911F91662332F0550F7B
:1006C200EE1FFF1F661F7A9543F229DF5F9108959F
:00000001FF
