:040000001BC0FECF54
:10000400FDCFFCCFFBCFFACFF9CFF8CFF7CFF6CFA8
:10001400F5CF2DC0F3CF6BC0F1CFF0CFEFCFEECF44
:10002400EDCF1027E80364000A000100001000016E
:1000340010000100F894EE27ECBBF1E0FBBFEBBF2E
:10004400E5BFF8E1F1BDE1BD8DE0A2E0BB27ED9392
:100054008A95E9F780E094E0A0E6ED930197E9F74B
:10006400EFE5EDBFE4E0EEBFC0E6D1E07BC00A926D
:100074001A92FA926A937A938A939A93AA93BA9366
:10008400EA93FA93EFB7EA937DD01BB10CB1E0E0A9
:10009400E8BBE92DF0E0E05AFE4F0083A12FB0E069
:1000A400ECE1F0E0EA23FB23309709F011C09394CC
:1000B400E8E0E91509F001C09924B394E8E0EB15F0
:1000C40009F003C0BB24689420F80A9329D0602E59
:1000D4005CD0E991EFBFF991E991B991A991999116
:1000E400899179916991F990199009901895EA93F9
:1000F400FA93EFB7EA93CC2009F40DC0CA94ED2D1E
:10010400F0E0E859FE4FE081ECB9D394E8E0ED1556
:1001140009F001C0DD24E991EFBFF991E991189547
:10012400E8E0EC1509F001C0FBCFF894CC2009F00D
:1001340006C0EBB1F0E0E07209F401C00EC0EA2D94
:10014400F0E0E859FE4FA881A083A394E8E0EA1503
:1001540009F001C0AA24C39402C0E881ECB97894E0
:1001640021960895EFEFE8BBE7BBE0E0EBB9E8EDDB
:10017400EAB9E6E8E0BDE0E0E0BDE3E3E9B978949C
:10018400FFCFFFCF1A930A93089509911991089507
:00000001FF
