:020000003C289A
:080008009100910E030E92001D
:10001000040E93000A0E94000B080439003C0319E7
:100020003428FF3081000B1161202C0885002D0839
:1000300086002708003C0130031C26280030031DE1
:1000400026282608003C013003180301003C031950
:100050002E28A603260A0319A7033428B830A600C1
:100060008830A7000130A900140E8A00130E840006
:10007000120E8300110E09008B01831601306200FD
:10008000831285012030860083161F30860085018B
:100090008312FF308100B301AC012030AD00E030AD
:1000A000A0001030A100AB01AA010130A90001306D
:1000B000A800A030A6000F30A700B6018B168B1742
:1000C00060282808013C0130031D0301003C03198E
:1000D0001E292A088C000C08003C031D9A288D015B
:1000E0002C08F839023E03188D0AAC00AF01B001AC
:1000F00021088D0001308D072008AC3E03188D0AC1
:10010000A2000D08A300103021020030031C90282B
:100110000130031D9028E03020020130031C030150
:10012000003C03199628A430AE009828A130AE00F8
:10013000AA0A1E290C08013C031DDF2810302F02DB
:10014000013003180301003C0319DC283008003C8F
:100150000130031D0301003C0319B1280130B00038
:10016000C02822088E0023088D000D0C8E0C7F39CC
:100170008D000E088E01A2000D08A300B001AF0A89
:100180008D012C08FA39300703188D0A8E002308D8
:1001900000398F00220801399000900D8F0D900DCD
:1001A0008F0D1008FC3990018E0703188F0A0F0875
:1001B0008D070E08AC001E29AF01AA0A1E290C08E3
:1001C000023C031D142908302F02013003180301DB
:1001D000003C031911293008003C0130031D0301C4
:1001E000003C0319F6280130B000FD282E088D00D0
:1001F0000D0C7F39AE00B001AF0A8D012C08FA3921
:10020000300703188D0A8E002E0801398F008F0DDC
:100210000F0DFC390E078E0003188D0A0E08AC0076
:100220001E29AF01AA0A1E290C08033C031D1E2922
:100230002C08F839AC00A801AA011E292908013CA4
:100240000130031D0301003C0319CA2A3508003C94
:10025000013003180301003C031942292D08DF393E
:10026000AD00B5033508003C0130031D0301003C1F
:100270000319CA2A8C012D08DF39203E03188C0A85
:10028000AD00CA2A2B088C000C08003C031D782AFC
:1002900021088D002008A4000D08A5000F302502BC
:1002A0000030031C5B290130031D5B29A0302402B0
:1002B0000130031C0301003C03196D290130970034
:1002C000A03024028E000F30031C013E25028D0059
:1002D0000E08A4000D08A5006E2997010130250223
:1002E0000030031C7B290130031D7B299030240240
:1002F0000130031C0301003C0319A32998010130BC
:1003000025020030031C8C290130031D8C299030FC
:1003100024020130031C0301003C0319A52990307D
:1003200024028E000130031C013E25028D000E08C0
:10033000A4000D08A5008D011808013E03188D0AC0
:1003400098007F29A5290A30980000302502003046
:10035000031CB2290130031DB229283024020130C8
:10036000031C0301003C0319DA299901003025021E
:100370000030031CC3290130031DC3292830240287
:100380000130031C0301003C0319DC29283024023E
:100390008E000030031C013E25028D000E08A400D3
:1003A0000D08A5008D011908013E03188D0A99005A
:1003B000B629DC290A309900003025020030031CE0
:1003C000E9290130031DE929043024020130031C0E
:1003D0000301003C0319112A9B0100302502003063
:1003E000031CFA290130031DFA29043024020130CC
:1003F000031C0301003C0319132A043024028E005D
:100400000030031C013E25028D000E08A4000D08DB
:10041000A5008D011B08013E03188D0A9B00ED29E4
:10042000132A0A309B002408003C0319192A0030C3
:100430001E2A2508003C0130031D0301003C03195E
:10044000252A0A309C000A309D002408013C03192B
:100450002B2A0030302A2508003C0130031D0301FF
:10046000003C0319372A02309C0005309D00240807
:10047000023C03193D2A0030422A2508003C013085
:10048000031D0301003C0319492A05309C000A3072
:100490009D002408033C03194F2A0030542A2508E4
:1004A000003C0130031D0301003C03195B2A0730A7
:1004B0009C0005309D000F309A003608003C01304A
:1004C000031D0301003C0319692A96010C309F00AB
:1004D0006C2A0D3096009F010130B100B2018D01F0
:1004E0002D08DF39203E03188D0AAD00AB0ACA2A59
:1004F0000C08013C031DC32A31080A3C0130031CCF
:100500000301003C0319C12A0430320201300318F0
:100510000301003C0319BE2A3108153E840000087F
:100520008D008D0C8D0C0D0C1F3901399500310893
:10053000153E840000088D000D0DFE398D00310838
:10054000153E84000D088000B20A8D012D089F39E8
:100550008E0015088F008F0D8F0D8F0D8F0D8F0D55
:100560000F0DC0390E0703188D0A203E8E000318A8
:100570008D0A0E08AD000230B500CA2AB201B10AD8
:10058000CA2AAB0ACA2A0C08023C031DCA2AAB01BC
:10059000A901CA2A103021020030031CD72A0130D9
:1005A000031DD72AE03020020130031C0301003C68
:1005B0000319DE2A2C08EF39AC00E52A8C012C083F
:1005C000EF39103E03188C0AAC0006080339B80056
:1005D0003708033C0130031D0301003C03197C2B49
:1005E0003808023C0130031D0301003C0319352B80
:1005F0003608003C0130031D0301003C0319142B95
:10060000153021020130031C0D2B0030031D0D2B72
:1006100040302002013003180301003C03192F2B46
:10062000A00A0319A10A2F2B2108153C0030031C36
:10063000212B0130031D212B2008183C0130031C05
:100640000301003C03192F2B21088C0000308C077C
:100650002008283E03188C0AA0000C08A1000130D5
:10066000A8000130A9000430B7003808013C01306F
:10067000031D0301003C03197C2B3608003C0130AC
:10068000031D0301003C03195A2B21080D3C0130C6
:10069000031C522B0030031D522B2008C03C01309C
:1006A00003180301003C0319762BA003200A031949
:1006B000A103762B0D3021020030031C672B013083
:1006C000031D672BE83020020130031C0301003CAE
:1006D0000319762B283020028D000030031C013EC8
:1006E00021028C000D08A0000C08A1000130A80018
:1006F0000130A9000430B7003808033C0130031D65
:100700000301003C03198D2B0A303302013003181A
:100710000301003C031DB30A952B3308003C013054
:1007200003180301003C031DB30333080A3C0130E6
:10073000031D0301003C03199F2B0330B70033084E
:10074000003C0130031D0301003C0319A92B0430B8
:10075000B70006080439003C0130031D0301003CCA
:100760000319BB2B0A303402013003180301003C8B
:10077000031DB40AD22B34080A3C0130031D0301C7
:10078000003C0319D12B3608003C0130031D030146
:10079000003C0319CE2B0130B600CF2BB60101303F
:0607A000A900B4010800ED
:02400E000B00A5
:00000001FF
