:0A00000024C0FECFFDCFFCCFFBCFE4
:10000A00FACFF9CFF8CFF7CF38C0F5CFF4CFF3CF87
:10001A00F2CFF1CFF0CFEFCFEECFEDCF1027E8033D
:10002A0064000A0001000010000110000100626172
:10003A0074303D256420626174313D2564230000DB
:10004A00F894EE27ECBBF1E0FBBFEBBFE5BFF8E1AC
:10005A00F1BDE1BD8DE0A2E0BB27ED938A95E9F7FA
:10006A0080E094E0A0E6ED930197E9F7EFE5EDBFB4
:10007A00E4E0EEBFC0E6D1E07BC10A921A92FA929E
:10008A006A937A938A939A93AA93BA93EA93FA937E
:10009A00EFB7EA93E1E0EA1511F4EC1509F027C08D
:1000AA00E0916301EF5FE0936301A0916301BB27D5
:1000BA00A83EE3E0BE0764F0B394EAE0EB1541F42E
:1000CA00E2B3F0E0A4E0B0E0EA27FB27E2BBBB24FE
:1000DA00A0916301BB27AC3DE5E0BE0744F0E2B363
:1000EA00F0E0EB7FE2BBE0E0E0936301D394E5E06C
:1000FA00DE1638F0AA24CC24E0E0DE2EBE2EE093F1
:10010A006301E2E0EA1519F4E1E0EC1509F027C011
:10011A00E0916301EF5FE0936301A0916301BB2764
:10012A00A032E3E0BE0764F0B394E5E0EB1541F4D6
:10013A00E2B3F0E0A4E0B0E0EA27FB27E2BBBB248D
:10014A00A0916301BB27A83EE3E0BE0744F0E2B3F7
:10015A00F0E0EB7FE2BBE0E0E0936301D394E2E0FE
:10016A00DE1638F0AA24CC24E0E0DE2EBE2EE09380
:10017A006301E0916001EF5FE0936001A09160018B
:10018A00A13039F4E2B3F0E0A8E0B0E0EA27FB27B7
:10019A00E2BBEFEF5E1620F05524639493944394E8
:1001AA00E5E09E1698F1A0916101BB27AC32E1E02F
:1001BA00BE073CF4A0916101BB27A43FE1E0BE0762
:1001CA000CF40AC0E2B3F0E0A0E8B0E0EA27FB27AB
:1001DA00E2BB9924E1E0AE2EA0916201BB27AC32CA
:1001EA00E1E0BE073CF4A0916201BB27A43FE1E035
:1001FA00BE070CF40AC0E2B3F0E0A0E2B0E0EA27DE
:10020A00FB27E2BB9924E1E0AE2E9924EAE04E16E0
:10021A00F8F0A0916101BB27A43FE1E0BE0744F4D6
:10022A00E2B3F0E0A0E8B0E0EA27FB27E2BB44240F
:10023A00A0916201BB27A43FE1E0BE0744F4E2B308
:10024A00F0E0A0E2B0E0EA27FB27E2BB4424442422
:10025A00E4E16E1620F0E8B3F0E0EC7FE8BBE6E1FB
:10026A006E1670F0E82DF0E0E130A0E0FA0711F424
:10027A00882404C0309711F4E1E08E2EE1E07E2E4E
:10028A00E9E16E1608F454C0A0916101BB27A43FAE
:10029A00E1E0BE072CF4E8B3F0E0E160E8BB6624D5
:1002AA00A0916201BB27A43FE1E0BE072CF4E8B3AA
:1002BA00F0E0E260E8BB6624A0916101BB27A53F9C
:1002CA00E1E0BE076CF0E8B3F0E0EE7FE8BBE2B332
:1002DA00F0E0E068E2BB6624E2E0AE2EE1E0CE2E7A
:1002EA00A0916201BB27A53FE1E0BE076CF0E8B32D
:1002FA00F0E0ED7FE8BBE2B3F0E0E062E2BB662447
:10030A00E2E0AE2EE1E0CE2E6624E8E3F0E0FA93D6
:10031A00EA93E0916101FF2766277727E7D2E09108
:10032A006201FF2766277727E1D288E09BD22A96C7
:10033A00E991EFBFF991E991B991A99199918991BF
:10034A0079916991F990199009901895E881F0E0EE
:10035A00E7B9E6B1F0E0E064E6B9E6B1F0E0E071F1
:10036A00E1F3E6B1F0E0E061E6B9E4B1F5B139C034
:10037A00E0E0E8BBE3E4E7BBE0E0E5BBE4BBE2BB0B
:10038A00ECEAE1BBE1E0E3BFE0E0E2BFE9B7F0E0BD
:10039A00E160E9BFE0E0EBB9E8E1EAB9E6E8E0BD2F
:1003AA00E0E0E0BDE3E3E9B9E0E8E8B9E0E0E0BFB6
:1003BA00E7B9E3E8E6B97894E1E0E71561F4772470
:1003CA00E82DF0E0EF59FE4FFF93EF938A92BEDFDC
:1003DA00AF91BF91EC93F0CFFFCF5D9BFECFE88149
:1003EA00ECB92196089592D2AC81BD8177D230972B
:1003FA00D1F0AA81BB8172D28F01309749F00230C5
:10040A00E0E01E0778F0F80131978F01ED93FC9335
:10041A00AC81BD81ED91FD913196FE93EE933197BA
:10042A00AE81A08303C0EE81EA93D7DF76D2279606
:10043A000895269767D210E0EA89FB893196EA8BFC
:10044A00FB8B3197E4912E2FE03009F408C2E12F9B
:10045A00F0E0309779F4253211F411E00AC02A93BA
:10046A00EF85F889FA93EA93FE013F96FA93EA93A5
:10047A00BADFF4C1E130A0E0FA07E9F4253259F411
:10048A002A93EF85F889FA93EA93FE013F96FA9345
:10049A00EA93A9DFE2C112E040E000E02D3211F454
:1004AA0001E0DCC12B3211F44BE2D8C1203211F445
:1004BA0040E2D4C104C0E230A0E0FA0761F450E09F
:1004CA0013E0203339F4A02FB0E0E0E8F0E0EA2BA3
:1004DA000E2FC4C105C0E330A0E0FA0709F0BEC17F
:1004EA00203310F02A3308F014C0A52FB0E0EAE058
:1004FA00F0E0EA02F0015E2F652F7727A22FB0E025
:10050A00E0E3F0E0F8D1EA1BFB0BDB01EA0F5E2F18
:10051A00A5C1E22FF0E0E336A0E0FA0789F4E88902
:10052A00F9893497E88BF98BA481AA93EF85F88926
:10053A00FA93EA93FE013F96FA93EA9354DF8DC148
:10054A00E337A0E0FA0781F4E889F9893497E88B60
:10055A00F98BA889B9891496C1D1EE83FF83FA93DE
:10056A00EA939FD11E2F19C0E037A0E0FA0719F5C8
:10057A00E889F9893497E88BF98BA889B98914969F
:10058A00ADD1EE83FF83FA93EA9395D11E2FA02F64
:10059A00B0E0E8E0F0E0EA2B0E2FA02FB0E0E2E0B6
:1005AA00F0E0EA2B0E2FA02FB0E0EFE7FFEFEA23EF
:1005BA000E2F30E05EC0E436A0E0FA0721F0E936FB
:1005CA00A0E0FA0739F4A02FB0E0E4E0F0E0EA2B6B
:1005DA000E2F04C0E537A0E0FA0731F4E6E2F0E0B6
:1005EA00EE83FF8315E015C0E835A0E0FA0739F479
:1005FA00A02FB0E0E8E0F0E0EA2B0E2F05C0E837C4
:10060A00A0E0FA0709F029C1E0E3F0E0EE83FF83F6
:10061A0014E0A02FB0E0E4E0F0E0EA23FB233097F7
:10062A00E9F0E889F9893497E88BF98BA889B989BF
:10063A00149654D1EA87FB87AB85AA2322F44AD1C0
:10064A00EA87FB874DE2403011F01F5F06C0A02FFA
:10065A00B0E0EBEFFFEFEA230E2F0BC0E889F98930
:10066A003497E88BF98BA889B989149637D1EA8728
:10067A00FB87E02FF0E0E17051F5151740F5A02F48
:10068A00B0E0E0E8F0E0EA23FB23309799F0A02FEE
:10069A00B0E0E4E0F0E0EA23FB23309749F0A02F32
:1006AA00B0E0EBEFFFEFEA230E2F242F115001C029
:1006BA0020E301C020E22A93EF85F889FA93EA93AE
:1006CA00FE013F96FA93EA938EDE5150D6CF312F30
:1006DA00A02FB0E0E2E0F0E0EA23FB23309739F103
:1006EA00303021F1A02FB0E0E8E0F0E0EA23FB236C
:1006FA00309741F0EE81FF813196EE83FF83319787
:10070A00E49105C0AE81BF81ED91AE83BF83EA93C8
:10071A00EF85F889FA93EA93FE013F96FA93EA93F2
:10072A0062DE503009F051503150DACF83C020E3F5
:10073A00EE81FF81D7D0E887F987EE81FF81329673
:10074A00EE83FF83E885F985AA85BB85AE17BF07C7
:10075A0050F02F5FA885B985EA85FB85EA1BFB0B5C
:10076A00EA87FB87EFCF2A3380F0A02FB0E0E8E0DA
:10077A00F0E0EA23FB23309721F0E22FF0E03796EE
:10078A0003C0E22FF0E0B7962E2FA02FB0E0E0E1F1
:10079A00F0E0EA23FB23309709F039C0213320F433
:1007AA00A885B985119709F411C0531720F0E02FD5
:1007BA00F0E0E17009F038C020E2A02FB0E0E0E8F4
:1007CA00F0E0EA23FB23309711F120E3A02FB0E0F9
:1007DA00E0E1F0E0EA2B0E2FA02FB0E0E4E0F0E039
:1007EA00EA23FB23309799F0A02FB0E0EBEFFFEF5D
:1007FA00EA230E2F4A93EF85F889FA93EA93FE01CA
:10080A003F96FA93EA93EFDD503009F051502A935C
:10081A00EF85F889FA93EA93FE013F96FA93EA93F1
:10082A00E2DD503009F051503150A885B985129750
:10083A0008F07DCFE02FF0E0E17079F0503069F0F8
:10084A005150E0E2EA93EF85F889FA93EA93FE01C0
:10085A003F96FA93EA93C7DDF1CF10E0EDCD59D078
:10086A0064960895FF92F82E229750D0DE012ED07A
:10087A008D01E0E0EA83EB83DE01149627D02ED0C7
:10088A00FA93EA931A930A93FE013696FA93EA9335
:10089A00E0E0F0E0FA93EA93CCDD3FD02496FF90B3
:1008AA000895A991B991EE27FF276D91662311F05A
:1008BA003196FBCF0895AA27BB27E991F9910590B4
:1008CA00002011F01196FBCFFD0108950024AF0D11
:1008DA00B01D0895F195E195F0400895ED91FC91D0
:1008EA00119708950590F491E02D08957A936A93EB
:1008FA00FA93EA9308951B2EBF2FF12D1A2EAE2FCD
:10090A00E12D08955A934A933A932A931A930A9394
:10091A0008955D814C813B812A811981088108955E
:00000001FF
