:0400000013C041C028
:1000040041C0FCCFFBCFFACF92C0F8CFF7CF47C0A7
:10001400F5CFF4CFF3CFF2CFF1CFF0CFEFCFEECFD8
:10002400EDCF0000F894EE27ECBBF1E0FBBFEBBF93
:10003400E5BFF8E1F1BDE1BD8DE0A2E0BB27ED93A2
:100044008A95E9F780E094E0A0E6ED930197E9F75B
:10005400E6E2F0E085919591009761F0A591B59164
:1000640005901590BF01F00105900D920197E1F7FD
:10007400FB01F0CFEFE5EDBFE4E0EEBFC0E6D1E079
:1000840014C11895EA93FA93EFB7EA93E1E0F0E02C
:100094005E0E6F1EE991EFBFF991E99118950A92EE
:1000A4001A92FA926A937A938A939A93AA93BA9336
:1000B400EA93FA93EFB7EA93E3E04E1610F443940D
:1000C40002C0E1E04E2EE42DE13071F4E3E6F0E00D
:1000D400E715F80540F4A72DB82DE4E6F0E0E8D0E4
:1000E400E3E0EA9371D015C0E23059F4E9E0F0E0BE
:1000F400E715F80528F4E3D0DBD0E2E0EA9364D016
:1001040008C0E33031F4DBD008D1EA93E1E0EA93AC
:100114005BD0E991EFBFF991E991B991A9919991D6
:10012400899179916991F9901990099018950A9299
:100134001A929A93AA93BA93EA93FA93EFB7EA932B
:10014400A52DB62DE6E0F0E0CDD0DF01E5E0F0E04E
:10015400D1D07E2E8F2E55246624B6D0E991EFBFE0
:10016400F991E991B991A9919991199009901895EA
:10017400E0E0E8BBEFEFE7BBE0E0E5BBEFEFE4BBBB
:10018400E8E0E2BBE7EFE1BBE2E0E3BFE0E0E2BFCF
:10019400EFBDE4E0EEBD98D0E0E0E7BDE6BDE7E00A
:1001A400EBBDE1EAEABDE0E0E9BDE8BDEABFEAE0B3
:1001B400E5BFEBB7E06CEBBFE1E5E9BFE0E8E8B928
:1001C400E0E0E0BF78940895909891989298C09A4E
:1001D400C19AC29AC39AC49AC59AC69AE981E03070
:1001E40029F476D078D09598C0984AC0E13021F4AB
:1001F400C19AC298979841C0E23039F469D0979A6D
:1002040096989598C09A94983CC0E33031F460D0A5
:1002140062D0959AC09A949834C0E43031F4C19A6B
:10022400C2989798969A5AD02CC0E53029F4C19870
:10023400C29A51D053D025C0E63039F4C198C29A3D
:100244004AD09598C09894981CC0E73019F440D0CF
:10025400979813C0E83031F43BD03DD09598C098BE
:1002640094980FC0E93021F433D035D037D009C089
:10027400EA3039F4C198C29A979A969A959AC09A94
:10028400949AE881E13021F4909A919892980BC065
:10029400E23021F49098919A929805C0E33019F4D1
:1002A40090989198929A2296089562DFFFCFFFCF9B
:1002B40021D0DF01EAE0F0E030D0EA930895A72DE1
:1002C400B82DEAE0F0E00895E0E0EDBDECBD08955E
:1002D400C198C2980895979896980895959AC09849
:1002E40094980895FA9FF02DEB9FF00DEA9FE02D6E
:1002F400F10D08950024112490E1AA0FBB1F001CE6
:10030400111C0E1A1F0A18F40E0E1F1E01C0A16044
:100314009A9599F7FD01D0010895ECDFFD01089548
:00000001FF
