:100000000C940E0118951895189518951895189533
:100010001895189518951895189518951895189578
:100020001895189518951895189518951895189568
:100030001895189518951895189518951895189558
:100040001895189518951895189518950C94B7004B
:100050001895189520E0322F043650E0150720F04F
:10006000045610403395F8CF0A3050E0150720F0C1
:100070000A5010402395F8CF502F452FE32FEC590D
:10008000F0E0508150936E00E22FEC59F0E0508187
:1000900050936F00E42FEC59F0E0508150937000C2
:1000A00008950FEF0ABB00E00BBB04B3006E04BB66
:1000B00000E005BB08950FE00CBF03B70D6003BF60
:1000C00009B7026009BF089507ED0093640004E1D9
:1000D000009365000DEC009366000DE5009367004A
:1000E0000EE1009368000BE5009369000BED0093AF
:1000F0006A0005E100936B000FED00936C000FE5C3
:1001000000936D0008959A938A9380E0DDDF00E00C
:1001100010E0A0DFC6DFCFDF789490E0933310F4D7
:100120009395FCCF833011F480E002C010E08395FA
:1001300005B30F7105BB90E09F3110F49395FCCF90
:10014000082F005029F00A9541F00A9559F0E5CFA3
:10015000AF9A009170000BBBE0CFAE9A00916F0098
:100160000BBBDBCFAD9A00916E000BBBD6CF8A9351
:10017000FA93EA933A922A921A920A927A936A939B
:100180005A934A933A932A931A930A938FB7E0E6C5
:10019000F0E000811181033A22E0120748F4E0E622
:1001A000F0E0008111810F5F1F4F0083118325C094
:1001B00001E010E0E0E6F0E000831183E2E6F0E029
:1001C00000811181073E23E0120748F4E2E6F0E0E7
:1001D000008111810F5F1F4F0083118306C000E073
:1001E00010E0E2E6F0E00083118308B3039508BB5A
:1001F000E2E6F0E0008111812DDF8FBF09911991B6
:100200002991399149915991699179910990199060
:1002100029903990E991F9918991189500EB0DBFDA
:1002200000E00EBFC1E9D0E00E942201002311F0DE
:100230000E9432010E9483000E9420010C944C0114
:100240000C944C0101E0089520E002D0E9F70895F4
:100250002D9301501040202F212B08952591F8DF78
:10026000E9F7089582EA92E0FC0105911491FC01FE
:100270003296A591B491FC01349625913491422F88
:10028000432B19F0F901EADF01C0DEDF069612E028
:100290008E3A910748F308950C944F010000889519
:1002A000FECF02006000AE020F00620000000100FD
:00000001FF
