:1000000017C0FECFFDCFFCCFFBCFFACF40C0F8CF5B
:10001000F7CFF6CFF5CFF4CFF3CFF2CFF1CFF0CFCC
:10002000EFCFEECFEDCF80C00200600126000000D0
:10003000F894EE27ECBBF1E0FBBFEBBFE5BFF8E1C6
:10004000F1BDE1BD8DE0A2E0BB27ED938A95E9F714
:1000500080E094E0A0E6ED930197E9F7E8E2F0E0B4
:1000600085919591009761F0A591B59105901590B6
:10007000BF01F00105900D920197E1F7FB01F0CF70
:10008000EFE5EDBFE4E0EEBFC0E6D1E00DC0EA93DE
:10009000FA93EFB7EA9321D1F20131962F01E9915A
:1000A000EFBFF991E9911895E0E0E8BBEFEFE7BB0E
:1000B000E3E0E5BBE0E0E4BBE2BBE1BBE3BFE2BF02
:1000C000EFBDE5E0EEBD09D1E0E0E7BDE6BDEEE164
:1000D000EBBDE5E8EABDE0E0E9BDE8BDE2BDE5BDB8
:1000E000E4BDE3BDE5BFE0E1E9BFE0E8E8B9E0E099
:1000F000E0BFE0E1EA93C3D07894989904C0F1D0CE
:10010000F30131963F01999904C0EBD0F401319687
:100110004F01ECE3F0E0E415F50529F4F301319625
:100120003F0144245524ECE3F0E0E615F70529F4FB
:10013000F40131964F0166247724E8E1F0E0E815F8
:10014000F90531F48824992466247724442455241D
:10015000E4E0EA93E0E0EA934ED0D401C7D0C9D0FE
:10016000D401CBD0D301C2D0C4D0D301C6D0D201E8
:10017000BDD0BFD0D201BAD0F0D0F096EA9358D01B
:10018000BCCFFFCFFFE0FA95F1F70895A1B3AF70B0
:10019000A1BB919A9098F6DF929AF4DFA0B392985F
:1001A000F1DF929AEFDF9298A7FDF5CF0895A07F37
:1001B000AB2BA2BB929AE6DF9298E4DF0895919868
:1001C000A1B3A76FA1BBB2B3BF70A881F0DFA881B4
:1001D000A295EDDF919A7FC0929AD4DFE0B3929816
:1001E000D1DFE07F0895CEDFF7DFAE2FF5DF919806
:1001F000E295EA2B0895CADF88D0E05AFE4FE081ED
:10020000F0E0DF01E981F0E0EA0FFB1F81D0B98067
:10021000A88022960895BADFE2E07AD0B7DFECE05A
:1002200077D0B4DFE1E074D0E0E0AE2EBE2E0895CA
:10023000EF93FF93A8816894AA3021F0E894B394D7
:10024000DB1430F4A394E0E0EA93AA92D4DF2EF01A
:100250009DDF909AA881AA93B2DFFF91EF913BC0F6
:10026000AA27BB271197F1F708959198A1B3A76F1B
:10027000A1BBB2B3BF70A8819ADF919A2CC09298AB
:100280009098D88042D0E058FF4FE09362013DD073
:10029000E054FF4FE09363013DD03CD03BD0E0DF22
:1002A000E0E2EA93E2DFDCDFE8E232D0D9DFE4E04B
:1002B0002FD0D6DFE5E82CD0D3DFA1B3AF70A1BB40
:1002C000919A91DFE53011F0E0E005C05FDFE6E0F4
:1002D0001FD0A1DFE1E021960895E0E0EDBDECBD87
:1002E0000895EAEFF0E0FA93EA9318C0EAE0F0E04C
:1002F000089520D0F096EA939BCFF8DF2ED0F096A9
:10030000EA9396DFEAE3EA9393CFE881F0E0089579
:10031000EA9355CFA5DFE0E3EA93A7CFE991F991FE
:10032000309639F080ED97E00197F1F7A895319775
:10033000C9F708950024112490E1AA0FBB1F001CE7
:10034000111C0E1A1F0A18F40E0E1F1E01C0A16008
:100350009A9599F7FD01D0010895ECDFFD0108950C
:00000001FF
