:0E00000018C0DBC1FDCFFCCFFBCFFACFF9CF8C
:10000E00F8CFF7CF3EC0F5CFF4CFF3CFF2CFF1CF8D
:10001E00F0CFEFCFEECFEDCF0000000003000500D4
:10002E0026000000F894EE27ECBBF1E0FBBFEBBF1F
:10003E00E5BFF8E1F1BDE1BD8DE0A2E0BB27ED9398
:10004E008A95E9F780E094E0A0E6ED930197E9F751
:10005E00EAE2F0E085919591009761F0A591B59156
:10006E0005901590BF01F00105900D920197E1F7F3
:10007E00FB01F0CFEFE5EDBFE4E0EEBFC0E6D1E06F
:10008E0096C10A92AA93BA93EA93FA93EFB7EA93B8
:10009E00E0E0E51509F00EC0E61509F00BC0E71516
:1000AE0009F008C0B9D109F005C0E0E0ED1509F07E
:1000BE0001C001C048C0E0916201EF5FE0936201B0
:1000CE00A0916201A83C09F005C0E0916301EF5FC9
:1000DE00E0936301A0916301AA3008F407C0A2D196
:1000EE00A1E2B0E0A2D1E0E0E0936301A0E0839949
:1000FE00A1E0A03009F009C08FD109F006C0A0918F
:10010E006801A33008F001C001C00BC0E091680186
:10011E00EF5FE0936801E1E06E2EE09364017724D7
:10012E0088D1A0916801A23008F407C0A0E083999D
:10013E00A1E0A13009F001C001C005C0E0E0E093EC
:10014E006401E0936801A0916B01B0916C01A1373D
:10015E00E7E1BE0708F404C05FD109F001C001C099
:10016E0009C060D1EF7DE2BBE0E0F0E069D17E2E08
:10017E005E2EDD24E1E0ED1509F003C0ABE6B1E043
:10018E0064D1A0E08299A1E0A13009F022C063D130
:10019E00E1E0E093660163D1E61509F004C03CD1BD
:1001AE0009F001C001C015C0ADE6B1E04ED1A0917D
:1001BE006D01B0916E01A13DE7E0BE0708F409C0E4
:1001CE0031D1E062E2BB7724E1E06E2EEAE0F0E0AE
:1001DE004AD1A0916601A13009F005C0E0916501F8
:1001EE00EF5FE0936501A0916501AB3F08F404C099
:1001FE0032D135D1E0936601829918C0A091650184
:10020E00A93208F40AC0E1E0E09367015524E0E06A
:10021E00F0E0E0936D01F0936E01A0916501AA32BA
:10022E0008F404C01CD1E093660115D1A0916701BA
:10023E00A13009F008C0E0E0E61509F004C0ECD0EA
:10024E0009F001C001C017C0552009F014C0E1E04B
:10025E005E2EDE2EE0E0F0E0F3D0E4D0E062E2BB12
:10026E007394E2E0F0E0FFD0E5E0E71509F003C09B
:10027E007724E1E06E2EA0E08299A1E0A03009F093
:10028E0004C0CAD009F001C001C000C0E1E0E6150B
:10029E0009F041C09394AA2009F00CC0E9D009F0EE
:1002AE0004C0C0D0E069E2BB03C0BCD0E061E2BBD9
:1002BE00E1E0AE2EEAEFE91508F002C0839499242E
:1002CE00EAE0E81508F00EC0D3D009F005C0AAD0B8
:1002DE00A0E9B0E0AAD004C0A5D0A0E1B0E0A5D0BE
:1002EE008824B394E2E0EB1508F015C0C1D009F0F4
:1002FE0004C098D0EF76E2BB03C094D0EF7EE2BB91
:10030E00BB24AA24E5B3F0E0E460E5BB92D06624FA
:10031E00E1E0E0936101E0E0E41508F001C04A94E9
:10032E00E2E0E41509F003C0E2E0F0E09CD0A09119
:10033E006901B0916A01A0D008F023C0C394E5E032
:10034E00EC1508F01EC0A0916101A13009F011C09A
:10035E00E0916001EF5FE0936001A0916001A43134
:10036E0009F007C05FD0A0E2B0E05FD0E0E0E0931C
:10037E006001A9E6B1E0ED91FD913197FE93EE9308
:10038E00CC244AD009F006C0A0916101A13009F039
:10039E0001C001C003C0E0E0E0936101E991EFBF4D
:1003AE00F991E991B991A991099018951895E0E004
:1003BE00E8BBE7BBE5BBE7E8E4BBE0E0E2BBEDEBA7
:1003CE00E1BBE1E0E3BFE0E0E2BFEFBDEEBDEDBDBE
:1003DE00ECBDE7BDE6BDEBBDEABDE9BDE8BDE2BDE6
:1003EE00E5BDE4BDE3BDE0E3E5BFE1E0E9BFE0E08C
:1003FE00EBB9E8E0EAB9E6E8E0BDE2E0E0BDE7E34C
:10040E00E9B9E0E8E8B9E0E0E0BFE7B9E1E8E6B96C
:10041E0078948895FFCFFFCFA0916901B0916A01C2
:10042E0010970895E2B3F0E00895EA27FB27E2BBA8
:10043E000895E0E2FEE4E0936901F0936A01089505
:10044E00E0936B01F0936C010895ED91FD9131965F
:10045E00FE93EE930895E0E0E09365010895E0E0E9
:10046E00E09367010895E0936901F0936A0108959E
:10047E00E0916401E030089500240A160B060895F9
:00000001FF
