:100000000C94EB0A0C94060B0C94060B0C94060B48
:100010000C94060B0C94060B0C94060B0C94060B1C
:100020000C94060B0C94531B0C94060B0C94060BAF
:100030000C94060B0C946E260C9497260C94060BCD
:100040000C94060B0C94060B0C94060B0C94060BEC
:100050000C94060B66756E6374696F6E206C6F612D
:100060006448544D4C287355524C297B766172205C
:10007000726571756573743D6E756C6C3B6966284D
:100080002172657175657374297472797B726571FB
:10009000756573743D6E6577204163746976655844
:1000A0004F626A65637428274D73786D6C322E58E1
:1000B0004D4C4854545027293B7D63617463682834
:1000C00065297B7D69662821726571756573742960
:1000D0007472797B726571756573743D6E65772096
:1000E000416374697665584F626A65637428274D69
:1000F0006963726F736F66742E584D4C4854545038
:1001000027293B7D63617463682865297B7D696667
:10011000282172657175657374297472797B7265B3
:1001200071756573743D6E657720584D4C487474D5
:10013000705265717565737428293B7D63617463C2
:10014000682865297B7D69662821726571756573EC
:10015000742972657475726E3B726571756573741E
:100160002E6F70656E2827474554272C20735552F3
:100170004C2C2066616C7365293B726571756573E3
:10018000742E73656E64286E756C6C293B72657491
:1001900075726E20726571756573742E72657370F9
:1001A0006F6E7365546578743B7D003C003D003E86
:1001B000004576656E74202339004576656E74209F
:1001C0002338004576656E74202337004576656ECA
:1001D00074202336004576656E74202335004576FD
:1001E000656E74202334004576656E7420233300D9
:1001F0004576656E74202332004576656E74202343
:1002000031004576656E742023300053656E64209E
:10021000416C61726D23390053656E6420416C61DD
:10022000726D23380053656E6420416C61726D23DA
:10023000370053656E6420416C61726D2336005344
:10024000656E6420416C61726D23350053656E6488
:1002500020416C61726D23340053656E6420416CE3
:1002600061726D23330053656E6420416C61726D61
:1002700023320053656E6420416C61726D2331003E
:1002800053656E6420416C61726D23300053656E5E
:100290006420416C61726D23302E2E23390053652A
:1002A0006E6420746F204C6F67004F6666204F5558
:1002B000543130004F6666204F555439004F6E2040
:1002C0004F55543130004F6E204F555439000D0AB0
:1002D000004F4E004F46460050696E230042616455
:1002E00020436F6D6D616E642073796E7461780D5B
:1002F0000A0D0A4578616D706C653A0D0A004F4B26
:10030000002E00485454502F312E312032303020EE
:100310004F4B0D0A436F6E74656E742D5479706582
:100320003A20746578742F68746D6C0D0A436163AC
:1003300068652D436F6E74726F6C3A206E6F2D631B
:10034000616368650D0A0D0A00485454502F312E20
:100350003120323030204F4B0D0A436F6E74656E82
:10036000742D547970653A20746578742F786D6CAB
:100370000D0A43616368652D436F6E74726F6C3A4A
:10038000206E6F2D63616368650D0A0D0A00485485
:1003900054502F312E3020333031204D6F7665642C
:1003A000205065726D616E656E746C790D0A4C6FCC
:1003B000636174696F6E3A20002F002F000D0A0DE3
:1003C0000A436F6E74656E742D547970653A2074AB
:1003D0006578742F68746D6C0D0A0D0A003C6831E5
:1003E0003E333031204D6F766564205065726D610B
:1003F0006E656E746C793C2F68313E0A003C6874FF
:100400006D6C3E3C686561643E3C7469746C653E2D
:100410004E4554416C61726D20003C2F7469746CC0
:10042000653E3C2F686561643E3C626F64793E3C8A
:1004300068313E3C666F6E7420636F6C6F723D2254
:10044000636F6C6F723D2223303038303830222297
:100450003E4E4554416C61726D20003C2F666F6EBC
:10046000743E3C2F68313E7C203C6120687265669A
:100470003D222E2F3F70673D3122207461726765E7
:10048000743D2261223E4D61696E3C2F613E207CAD
:10049000203C6120687265663D222E2F3F70673DCB
:1004A0003222207461726765743D2261223E536579
:1004B0007474696E67733C2F613E207C203C612020
:1004C000687265663D222E2F3F70673D332220748F
:1004D00061726765743D2261223E5469746C657374
:1004E0003C2F613E207C203C6120687265663D2285
:1004F0002E2F3F70673D3422207461726765743D12
:100500002261223E4C6F672D5365727665723C2FD7
:10051000613E207C203C6120687265663D222E2F62
:100520003F70673D3522207461726765743D2261BA
:10053000223E416C61726D204C6973743C2F613EA8
:10054000207C203C6120687265663D222E2F3F7022
:10055000673D3622207461726765743D2261223ED8
:100560004576656E74733C2F613E207C3C696672F3
:10057000616D65206E616D653D226122207372633D
:100580003D222E2F3F70673D3122207769647468C9
:100590003D223130302522206865696768743D222C
:1005A00038302522206672616D65626F72646572F3
:1005B0003D2230223E3C2F696672616D653E3C7083
:1005C00020616C69676E3D2263656E746572223EC0
:1005D00026636F70793B20323031302D323031312B
:1005E000204B6F72796167696E20416E6472657924
:1005F0002E20416C6C207269676874732072657379
:1006000065727665642E3C2F703E3C2F626F647974
:100610003E3C2F68746D6C3E003C756C3E003C6C3B
:10062000693E003A003A003C6120687265663D22EE
:100630002E2F3F70673D31266E3D002673773D00BB
:1006400031003000223E003C2F613E003C2F6C699F
:100650003E003C2F756C3E003A003A003B003A00E9
:100660000A003C3F786D6C2076657273696F6E3D51
:1006700022312E3022203F3E0D0A3C737461743EBD
:100680000D0A093C6465766963653E0A0009093C08
:100690006974656D3E0D0A0909093C69643E0009EB
:1006A00009093C2F69643E0D0A0909093C74697403
:1006B0006C653E003C2F7469746C653E0D0A090937
:1006C000093C76616C75653E003C2F76616C756502
:1006D0003E0D0A09093C2F6974656D3E0D0A00093B
:1006E0003C2F6465766963653E0D0A3C2F73746127
:1006F000743E0A003C68323E53657474696E6773D9
:100700003C2F68323E3C666F726D206D6574686F79
:10071000643D22474554223E3C696E707574206EDC
:10072000616D653D2270672220747970653D226895
:10073000696464656E222076616C75653D223222A3
:100740003E3C696E707574206E616D653D2261225C
:1007500020747970653D2268696464656E22207634
:10076000616C75653D2261223E3C7461626C65205E
:10077000626F726465723D2230223E3C74723E3C70
:1007800074643E4E616D653A3C2F74643E3C746403
:100790003E3C696E707574206E616D653D226E61C0
:1007A0006D652220747970653D227465787422200D
:1007B00076616C75653D2200223E3C2F74643E3CA0
:1007C0002F74723E3C74723E3C74643E4D41433A19
:1007D0003C2F74643E3C74643E3C696E70757420BA
:1007E0006E616D653D226D61632220747970653D97
:1007F0002274657874222076616C75653D22002D27
:1008000000223E3C2F74643E3C2F74723E3C747256
:100810003E3C74643E49503A3C2F74643E3C7464E0
:100820003E3C696E707574206E616D653D22697025
:100830002220747970653D22746578742220766177
:100840006C75653D2200223E3C2F74643E3C2F7443
:10085000723E3C74723E3C74643E4D41534B3A3C94
:100860002F74643E3C74643E3C696E707574206EF7
:10087000616D653D226D61736B2220747970653DF9
:100880002274657874222076616C75653D220022A1
:100890003E3C2F74643E3C2F74723E3C74723E3C6E
:1008A00074643E476174657761793A3C2F74643EA5
:1008B0003C74643E3C696E707574206E616D653D7C
:1008C00022676174657761792220747970653D22B1
:1008D00074657874222076616C75653D2200223E35
:1008E0003C2F74643E3C2F74723E3C74723E3C74E8
:1008F000643E50617373776F72643A3C2F74643E48
:100900003C74643E3C696E707574206E616D653D2B
:10091000227077642220747970653D227061737350
:10092000776F7264222076616C75653D2200223EED
:100930003C2F74643E3C2F74723E3C74723E3C7497
:10094000643E266E6273703B3C2F74643E3C74645C
:100950003E3C696E70757420747970653D227375C4
:10096000626D6974222076616C75653D22536176F3
:1009700065223E3C2F74643E3C2F74723E3C2F74C3
:1009800061626C653E3C2F666F726D3E003C683262
:100990003E5469746C65733C2F68323E3C736372DD
:1009A0006970743E00666F7228693D303B693C3166
:1009B000303B692B2B29646F63756D656E742E77E0
:1009C00072697465286C6F616448544D4C28272EF9
:1009D0002F3F70673D3333266E3D272B6929293B16
:1009E0003C2F7363726970743E003C666F726D20B9
:1009F0006D6574686F643D22474554223E003A207D
:100A00003C696E707574206E616D653D2270672261
:100A100020747970653D2268696464656E22207671
:100A2000616C75653D2233223E3C696E70757420A1
:100A30006E616D653D22612220747970653D22688A
:100A4000696464656E222076616C75653D22612261
:100A50003E3C696E707574206E616D653D226E223C
:100A600020747970653D2268696464656E22207621
:100A7000616C75653D2200223E3C696E7075742084
:100A80006E616D653D2274222076616C75653D2234
:100A900000223E203C696E70757420747970653D4B
:100AA0007375626D69742076616C75653D22536162
:100AB0007665223E3C2F666F726D3E003C68323E8A
:100AC0004C6F672D5365727665723C2F68323E3CE1
:100AD000666F726D206D6574686F643D2247455482
:100AE000223E3C696E707574206E616D653D2270AA
:100AF000672220747970653D2268696464656E229E
:100B00002076616C75653D2234223E3C696E7075BD
:100B100074206E616D653D22612220747970653D9F
:100B20002268696464656E222076616C75653D2279
:100B300061223E3C7461626C6520626F7264657212
:100B40003D2230223E3C74723E3C74643E49503A31
:100B50003C2F74643E3C74643E3C696E7075742036
:100B60006E616D653D2269702220747970653D2249
:100B700074657874222076616C75653D2200223E92
:100B80003C2F74643E3C2F74723E3C74723E3C7445
:100B9000643E504F52543A3C2F74643E3C74643E61
:100BA0003C696E707574206E616D653D22706F7268
:100BB000742220747970653D2274657874222076E1
:100BC000616C75653D2200223E3C2F74643E3C2FD3
:100BD00074723E3C74723E3C74643E496E7465723D
:100BE00076616C2C207365633A3C2F74643E3C74D0
:100BF000643E3C696E707574206E616D653D227354
:100C00002220747970653D227465787422207661A3
:100C10006C75653D2200223E3C2F74643E3C2F746F
:100C2000723E3C74723E3C74643E456E61626C651B
:100C30003C2F74643E3C74643E3C696E7075742055
:100C40006E616D653D226B2220747970653D226373
:100C50006865636B626F78222076616C75653D22F2
:100C600031220020636865636B6564003E3C2F742D
:100C7000643E3C2F74723E3C74723E3C74643E266B
:100C80006E6273703B3C2F74643E3C74643E3C69FE
:100C90006E70757420747970653D227375626D692C
:100CA00074222076616C75653D2253617665223E23
:100CB0003C2F74643E3C2F74723E3C2F7461626C16
:100CC000653E3C2F666F726D3E003C68323E416C63
:100CD00061726D204C6973743C2F68323E3C7363C3
:100CE000726970743E00666F7228693D303B693CE2
:100CF00031303B692B2B29646F63756D656E742EE3
:100D00007772697465286C6F616448544D4C28276C
:100D10002E2F3F70673D3535266E3D272B692929DB
:100D20003B3C2F7363726970743E003C666F726D5A
:100D3000206D6574686F643D22474554223E3C69CE
:100D40006E707574206E616D653D2270672220742F
:100D50007970653D2268696464656E222076616CF5
:100D600075653D2235223E3C696E707574206E615A
:100D70006D653D22612220747970653D2268696449
:100D800064656E222076616C75653D2261223E3C71
:100D9000696E707574206E616D653D226E222074DF
:100DA0007970653D2268696464656E222076616CA5
:100DB00075653D2200223E00203C696E70757420EE
:100DC0006E616D653D22697022207469746C653DA9
:100DD00022495020616472657373222076616C75BC
:100DE000653D2200223E3C696E707574206E616D17
:100DF000653D22706F727422207469746C653D22A7
:100E000055445020706F7274222076616C75653D78
:100E10002200223E3C696E707574206E616D653DE6
:100E2000226D736722207469746C653D225365637B
:100E300072657420737472696E67222076616C75B6
:100E4000653D2200223E3C696E707574206E616DB6
:100E5000653D226B22207469746C653D22456E618C
:100E6000626C652F44697361626C652220747970CD
:100E7000653D22636865636B626F78222076616CE2
:100E800075653D2231220020636865636B656400EF
:100E90003E3C696E70757420747970653D2273757F
:100EA000626D6974222076616C75653D22536176AE
:100EB00065223E3C2F666F726D3E003C68323E45B7
:100EC00076656E74733C2F68323E3C736372697052
:100ED000743E00666F7228693D303B693C31303B9F
:100EE000692B2B29646F63756D656E742E7772693B
:100EF0007465286C6F616448544D4C28272E2F3F31
:100F000070673D3636266E3D272B6929293B3C2FDD
:100F10007363726970743E003C7363726970743EEF
:100F2000003C2F7363726970743E3C666F726D2073
:100F30006D6574686F643D22474554223E3C696E7E
:100F4000707574206E616D653D2270672220747922
:100F500070653D2268696464656E222076616C75F7
:100F6000653D2236223E3C696E707574206E616D5F
:100F7000653D22612220747970653D226869646450
:100F8000656E222076616C75653D2261223E3C696A
:100F90006E707574206E616D653D226E22207479CD
:100FA00070653D2268696464656E222076616C75A7
:100FB000653D2200223E00203C73656C6563742011
:100FC00073697A653D223122206E616D653D227024
:100FD00022207469746C653D22496E707574206FAF
:100FE00072204F7574707574223E3C736372697021
:100FF000743E646F63756D656E742E777269746587
:10100000286C6F616448544D4C28272E2F3F706721
:101010003D3637266D3D002729293B3C2F736372EF
:101020006970743E3C2F73656C6563743E3C7365F8
:101030006C6563742073697A653D2231222074697E
:10104000746C653D22436F6D7061726522206E6124
:101050006D653D2263223E3C7363726970743E6429
:101060006F63756D656E742E7772697465286C6F29
:10107000616448544D4C28272E2F3F70673D363809
:10108000266D3D002729293B3C2F736372697074DC
:101090003E3C2F73656C6563743E3C696E7075747D
:1010A000206E616D653D227622207469746C653D09
:1010B0002256616C7565222076616C75653D220053
:1010C000223E3C73656C6563742073697A653D22CA
:1010D0003122206E616D653D227422207469746C2A
:1010E000653D225768617420746F20646F223E3C16
:1010F0007363726970743E646F63756D656E742E90
:101100007772697465286C6F616448544D4C282768
:101110002E2F3F70673D3639266D3D002729293B2C
:101120003C2F7363726970743E3C2F73656C65630A
:10113000743E3C696E707574206E616D653D22640D
:1011400022207469746C653D2244656C6179207459
:10115000696D652C2073222076616C75653D2200D7
:10116000223E3C696E707574206E616D653D226B28
:101170002220747970653D22636865636B626F78C5
:1011800022207469746C653D22456E61626C652F26
:1011900044697361626C65222076616C75653D22DD
:1011A00031220020636865636B6564003E3C696EB4
:1011B00070757420747970653D227375626D697401
:1011C000222076616C75653D2253617665223E3C36
:1011D0002F666F726D3E003C6F7074696F6E207683
:1011E000616C75653D22323535223E203C2F6F7093
:1011F00074696F6E3E003C6F7074696F6E2076612B
:101200006C75653D220022002073656C6563746512
:1012100064003E003C2F6F7074696F6E3E003C6F3F
:101220007074696F6E2076616C75653D223235355C
:10123000223E3C2F6F7074696F6E3E003C6F70747D
:10124000696F6E2076616C75653D22002200207307
:10125000656C6563746564003E003C2F6F70746953
:101260006F6E3E003C6F7074696F6E2076616C75B6
:10127000653D22323535223E3C2F6F7074696F6EAA
:101280003E003C6F7074696F6E2076616C75653DD1
:10129000220022002073656C6563746564003E0063
:1012A0003C2F6F7074696F6E3E004D41433A0049A8
:1012B000503A0050415353574F52443A000D0A0DD3
:1012C0000A005345544D41432038382D3235352DD1
:1012D0003131342D31372D35302D313137005345F3
:1012E000544950203139322E3136382E302E3100CB
:1012F000434F4E464947090909095072696E7420E7
:10130000636F6E6669670D0A005345544D41432073
:101310005B642D642D642D642D642D645D09095377
:101320006574206D61630D0A005345544950205B7C
:10133000642E642E642E645D090909536574204986
:10134000500D0A00534554505744205B6E6577207A
:1013500070617373776F72645D0909536574206EF1
:1013600065772070617373776F72640D0A003C6853
:10137000313E323030204F4B3C2F68313E003C68CC
:10138000746D6C3E3C686561643E3C7469746C6568
:101390003E4E4554416C61726D20003C2F7469745F
:1013A0006C653E3C2F686561643E3C626F64793ECB
:1013B0003C68313E3C666F6E7420636F6C6F723DAB
:1013C00022636F6C6F723D22233030383038302208
:1013D000223E4E4554416C61726D20003C2F666F79
:1013E0006E743E3C2F68313E3C666F726D206D65B9
:1013F00074686F643D2267657422206F6E73756236
:101400006D69743D22646F63756D656E742E6C6FCB
:10141000636174696F6E2E687265663D7077642EC5
:1014200076616C75653B72657475726E2066616C71
:1014300073653B223E50617373776F72643A203C50
:10144000696E707574206E616D653D2270776422DF
:1014500020747970653D2270617373776F726422B6
:101460002076616C75653D22223E203C696E707568
:101470007420747970653D22627574746F6E2220D9
:1014800076616C75653D224C6F6720496E22206F36
:101490006E636C69636B3D22646F63756D656E741A
:1014A0002E6C6F636174696F6E2E687265663D7035
:1014B00077642E76616C75653B223E3C2F666F72B9
:1014C0006D3E3C6120687265663D222F73746174C5
:1014D000223E537461743C2F613E203C612068724F
:1014E00065663D222F737461747573223E53746177
:1014F0007475733C2F613E203C6120687265663DC7
:10150000222F786D6C223E584D4C3C2F613E3C7032
:1015100020616C69676E3D2263656E746572223E60
:1015200026636F70793B20323031302D32303131CB
:10153000204B6F72796167696E20416E64726579C4
:101540002E20416C6C207269676874732072657319
:1015500065727665642E3C2F703E3C2F626F647915
:101560003E3C2F68746D6C3E0A00485454502F3135
:101570002E302034303120556E617574686F726979
:101580007A65640D0A436F6E74656E742D547970BC
:10159000653A20746578742F68746D6C0D0A0D0AB5
:1015A0003C68313E34303120556E617574686F721D
:1015B000697A65643C2F68313E00E30004FA00015B
:1015C00000000001450000820000400020000108EA
:1015D00000060400010011241FBECFE5D8E0DEBFE5
:1015E000CDBF11E0A0E6B0E0E4E7F4E502C005906D
:1015F0000D92AC34B107D9F717E0ACE4B1E001C00B
:101600001D92A434B107E1F70C94D41B0C94000094
:10161000DC01FA01222371F08081882359F0A60FA2
:10162000B71F81918D936F5F7F4F215019F080819B
:101630008823B9F7CB010895CF93DF93CDB7DEB7F9
:1016400029970FB6F894DEBF0FBECDBF1092C80623
:101650008FEF8987BE016F5F7F4FCE0109960E9491
:101660006F2729852F3FE9F02E3FD9F03091C8062A
:10167000E32FFF2783E0EE0FFF1F8A95E1F7EF5D71
:10168000F84FDE01119697E08D918193915097FF6D
:10169000FBCF832F8F5F8093C806222311F0833006
:1016A000C8F28091C806992729960FB6F894DEBF34
:1016B0000FBECDBFDF91CF91089587E886B9089519
:1016C0008F71806487B93498369A3699FECF84B189
:1016D00095B1089599278930910519F00A9719F065
:1016E0000895D69A0895D79A089599278630910536
:1016F00079F0873091051CF4059739F0089587300B
:10170000910549F0089751F00895D298DA9A089512
:10171000D398DB9A0895D498DC9A0895D598DD9AE9
:1017200008950895282F3327F901E05AFF4F80814B
:10173000833051F42930310521F02A30310519F078
:101740000895DE9A0895DF9A0895282F3327F90126
:10175000E05AFF4F8081833051F42930310521F068
:101760002A30310519F00895DE980895DF9808951C
:10177000282F3327F901E05AFF4F8081823069F426
:101780002330310521F02430310519F006C080E006
:1017900001C081E00E94600B089580E090E0089510
:1017A000A82FBB27FD01E05AFF4FE081E43039F458
:1017B000AA0FBB1FA251B94F8D919C910895E230A1
:1017C00049F4A330B10519F0A430B10519F40E9411
:1017D000B80B0895FD01E05AFF4F8081813091F5EB
:1017E000A630B105A9F0A730B10524F4A530B105A4
:1017F00041F028C0A730B105A9F0A830B105D1F05B
:1018000021C089B39927969587959695879507C0A6
:1018100089B3992753E0969587955A95E1F781709A
:101820009070089589B3992744E0969587954A95D5
:10183000E1F7F5CF89B3992735E0969587953A95E5
:10184000E1F7EDCFFD01E05AFF4F80818330A9F42D
:10185000A930B10519F01A9749F00FC08BB3992739
:1018600026E0969587952A95E1F7D9CF80E090E01C
:10187000DF9B05C081E090E008958FEF9FEF089512
:10188000EF92FF920F931F93CF93C0E000E610E01A
:101890007CE4E72E71E0F72EF8018081833069F453
:1018A0008C2F0E946A0B8C2F0E94A50BF701808160
:1018B000813019F48C2F0E94920BF80180818130C5
:1018C00019F48C2F0E94750BCF5F0894E11CF11C5A
:1018D0000F5F1F4FCB3000F3CF911F910F91FF90FF
:1018E000EF9008951092200780E0E5EFF6E0119266
:1018F0008F5F8332E0F31092200708956F927F92FA
:101900008F929F92AF92BF92CF92DF92EF92FF920F
:101910000F931F93CF93DF938C01EB01942E40E044
:10192000742E842E491508F05BC0BDE26B2EE92CA5
:10193000FF245C01CE01D7FF04C0882799278C1BA8
:101940009D0BC817D90741F0D7FF03C0D095C195AB
:10195000DF4FD5016C9237C0E1E0F0E021E0EE15F9
:10196000FF0584F4CF01A3E0880F991FAA95E1F742
:101970008E0F9F1FE80FF91F2F5F822F99278E155B
:101980009F0584F36801C40ED11CCE01BF010E94E3
:10199000272ACB01D6016C93562F262F33272E9F53
:1019A000B0012F9F700D3E9F700D1124C61BD70BE9
:1019B000882319F0E1E07E2E03C071E0771621F450
:1019C000505DD6015C934F5F83940894A11CB11CB9
:1019D0000894E108F108891408F4ACCF442339F4E1
:1019E000F8018081882319F480E3808341E0040FAB
:1019F000111DD8011C92DF91CF911F910F91FF9083
:101A0000EF90DF90CF90BF90AF909F908F907F909E
:101A10006F900895282F882329F461E070E080E01A
:101A200090E008956AE070E0215059F0CB0133E076
:101A3000880F991F3A95E1F7860F971F680F791F56
:101A4000F3CF8827992708958F929F92AF92BF92E4
:101A5000DF92EF92FF920F931F93CF93DF93EC01EE
:101A600088249924DD248881882331F0D394FE01D1
:101A7000ED0DF11D8081F8CFAA24BB24DA94FE017C
:101A8000ED0DF11D808180538A30D0F4808199273B
:101A9000C0977C010027F7FC0095102F8A2D0E942B
:101AA0000A0D9B01AC01C801B7010E94F429DC01B9
:101AB000CB01880E991EDA940894A11CB11CDFCFCB
:101AC000CD0DD11D88818D3221F49094819491089F
:101AD0009394C401DF91CF911F910F91FF90EF90EC
:101AE000DF90BF90AF909F908F9008959F92AF929C
:101AF000BF92CF92DF92EF92FF920F931F93CF93FB
:101B0000DF935C016B01F42E922EEE245E2D82E2B7
:101B1000841790F1E501CF0DD11D4881242F332783
:101B2000892D992787FD90952817390711F04423AF
:101B3000A1F4E52FFF27E159F94F108286010E0D20
:101B4000111D8FE696E00E94240DF8018083E39436
:101B500050E08881882339F40FC0E52FFF27E15931
:101B6000F94F40835F5FF394F2E2FF1528F05530A0
:101B700018F487E08E1570F68E2D9927DF91CF919E
:101B80001F910F91FF90EF90DF90CF90BF90AF909B
:101B90009F9008950F931F93CF93DF938C01EB01D8
:101BA0002EE283E695E00E94760D843059F4D80148
:101BB000FE0193E081918D93915097FFFBCF81E0DF
:101BC00090E002C080E090E0DF91CF911F910F91F3
:101BD0000895FF920F931F93CF93DF93EB01FF24A0
:101BE0008C01F80181918F01992743E0BC018FE6B8
:101BF00096E00E947E0C4FE656E0BE0182E691E040
:101C00000E94C321EC01F2E0FF1540F041E053E0F7
:101C1000BC0182E691E00E949E21EC01F39483E0F6
:101C20008F15F8F6CE01DF91CF911F910F91FF90A4
:101C30000895A6EBB6E0FD0101900020E9F7319789
:101C4000EA1BFB0BAF01BC01CD010E945729892B78
:101C500019F481E090E0089580E090E0089543E079
:101C600053E060E070E082E691E00E949E210895DA
:101C700049E453E060E070E082E691E00E949E213A
:101C800008951F93CF93DF93EC01162F4EE853E096
:101C900060E070E00E949E21BC01113091F449EB9C
:101CA00053E0CE010E949E21BC0146EB56E0CE01DE
:101CB0000E94C321BC014BEB53E0CE010E949E2148
:101CC000BC014DEB53E0CE010E949E21BC014DEDC5
:101CD00053E0CE010E949E21DF91CF911F91089584
:101CE000E9EDF6E095E1899FD0011124A75CBF4F93
:101CF000192E0E94D6298091D906882311F08F3F92
:101D000011F41092D90608950F931F93CF93DF9388
:101D1000CDB7DEB72B970FB6F894DEBF0FBECDBFA1
:101D2000BE016F5F7F4F93E026EA30E0DB01F901EF
:101D300001900D929A95E1F72091A9003091AA00A7
:101D40003D832C832091AB003091AC004091AD00DD
:101D50005091AE002E833F83488759872091AF0072
:101D60003091B0003B872A87082F1127F801E05AED
:101D7000FF4F808199278230910561F08330910572
:101D80001CF4019791F015C08330910539F0049748
:101D900049F00FC0BE016C5F7F4F07C0BE016A5F94
:101DA0007F4F03C0BE01665F7F4F89ED96E00E94C2
:101DB000402942E0B8018FE696E00E947E0C42E0A6
:101DC00050E06FE676E089ED96E00E9447292B9679
:101DD0000FB6F894DEBF0FBECDBFDF91CF911F913C
:101DE0000F91089520E0EFE8F6E0A0E0B0E080E396
:101DF000182E0E94D629EFEBF6E0A0E3B0E089E0D0
:101E0000182E0E94D62980918F068F3F11F42093BF
:101E10008F06E4EAF6E095E081918F3F09F42F5FA9
:101E2000915097FFF9CF263089F484E58093A4067A
:101E300085E58093A50688E58093A60680E18093DA
:101E4000A7061092A80680E38093A90620E0EAEA9C
:101E5000F6E093E081918F3F09F42F5F915097FF57
:101E6000F9CF243061F480EC8093AA0688EA80934D
:101E7000AB0682E78093AC0685E18093AD0620E057
:101E8000EEEAF6E093E081918F3F09F42F5F9150E5
:101E900097FFF9CF243049F48FEF8093AE068093FB
:101EA000AF068093B0061092B10620E0E2EBF6E0B8
:101EB00093E081918F3F09F42F5F915097FFF9CF05
:101EC000243061F480EC8093B20688EA8093B306F4
:101ED00082E78093B40681E08093B5068091BA06CC
:101EE0008F3F51F4E3E9F6E0B39689E0A1EBB0E06F
:101EF0000D9001928A95E1F720E0EFEBF6E093E098
:101F000081918F3F09F42F5F915097FFF9CF2430D3
:101F100041F41092BF061092C0061092C1061092B2
:101F2000C2068091C3069091C4068F5F9F4F31F423
:101F300082E092E09093C4068093C3068091C50628
:101F40009091C6068F5F9F4F31F488E592E09093A1
:101F5000C6068093C5060895AF92BF92CF92DF92D6
:101F6000FF920F931F93CF93DF938C01F62E21E600
:101F7000621721F40E94380EEC0121C10E942F0E3D
:101F8000EC01FF20E1F44DEF53E0BC01C8010E94D9
:101F90009E214FE856E0BC01C8010E94C3214AE1DE
:101FA00054E0BC01C8010E949E214FE856E0BC01EC
:101FB000C8010E94C321EC014BE554E0D0C381E08D
:101FC000F81609F098C049E156E0BE01C8010E9428
:101FD0009E21EC01FF24E0E6CE2EE0E0DE2EAA24D6
:101FE000BB244EE156E0BE01C8010E949E21EC01D7
:101FF0008F2D0E94840E49ED56E0BE01C8010E945B
:10200000C32143E256E0BC01C8010E949E21EC01BD
:102010008F2D0E94700E49ED56E0BE01C8010E944E
:10202000C32145E256E0BC01C8010E949E21EC019B
:10203000F6018081833079F547E256E0BE01C801A0
:102040000E949E21EC0142E0B5018FE696E00E94DD
:102050007E0C4FE656E0BE01C8010E94C3214BE34F
:1020600056E0BC01C8010E949E21EC018F2D0E9408
:10207000D00B892B19F440E456E002C042E456E04C
:10208000BE01C8010E949E2144E456E0BC01C80183
:102090000E949E21EC018F2D0E94D00B45E0BC01D7
:1020A0008FE696E00E947E0C4FE656E0BE01C80126
:1020B0000E94C321EC01F6018081833039F447E4AA
:1020C00056E0BE01C8010E949E21EC014CE456E09E
:1020D000BE01C8010E949E21EC01F3940894A11C4A
:1020E000B11C0894C11CD11CFAE0FF1508F079CF8F
:1020F00042E556E034C323E6F216E1F5FF248F2DC6
:102100000E94840E49ED56E0BE01C8010E94C32121
:1021100048E556E0BC01C8010E949E21EC018F2DCC
:102120000E94700E49ED56E0BE01C8010E94C32115
:102130004AE556E0BC01C8010E949E21EC018F2DAA
:102140000E94D00B45E0BC018FE696E00E947E0C19
:102150004FE656E0BE01C8010E94C3214CE556E09F
:10216000BC01C8010E949E21EC01F3948AE08F1506
:1021700030F6F7C3E2E6FE16F1F4FF248F2D0E943D
:10218000D00B45E0BC018FE696E00E947E0C4FE646
:1021900056E0BE01C8010E94C3214EE556E0BC01D5
:1021A000C8010E949E21EC01F394FAE0FF1530F77C
:1021B00040E656E0D4C221E6F21609F04CC042E6F1
:1021C00056E0BE01C8010E949E21EC01FF248F2D24
:1021D0000E94840E4DE856E0BE01C8010E949E2177
:1021E00049ED56E0BC01C8010E94C3214FE956E009
:1021F000BC01C8010E949E21EC018F2D0E94700E2F
:1022000049ED56E0BE01C8010E94C32144EB56E0EF
:10221000BC01C8010E949E21EC018F2D0E94D00BB1
:1022200045E0BC018FE696E00E947E0C4FE656E04A
:10223000BE01C8010E94C32149EC56E0BC01C8019F
:102240000E949E21EC01F3948AE08F1508F0BFCF25
:102250004FED56E084C2E2E0FE1609F068C044EF9C
:1022600056E0BE01C8010E949E214FE856E0BC0125
:10227000C8010E94C32148EB57E0BC01C8010E947D
:102280009E21EC01FF2474EAC72E76E0D72EF601DA
:1022900081916F01992743E0BC018FE696E00E948F
:1022A0007E0C4FE656E0BE01C8010E94C321EC013E
:1022B000F4E0FF1538F04FEF57E0BC01C8010E9471
:1022C0009E21EC01F39425E02F1508F741E058E03A
:1022D000BE01C8010E949E21BC018AEA96E00E94CC
:1022E000E90D46E458E0BC01C8010E949E21BC01F2
:1022F0008EEA96E00E94E90D4FE858E0BC01C80163
:102300000E949E21BC0182EB96E00E94E90D4EEDF9
:1023100058E0BC01C8010E949E2146EB56E0BC017A
:10232000C8010E94C321EC014EE259E018C283E0CB
:10233000F81681F44DE859E0BE01C8010E949E21C3
:1023400044E550E0BC01C8010E949E21EC0145EA31
:1023500059E005C2E1E2FE1691F54AEE59E0BE01F0
:10236000C8010E949E21EC01809139070E94840ED1
:1023700049ED56E0BE01C8010E94C3214EEF59E06D
:10238000BC01C8010E949E214FE656E0BC01C80175
:102390000E94C32147E75AE0BC01C8010E949E2168
:1023A000EC01809139070E94700E49ED56E0BE01A4
:1023B000C8010E94C321EC0141E95AE0D0C1F4E018
:1023C000FF1609F04CC04CEB5AE0BE01C8010E9458
:1023D0009E21BC018FEB96E00E94E90D4EE75BE089
:1023E000BC01C8010E949E21EC0145E06091C3063A
:1023F0007091C4068FE696E00E947E0C4FE656E090
:10240000BE01C8010E94C32147EC5BE0BC01C801CA
:102410000E949E21EC0145E06091C5067091C606C0
:102420008FE696E00E947E0C4FE656E0BE01C801A2
:102430000E94C32146E15CE0BC01C8010E949E21CC
:10244000EC018091C706813039F443E65CE0BE01BF
:10245000C8010E949E21EC014CE65CE080C125E0B1
:10246000F21681F44AEC5CE0BE01C8010E949E2194
:1024700044E550E0BC01C8010E949E21EC0146EEFB
:102480005CE06DC187E3F81609F090C0E9ECF6E076
:10249000909139078FE0989FD0011124AC5DBE4F19
:1024A000182E0E94D629FF249F2DE9ECF6E0819199
:1024B0008F3F09F49F5FF39423E02F15C0F794300A
:1024C00041F41092C9061092CA061092CB061092DF
:1024D000CC068091CD069091CE068F5F9F4F31F450
:1024E00080E094E09093CE068093CD068091CF0655
:1024F0008F3F11F41092CF064BE25DE0BE01C801A0
:102500000E949E214FE656E0BC01C8010E94C321F3
:1025100045EB5DE0BC01C8010E949E214FE656E0FC
:10252000BC01C8010E94C32148EB5DE0BC01C801A9
:102530000E949E21BC0189EC96E00E94E90D44EEC8
:102540005DE0BC01C8010E949E21EC0145E0609164
:10255000CD067091CE068FE696E00E947E0C4FE687
:1025600056E0BE01C8010E94C32142E15EE0BC0109
:10257000C8010E949E214FEC56E0BC01C8010E9498
:10258000C32144E45EE0BC01C8010E949E21EC012D
:102590008091D706813039F447E85EE0BE01C8017A
:1025A0000E949E21EC0140E95EE0D9C0F6E0FF16F2
:1025B00081F44BEB5EE0BE01C8010E949E2144E520
:1025C00050E0BC01C8010E949E21EC0143ED5EE099
:1025D000C6C022E4F21609F0C8C0E8E1F7E0809135
:1025E0003907A82FBB2763E0AA0FBB1F6A95E1F745
:1025F000A654BE4F88E0182E0E94D62980911D0750
:1026000090911E078F5F9F4F21F410921E0710922A
:102610001D0748E15FE0BE01C8010E949E2144E51C
:1026200050E0BC01C8010E949E2141E25FE0BC0174
:10263000C8010E949E214FE656E0BC01C8010E94DD
:10264000C32144EB5FE0BC01C8010E949E214FE61C
:1026500056E0BC01C8010E94C32147EB5FE0BC010A
:10266000C8010E949E21EC0180911807992743E040
:10267000BC018FE696E00E947E0C4FE656E0BE015C
:10268000C8010E94C32147E150E1BC01C8010E947A
:102690009E21EC0180911907992743E0BC018FE648
:1026A00096E00E947E0C4FE656E0BE01C8010E94F3
:1026B000C32144E850E1BC01C8010E949E21EC0105
:1026C00045E060911A0770911B078FE696E00E9423
:1026D0007E0C4FE656E0BE01C8010E94C32140ECCB
:1026E00050E1BC01C8010E949E21EC0180911C07B1
:1026F000992743E0BC018FE696E00E947E0C4FE6EE
:1027000056E0BE01C8010E94C3214CE151E1BC0169
:10271000C8010E949E21EC0145E060911D07709167
:102720001E078FE696E00E947E0C4FE656E0BE0143
:10273000C8010E94C32140E651E1BC01C8010E94CA
:102740009E21EC0180911F07813039F443EA51E169
:10275000BE01C8010E949E21EC014CEA51E1BE017C
:10276000C8010E949E21EC01FCC0F3E4FF1609F0B1
:102770004FC047ED51E1BE01C8010E949E21EC010E
:10278000FF24CC24DD2446EF51E1BE01C8010E94A4
:102790009E21EC0143E0B6018FE696E00E947E0C9C
:1027A0004FE656E0BE01C8010E94C32146E052E157
:1027B000BC01C8010E949E21EC018091D806F81648
:1027C00039F448E052E1BE01C8010E949E21EC01AB
:1027D00042E152E1BE01C8010E949E21EC018F2D11
:1027E0000E94840E49ED56E0BE01C8010E94C3213B
:1027F00044E152E1BC01C8010E949E21EC01F39426
:102800000894C11CD11C2AE02F1508F0BCCFA9C028
:1028100084E4F81609F051C04EE152E1BE01C8014E
:102820000E949E21EC01FF24CC24DD245BE6A52E32
:1028300050E0B52E4CE352E1BE01C8010E949E213A
:10284000EC0143E0B6018FE696E00E947E0C4FE675
:1028500056E0BE01C8010E94C3214CE452E1BC0114
:10286000C8010E949E21EC018091D806F81639F427
:102870004EE452E1BE01C8010E949E21EC0148E5F0
:1028800052E1BE01C8010E949E21F5014191519182
:102890005F01BC01C8010E949E214AE552E1BC01D2
:1028A000C8010E949E21EC01F3940894C11CD11C24
:1028B000F2E0FF1508F0BECF54C025E4F21609F08F
:1028C00050C044E652E1BE01C8010E949E21EC01C5
:1028D000FF24CC24DD2441E7A42E40E0B42E42E8BE
:1028E00052E1BE01C8010E949E21EC0143E0B60105
:1028F0008FE696E00E947E0C4FE656E0BE01C801CE
:102900000E94C32142E952E1BC01C8010E949E21FC
:10291000EC018091D806F81639F444E952E1BE0181
:10292000C8010E949E21EC014EE952E1BE01C8019E
:102930000E949E21F501419151915F01BC01C801A6
:102940000E949E2140EA52E1BC01C8010E949E21E2
:10295000EC01F3940894C11CD11CF9E1FF1508F0B7
:10296000BECFCE01DF91CF911F910F91FF90DF90ED
:10297000CF90BF90AF900895EF92FF920F931F9367
:10298000CF93DF937C01062F1127A80165EF76E036
:1029900083E695E00E9465290D591A4FF8011082CF
:1029A00083E695E00E947429C0E0D0E0B70183E699
:1029B00095E00E943629892B11F4C1E0D0E0CE01C8
:1029C000DF91CF911F910F91FF90EF90089584EACE
:1029D00096E00E94C01D82E00E94BA1D80E08A95A8
:1029E000F1F766E774E084E10E949D1D40E550E048
:1029F0006AEA76E084EA96E00E94E21F82EB96E0C3
:102A00000E9436240895EF92FF921F93CF93DF9395
:102A1000CDB7DEB726970FB6F894DEBF0FBECDBF99
:102A20008EEC92E00E94112762E08BEB90E00E9416
:102A3000BC14882321F08EEF92E00E94112766E0FB
:102A40008EEB90E00E94BC14882309F452C08AEAFD
:102A500092E10E94112710E0A4EAEA2EA6E0FA2EE5
:102A6000D7018D917D01992743E0BC0183E695E074
:102A70000E947E0C83E695E00E940227153018F430
:102A80008DE20E94F0261F5F163050F38EEC92E02C
:102A90000E9411278FEA92E10E94112710E0FAEAC2
:102AA000EF2EF6E0FF2EF70181917F01992743E099
:102AB000BC0183E695E00E947E0C83E695E00E94CF
:102AC0000227133018F48EE20E94F0261F5F1430A4
:102AD00050F38EEC92E00E94112783EB92E10E946A
:102AE000112786EB96E00E9402278DEB92E10E946F
:102AF000112767E085EC90E00E94BC14882381F1E7
:102B00002DE247E0BE016F5F7F4F85EF96E00E94A8
:102B1000760D8630E9F4EFE8F6E09F012B5E3F4F3B
:102B2000AE014F5F5F4F15E0DA018D91AD01D90124
:102B30008D939D01115017FFF7CFA0E0B0E080E327
:102B4000182E0E94DB290E94E7148EEF92E006C047
:102B50008DED92E00E94112782EC92E10E941127F4
:102B600066E08DEC90E00E94BC14882381F12EE297
:102B700046E0BE016F5F7F4F85EF96E00E94760DC5
:102B80008430E9F4EFE8F6E09F01255E3F4FAE01A7
:102B90004F5F5F4F13E0DA018D91AD01D9018D9345
:102BA0009D01115017FFF7CFA0E0B0E080E3182E91
:102BB0000E94DB290E94E7148EEF92E006C08DEDA3
:102BC00092E00E9411278EED92E10E94112767E0AA
:102BD00084ED90E00E94BC14882399F117E090E006
:102BE0008091FC068823C9F0E92FFF27E157F94FB0
:102BF000A12FBB27AB50B94F8C9187A39F5F1F5F5D
:102C0000133248F4983038F4E12FFF27EB50F94F96
:102C10008081882349F7983040F4E92FFF27EA5450
:102C2000F94F11929F5F9830E0F3EFE8F6E0A0E0F3
:102C3000B0E080E3182E0E94DB298EEF92E00E9424
:102C4000112764E08CED90E00E94BC14882381F091
:102C500080EF92E10E94112789E093E10E94112701
:102C600089E293E10E94112784E493E10E941127F5
:102C70008EEC92E00E941127109261010E94720C6A
:102C800026960FB6F894DEBF0FBECDBFDF91CF9171
:102C90001F91FF90EF900895DF92EF92FF920F93B4
:102CA0001F93CF93DF93CDB7DEB726970FB6F89477
:102CB000DEBF0FBECDBF8C019FE0F92EF8018081F1
:102CC0008F3259F50F5F1F4F46E050E0B80181EE9B
:102CD00090E00E945729892B19F483E690E08AC27C
:102CE00044E050E0B80188EE90E00E945729892B1B
:102CF00019F482E690E07EC243E050E0B8018DEE28
:102D000090E00E945729892B19F481E690E072C265
:102D1000C8010E94190E882319F48FEF9FEF6AC231
:102D2000F8018081803209F460C28F3221F00F5F98
:102D30001F4FFA94A9F721EF30E045E063E675E014
:102D4000C8010E94FF24882309F452C2D090630571
:102D5000F0EDDF0E2091640512163CF48AE0D89E57
:102D6000C0011124D22ED80EDF0E24EF30E044E053
:102D70006FE676E0C8010E94FF24882321F08FE6E9
:102D800096E00E94240D8093390726EF30E044E05E
:102D900065E776E0C8010E94FF24882321F085E7DB
:102DA00096E00E94240D8093D80628EF30E042E0A0
:102DB00063E675E0C8010E94FF24882309F4F3C18B
:102DC00080916305813609F0EEC182E0D81609F0E2
:102DD000A9C02AEF30E045E16FE876E0C8010E9423
:102DE000FF24882311F480938F0620E2EFE8F6E0B9
:102DF00094E180818B3209F420839150319697FFC2
:102E0000F8CF2FEF30E04EE163E675E0C8010E9495
:102E1000FF248823A9F02DE240E0BE016F5F7F4FC1
:102E200083E695E00E94760D863051F4A4EAB6E080
:102E3000FE01319695E081918D93915097FFFBCFE4
:102E400023E031E04EE163E675E0C8010E94FF2413
:102E5000882341F040E0BE016F5F7F4F8AEA96E031
:102E60000E94CA0D26E031E04EE163E675E0C8013C
:102E70000E94FF24882341F040E0BE016F5F7F4F36
:102E80008EEA96E00E94CA0D2BE031E04EE163E647
:102E900075E0C8010E94FF24882341F040E0BE0194
:102EA0006F5F7F4F82EB96E00E94CA0D23E131E015
:102EB00049E063E675E0C8010E94FF24882339F1E8
:102EC00090E0292F809163058823C9F0E22FFF2726
:102ED000E157F94FA92FBB27AD59BA4F8C9187A362
:102EE0002F5F9F5F933248F4283038F4E92FFF2793
:102EF000ED59FA4F8081882349F7283040F4E22FBA
:102F0000FF27EA54F94F11922F5F2830E0F3EFE8E2
:102F1000F6E0A0E0B0E080E3182E0E94DB290E94DA
:102F2000E7145EC1E3E0DE1631F527E131E045E16B
:102F300069ED76E0C8010E94FF24882311F4809394
:102F4000D90629ED36E040E2F90194E180818B3227
:102F500009F440839150319697FFF8CF95E1809125
:102F60003907899FD0011124A75CBF4FF901192EA1
:102F70000E94DB2935C1F4E0DF1609F04CC023E0E4
:102F800031E04EE163E675E0C8010E94FF2488232A
:102F900041F040E0BE016F5F7F4F8FEB96E00E94F3
:102FA000CA0D29E131E046E063E675E0C8010E9400
:102FB000FF24882341F083E695E00E94240D90933E
:102FC000C4068093C3062EE131E046E063E675E077
:102FD000C8010E94FF24882361F083E695E00E94E7
:102FE000240D9093C6068093C50610925C01109242
:102FF0005B0120E231E04D2D63E675E0C8010E94DF
:10300000FF24811181E08093C706EFEBF6E0A0E397
:10301000B0E089E0C4C085E0D81609F055C023E0CF
:1030200031E04EE163E675E0C8010E94FF24882389
:1030300009F4D6C040E0BE016F5F7F4F89EC96E097
:103040000E94CA0D019709F0CBC029E131E046E0AA
:1030500063E675E0C8010E94FF24882341F083E6FF
:1030600095E00E94240D9093CE068093CD0622E237
:1030700031E047E06FEC76E0C8010E94FF2489EC64
:10308000E82E86E0F82E20E2F7019D2D86818B3216
:1030900009F426839150319697FFF8CF20E231E072
:1030A00044E063E675E0C8010E94FF24811181E0DD
:1030B0008093D706909139078FE0989FD001112413
:1030C000AC5DBE4FF7016BC0F6E0DF1609F06BC0D8
:1030D00026E231E044E063E675E0C8010E94FF2487
:1030E000882309F47DC083E695E00E94240D809337
:1030F000180728E231E044E063E675E0C8010E9469
:10310000FF2483E695E00E94240D809319072AE2AC
:1031100031E045E063E675E0C8010E94FF2483E6E4
:1031200095E00E94240D90931B0780931A0727E1D6
:1031300031E044E063E675E0C8010E94FF2483E6C5
:1031400095E00E94240D80931C072CE231E047E0BB
:1031500063E675E0C8010E94FF2483E695E00E94C3
:10316000240D90931E0780931D0720E231E044E078
:1031700063E675E0C8010E94FF24811181E080931D
:103180001F07E8E1F7E080913907A82FBB2713E07C
:10319000AA0FBB1F1A95E1F7A654BE4F88E0182E60
:1031A0000E94DB291DC081E0D816D1F42EE231E067
:1031B00043E063E675E0C8010E94FF24882381F0A4
:1031C00080916305803321F4809139070E94A50B1B
:1031D00080916305813321F4809139070E94920B1D
:1031E0008D2D992787FD909505C08EEF9FEF02C02A
:1031F00080E090E026960FB6F894DEBF0FBECDBFFC
:10320000DF91CF911F910F91FF90EF90DF90089584
:10321000EF92FF920F931F93CF93DF938091C70696
:103220008130E1F58091BF068823C1F18F3FB1F174
:10323000C0E0D0E02DE041E351E0BE0183E695E03F
:103240000E94080BEC0110E0812F0E94D00B45E09A
:10325000BC018FE696E00E947E0C25E04FE656E02A
:10326000BE0183E695E00E94080BEC01FC01ED59DC
:10327000FA4F8AE3808321961F5F1B3028F3E0908A
:10328000C306F090C4060FEB16E022E032E04C2FAC
:1032900063E675E082E691E00E948F23DF91CF9193
:1032A0001F910F91FF90EF900895EF92FF920F936F
:1032B0001F93E9ECF6E09FE0899FD0011124AC5DFB
:1032C000BE4F192E0E94D6298091D706813061F514
:1032D0008091C906882341F18F3F31F180E0E9EC0C
:1032E000F6E09681992321F48AE08683978304C0CF
:1032F0008F5F31968730A8F360E070E028E04FECF4
:1033000056E083E695E00E94080BE090CD06F09031
:10331000CE0609EC16E028E134E0482F63E675E0BC
:1033200082E691E00E948F231F910F91FF90EF9012
:103330000895CF9380915F01843641F4C0E08C2FD3
:103340000E945519CF5FCA30D0F305C08A508A3029
:1033500010F40E945519CF910895EF92FF920F93A8
:103360001F93CF93DF93CDB7DEB728970FB6F894AE
:10337000DEBF0FBECDBF90915E01993008F0EAC06C
:103380009F5F90935E01FE013196082F1127D801AF
:1033900083E0AA0FBB1F8A95E1F7A654BE4F78E0E1
:1033A000E72EF12C1E2C0E94D6298885861708F45A
:1033B000CCC0F801E00FF11FE558F94F2E813F8195
:1033C000C90153E0880F991F5A95E1F7820F931FA7
:1033D000820F931F208131818217930708F0B5C0B7
:1033E000F801E65CF84F808148238D81803108F038
:1033F00060C0442309F0A9C099278730910509F4DA
:1034000044C088309105ACF48330910591F184304B
:1034100091054CF48130910531F1823091053CF5F4
:10342000892BF9F08DC08530910559F106975CF52F
:1034300024C08B30910589F18C30910534F48930AA
:10344000910539F10A973CF522C08D30910549F17B
:103450008D30910524F18E30910529F10F9729F1D6
:103460006FC089E001C08AE00E94920B69C089E0C8
:1034700001C08AE00E94A50B63C081E080936001D7
:103480005FC084E613C08AE011C08BE00FC08CE0FF
:103490000DC08DE00BC08EE009C08FE007C080E159
:1034A00005C081E103C082E101C083E180935F0137
:1034B00047C099278431910581F1853191057CF4CC
:1034C0008131910509F1823191051CF44097C9F0D1
:1034D00037C082319105D9F04397E1F031C087318F
:1034E000910521F18831910534F485319105C1F0C0
:1034F0004697C9F025C088319105D9F04997E1F088
:103500001FC060E0862F1AC060E081E017C060E055
:1035100082E014C060E083E011C060E084E00EC08F
:1035200060E085E00BC060E086E008C060E087E016
:1035300005C060E08E2D02C060E089E00E94AD19F8
:10354000065C184F81E0F801808380915E01815014
:1035500080935E0128960FB6F894DEBF0FBECDBFF4
:10356000DF91CF911F910F91FF90EF9008958F926F
:103570009F92AF92BF92DF92EF92FF920F931F93B1
:10358000CF93DF93CDB7DEB728970FB6F894DEBFA1
:103590000FBECDBF00E010E03AE3832E37E0932E5C
:1035A000580129E0D22E9BE7E92E96E0F92EFE0184
:1035B0003196D501A654BE4F88E0182E0E94D62918
:1035C00089810E94D00BAC018A81282F33272130BA
:1035D000310591F02230310524F42115310529F00F
:1035E0001EC02230310589F01AC089018B819C816F
:1035F000841795071CF510C000E010E08B819C81BA
:1036000048175907D9F489010DC000E010E08B81FB
:103610009C814817590794F401E010E003C001159C
:10362000110561F0F70180819181FFEF8F3F9F07C6
:1036300051F00196F7019183808305C0F701118352
:103640000083F4011082DA9482E090E0E80EF91E23
:10365000E8E0F0E0AE0EBF1E0894811C911CD7FE7E
:10366000A6CF10925E01DD240AE317E0F801419134
:103670008F0161E08D2D0E94AD19D394F9E0FD1505
:10368000A8F728960FB6F894DEBF0FBECDBFDF9126
:10369000CF911F910F91FF90EF90DF90BF90AF906F
:1036A0009F908F9008951F920F920FB60F92112442
:1036B0002F933F934F935F936F937F938F939F933A
:1036C000AF93BF93EF93FF9386E89FEF9DBD8CBDB3
:1036D000809158018F5F809358018E3038F010929E
:1036E00058018CB59DB501979DBD8CBD80915D0144
:1036F0008F5F80935D018436C8F110925D018091E7
:103700005B0190915C01019690935C0180935B0159
:1037100080915A018F5F80935A01863028F081E0B2
:103720008093A50010925A01809157018F5F80937A
:1037300057018C3320F0109257010E942E242091C3
:10374000C5063091C6062115310581F080915B01D7
:1037500090915C012817390748F481E0809360015B
:1037600081E090E090935C0180935B01809159012E
:103770008F5F809359018B3030F0F8940E94B71A14
:10378000789410925901FF91EF91BF91AF919F9161
:103790008F917F916F915F914F913F912F910F90FA
:1037A0000FBE0F901F901895CCE5D8E0DEBFCDBFBF
:1037B00080E08A83D82E8091C806D81630F4EAE3D8
:1037C000F7E01192D394D816E0F30E94F20E0E9413
:1037D000400CBF9A0E945D0B0E94E7140E94720C7D
:1037E00080E590E00E94BD2684E089BF85E08EBD23
:1037F00086E89FEF9DBD8CBD0E941C0B8093C80680
:10380000789488E190E02EE00FB6F894A89581BDF9
:103810000FBE21BDA8950E94D4269C018093F4067A
:103820008F3FE9F02223D9F08A30C9F080916101FD
:103830008823A9F4822F0E94F0269091F4069D30EF
:1038400059F080912007E82FFF27EB50F94F908324
:103850008F5F8093200703C081E080936101809196
:103860002007833210F00E94720C80916101813038
:1038700011F40E9403158091A500813009F040C029
:10388000DD248091C806D816C8F5ED2CFF248701E9
:1038900043E0000F111F4A95E1F70F5D184FB80183
:1038A00080E00E948C27882339F56AE876ED87E16D
:1038B00090E00E94FC289E012F5F3F4FAE014E5FBB
:1038C0005F4FBE016D5F7F4FC8010E94A82788230C
:1038D00099F4F701EE0DFF1DE251F94F8A81282F6F
:1038E0003327318320838B81813031F488279927D6
:1038F000821B930B91838083D394C3CF1092A50036
:1039000080916001813021F40E94081910926001B9
:1039100080915F01882321F00E94991910925F0124
:1039200062E671E080E094E00E94CF1EBC0110923C
:10393000620582E691E00E9448248C01009709F418
:1039400069CF8E599E4F44E050E0BC018FE391E077
:103950000E9457297C01892B31F00E942F0EBC0157
:103960004EE653E12CC00A591E4F42E050E0B80128
:1039700084E491E00E945729892B31F50E942F0E93
:10398000BC014EE753E182E691E00E949E21BC011A
:103990004FE856E082E691E00E94C321BC014BE96A
:1039A00053E182E691E00E949E21BC014FE856E07F
:1039B00082E691E00E94C321BC014CED53E182E616
:1039C00091E00E949E2116C0C8010E944C16682FEB
:1039D0008F3F21F44AE655E1B701F1CF8E3F31F434
:1039E00061E082E691E00E94410E04C082E691E02F
:1039F0000E94AC0FBC0182E691E00E943B220ACFFC
:103A0000C298962F9F71982B9FB9779BFECF1FB8B6
:103A1000779BFECF67FF03C01FB8779BFECFC29A8C
:103A20008FB199270895962FC2989F71982B9FB9AF
:103A3000779BFECF4FB9779BFECFC29A08959C012A
:103A4000FB01C2988AE38FB9779BFECF2115310520
:103A500041F0215030401FB8779BFECF8FB181934A
:103A6000F5CF1082C29A08959C01FB01C2988AE7A3
:103A70008FB9779BFECF2115310539F021503040A9
:103A800081918FB9779BFECFF6CFC29A08951F938D
:103A9000CF93DF93182FC82FDD27C076D070809189
:103AA0000D069927C817D90791F043E06FE180EA26
:103AB0000E94131D85E0D595C7958A95E1F74C2F97
:103AC0006FE180E80E94131D107610930D06DF91C0
:103AD000CF911F9108951F93182F0E94471D612FAA
:103AE00080E00E94001D99271F9108950F931F9356
:103AF000082F162F0E94471D412F602F80E40E943F
:103B0000131D1F910F910895682F84ED0E94761D5B
:103B100061E082ED0E94761D88E28A95F1F78AEED7
:103B20000E946B1D80FDFBCF60E082ED0E94761D40
:103B300089ED0E946B1D992708950F931F938B01A8
:103B4000682F84ED0E94761D602F86ED0E94761D01
:103B5000812F9927682F87ED0E94761D03C088E288
:103B60008A95F1F78AEE0E946B1D80FDF8CF1F91B8
:103B70000F9108958770682F85E70E94761D08953C
:103B80000F931F938C01BA9AC29A87B3886287BB3E
:103B9000BC9AC39AC59A80E58DB9709A4FEF60E0E0
:103BA000842F0E94131D80E090E00197F1F710929E
:103BB0000F0610920E0660E088E00E94761D60E01D
:103BC00089E00E94761D60E08CE00E94761D60E036
:103BD0008DE00E94761D6FEF8AE00E94761D69E1FC
:103BE0008BE00E94761D60E084E00E94761D6AE111
:103BF00085E00E94761D6FEF86E00E94761D6FE1E2
:103C000087E00E94761D60EB88E30E94761D6FE3DB
:103C100088E20E94761D60E389E20E94761D69EFCA
:103C200080E30E94761D67EF81E30E94761D6DE0C0
:103C300080EC0E94761D60E081EC0E94761D42E3DC
:103C400062EC80E80E94131D62E186EC0E94761D02
:103C50006CE087EC0E94761D62E184EC0E94761D88
:103C60006CED8AEC0E94761D65E08BEC0E94761D5F
:103C7000F801608184EE0E94761DF801618185EE75
:103C80000E94761DF801628182EE0E94761DF80185
:103C9000638183EE0E94761DF801648180EE0E94AC
:103CA000761DF801658181EE0E94761D60E071E06D
:103CB00080E10E949D1D8FE10E94471D40EC6BE159
:103CC00080E80E94131D44E06FE180E80E94131D0C
:103CD0001F910F91089582E70E946B1D9927089507
:103CE000CF93DF93C0E0D0E081E10E94841D892B57
:103CF00011F0C1E0D0E0CE01DF91CF9108950F9394
:103D00001F93CF93DF93EC018B010FC08CE10E94D6
:103D10006B1D81FF0AC040E86FE1842F0E94131DD4
:103D200040E86FE180EA0E94131D6FE180E00E948D
:103D3000001D83FDEBCF60E082E00E94761D6AE10A
:103D400083E00E94761D6C2F86E00E94761DC05095
:103D5000D64E8D2F9927C050DA41682F87E00E94F8
:103D6000761D40E0642F8AE70E94131DB801CE0142
:103D70000E94341D48E06FE180E80E94131DDF912E
:103D8000CF911F910F91089589E30E946B1D8823A5
:103D900019F480E090E0089581E090E00895CF92DA
:103DA000DF92EF92FF920F931F93CF93DF937C01EB
:103DB0006B0189E30E946B1D882319F480E090E079
:103DC00081C080910E06682F80E00E94761D809150
:103DD0000E0690910F06892F990F990B682F81E09D
:103DE0000E94761D60E08AE30E94001D992790934F
:103DF0000F0680930E0660E08AE30E94001D99275B
:103E0000382F222780910E0690910F06822B932B3C
:103E100090930F0680930E0660E08AE30E94001DD7
:103E2000082F112760E08AE30E94001D9927982F30
:103E30008827082B192B0450104060E08AE30E9469
:103E4000001DC82FDD2760E08AE30E94001D99272E
:103E5000982F8827C82BD92BC70101978017910766
:103E600008F48C01C7FD03C000E010E004C0B601F7
:103E7000C8010E941F1D80910E0690910F060197A8
:103E800080509A4134F06FEF8CE00E94761D69E11A
:103E900010C080910E068150682F8CE00E94761D24
:103EA00080910E0690910F060197892F990F990B1B
:103EB000682F8DE00E94761D40E46EE180E80E944C
:103EC000131DC801DF91CF911F910F91FF90EF90CB
:103ED000DF90CF900895CF92DF92EF92FF920F93F1
:103EE0001F93CF93DF938C01CC24DD2476014130E6
:103EF00061F4685070406B01EE24FF24685F7F4FCF
:103F000081E190E0A0E0B0E011C0423099F486E099
:103F100090E0A0E0B0E0C80ED91EEA1EFB1E68507B
:103F20007040CB01AA27BB27685F7F4FC80ED91E00
:103F3000EA1EFB1E62307105D8F0D8018C919927DA
:103F4000AA27BB27BA2FA92F982F8827F8012181EC
:103F5000332744275527822B932BA42BB52BC80E30
:103F6000D91EEA1EFB1E0E5F1F4F62507040E2CF4B
:103F7000672B69F0D8018C919927AA27BB27BA2F04
:103F8000A92F982F8827C80ED91EEA1EFB1EC7012D
:103F9000AA27BB270097A105B10541F0D701C601AB
:103FA000A070B0706701EE24FF24EDCFC6018095AC
:103FB0009095DF91CF911F910F91FF90EF90DF903F
:103FC000CF900895CF93DF93EC01852F99278093AD
:103FD000120640934701A6E2B6E0FB0193E081910F
:103FE0008D93915097FFFBCFA0E2B6E0FE0195E0E4
:103FF00081918D93915097FFFBCFDF91CF910895E1
:1040000040E0DB01FC017A9691918D91981719F0AF
:1040100080E090E008954F5F4430B0F381E090E09D
:104020000895FC0120E06932710530F08485883004
:1040300019F48585863019F080E090E00895A6E2B5
:10404000B6E0B69691918D919817B1F72F5F243015
:10405000C8F381E090E00895FC0120E06A32710528
:1040600048F08485883031F48585882319F4868565
:10407000853419F080E090E00895A6E2B6E07E96DF
:1040800091918D919817B1F72F5F2430C8F381E09B
:1040900090E00895A0E2B6E0FC0195E0868180837F
:1040A0008D9186839150319697FFF8CF08950F93A5
:1040B0001F938C01FC01108E118E80E4848B158A75
:1040C000868B408D64E170E0C8010E960E946B1FE4
:1040D0009C01892F9927F801808F218F1F910F91C3
:1040E00008959C01A6E2B6E0FC0193E0828D868FE4
:1040F0008D91828F9150319697FFF8CFC9010E9420
:104100005720089524E0FC01349685A1680F711DA5
:1041100081A561A7442311F085A301C045A3672FA2
:10412000772721503197222381F708950F931F930A
:104130008C01942FF80144A182A184A342A345A13C
:1041400083A185A343A3492FC8010E948220F801BF
:1041500012AA13AA80E586A71F910F910895CF9305
:10416000DF93EC010E944A201C8A82E08D8BA0E242
:10417000B6E0FE0195E0868980A38D91868B9150F3
:10418000319697FFF8CFA6E2B6E0FE0193E0848D6A
:1041900086A38D91848F9150319697FFF8CFBE0101
:1041A0008AE290E00E947F1EDF91CF9108950F93E5
:1041B0001F93CF93DF93EC018B010E944A20CE0125
:1041C0000E9471201AA29CA1983F18F08DA18F5FC8
:1041D0008DA3985F9CA3BE01C8010E947F1EDF9142
:1041E000CF911F910F910895CF92DF92EF92FF929E
:1041F0000F931F93CF93DF93EC016B01042F790191
:1042000010E00E944A200D3D08F00CED188B045E72
:10421000098BCE010E9471208AA18CA38BA18DA352
:104220008F2D99278AA3EBA21EA304510FA3085038
:1042300018A719A7101740F4DE019A96F60181918C
:104240008D931F5F1017D8F31127005F1F4F41E0B8
:10425000B801CE014A960E946B1F9C01892F9927B5
:1042600088A729A7BE01C8014A960E947F1EDF9138
:10427000CF911F910F91FF90EF90DF90CF90089515
:104280000F931F938C010E944A20F801108A8CE240
:10429000818BC8010E94712082E1F80187A740E06C
:1042A00061E070E0C8010E949620F80116A217A2F2
:1042B00080914A0180A711A680914A018D5F809369
:1042C0004A0122E026AB84E087AB95E090AF11AEC7
:1042D00080E686A790AB88E781AB422F60E270E072
:1042E000C8014A960E946B1F9C01832F9927F801F1
:1042F00082AB23ABB8018AE390E00E947F1E1F913E
:104300000F910895FC0180899927382F22278189F0
:104310009927282B392B2451304086A582958F7000
:104320009927880F991F880F991F281B390B121680
:10433000130614F020E030E0C9010895FA014F5F40
:104340005F4F2491222371F0DB01A80FB91FD6968D
:104350002D936F5F7F4FFA014F5F5F4F8491282F3E
:104360008823B1F7CB010895DA01222351F0FB0134
:10437000E80FF91FF6968D9181936F5F7F4F215063
:10438000D1F7CB010895FA0101900020E9F73197A8
:10439000E41BF50B2E2F0E94B4210895EF92FF929B
:1043A0000F931F93CF93DF93EC017B01142F0E9497
:1043B0004A20812F80618FA7143031F0E114F1047D
:1043C00019F471E0E72EF12C41E0B701CE010E9413
:1043D000962028E230E000E010E0088B298BCE0127
:1043E0000E94712084E088AB09AB42E06CE170E090
:1043F000CE014A960E946B1F9C01892F99278AAB98
:104400002BABBE0186E390E00E947F1EDF91CF912F
:104410001F910F91FF90EF900895EF92FF920F93ED
:104420001F938C017B019B01285D3F4F832F9927B0
:10443000F801808B218BC8010E945720F80112AA35
:1044400013AA8CE190E0E80EF91E42E0B701C80122
:104450004A960E946B1F9C01892F9927F80182AB15
:1044600023ABB801C7014A960E947F1E1F910F918E
:10447000FF90EF900895EF92FF920F931F938C019E
:104480007B0140E060911006709111060E94CE21E0
:1044900089E1F80187A7B701C8010E940D221F9189
:1044A0000F91FF90EF900895DC01FA0161157105FD
:1044B00031F084918D93319661507040F7CF08951B
:1044C000FF920F931F93CF93DF93EC018B01F42E98
:1044D00020E236E04AE156E0FC0195E0DA018D91F8
:1044E000AD018083D9018D919D01868391503196D4
:1044F00097FFF4CF88E08C871D8644EC55E169E096
:1045000070E0CE010E960E9454228CE4898B81E1EA
:104510008F8B26E236E0A801FE0193E0DA018D914F
:10452000AD01868FD9018D919D01828F9150319679
:1045300097FFF4CFCE010E9457201CA28BE78DA3DA
:104540008AE08AA3FBA21EA288E38FA318A619A65D
:10455000FE01BA969FE21192915097FFFCCF4AEB71
:1045600055E16AE070E0CE018A960E94542241E053
:1045700060E470E0CE014A960E946B1F9C01892F77
:10458000992788A729A7BE018AE590E00E947F1E8F
:10459000DF91CF911F910F91FF900895CF93DF93FB
:1045A000FC01EB01442319F085A1841749F486A18D
:1045B000882331F487A1883319F483A18B3719F04C
:1045C00080E090E02FC0EE5AFF4F81919927AA27F3
:1045D000BB27582F44273327222781919927AA27C1
:1045E000BB27DC0199278827282B392B4A2B5B2BEB
:1045F00081919927AA27BB27BA2FA92F982F8827FF
:10460000282B392B4A2B5B2B80819927AA27BB2784
:10461000282B392B4A2B5B2B288339834A835B83D6
:1046200081E090E0DF91CF910895CF92DF92EF92F9
:10463000FF920F931F93CF93DF93EC016B017A01ED
:10464000890120E236E04AE156E0FC0195E0DA011A
:104650008D91AD018083D9018D919D01868391500B
:10466000319697FFF4CF88E08C871D8644EC55E1A6
:1046700069E070E0CE010E960E945422188A81E112
:104680008F8B26E236E0A701FE0193E0DA018D91DF
:10469000AD01868FD9018D919D01828F9150319608
:1046A00097FFF4CF812F99278CA30DA38D2D9927E8
:1046B0008AA3CBA21EA218A619A6DF91CF911F91A3
:1046C0000F91FF90EF90DF90CF900895EF92FF92BF
:1046D0000F931F937C01162F145EFC01118B0E9417
:1046E00057201451F70117A31850012F1127005F0D
:1046F0001F4F41E0B801C7014A960E946B1F9C0101
:10470000892F9927F70180A721A7B701C8014A96E9
:104710000E947F1E1F910F91FF90EF900895AF921E
:10472000BF92DF92EF92FF920F931F93CF93DF938D
:10473000EC015B01D42EB901A8019701CE010E94C2
:10474000152390E08CED8D1508F4D82E9D1540F4BE
:10475000DE019A96F50181918D939F5F9D15D8F3A7
:104760006D2DCE010E946623DF91CF911F910F9195
:10477000FF90EF90DF90BF90AF9008950F931F933D
:10478000CF93DF93EC018B012FEFA0E2B6E0FC01A9
:1047900095E020838D9186839150319697FFF9CFD4
:1047A00096E088E08C879D874DEC55E168E070E0ED
:1047B000CE010E960E945422A0E2B6E0FE0195E0E2
:1047C0008D91868B10A29150319697FFF9CF26E2FA
:1047D00036E0A801FE0193E0DA018D91AD0186A3D8
:1047E000D9018D919D01848F9150319697FFF4CF1F
:1047F00080911306886080931306BE018AE290E0E0
:104800000E947F1EDF91CF911F910F91089580919B
:10481000130681FF03C080E090E0089581E090E0FE
:104820000895AC0120E0A6E1B6E0FC017C969191F0
:104830008D91981719F080E090E008952F5F243053
:10484000B0F3AAE1B6E0FA01769625E081918D9366
:10485000215027FFFBCF81E090E00895809113065F
:1048600081FF03C0846080931306089521E02093A4
:104870001306A6E1B6E0FC0193E081918D9391507F
:1048800097FFFBCF08959093150680931406089523
:10489000CF92DF92EF92FF920F931F93CF93DF930C
:1048A000EC017B016115710501F5809113069927D3
:1048B00080FD02C082FF0FC08091480190914901A4
:1048C000892B49F40E94701E882329F066E176E066
:1048D000CE010E94BE23809148019091490101962A
:1048E00090934901809348017EC00E941120882343
:1048F000B9F08D89813019F4CE010E94AF208091EA
:10490000130683FF70C01D89123009F06CC0CE0100
:104910000E941124882309F466C01093130663C013
:10492000B701CE010E942C20882309F45CC09F8926
:10493000913089F48AA1883071F4E0911406F091E5
:104940001506309719F0CE014A960995B701CE01A8
:104950000E94D72048C086E3E816F10418F4963088
:1049600009F041C09CA1809112069817E1F59DA124
:10497000809147019817B9F58FA59927F2E0CF2EBE
:10498000D12CC822D92281FF04C0CE010E9440212F
:104990002AC084FF28C0CE010E9482218C019093FE
:1049A000110680931006892B51F48FA580FF05C056
:1049B00040E0B801CE010E94CE21B80116C08EA5FC
:1049C00082958F70682F7727660F771F660F771F86
:1049D0006E5D7F4F88EF9FEFE80EF91EE616F70633
:1049E00020F4B60102C060E070E0CB01DF91CF910E
:1049F0001F910F91FF90EF90DF90CF900895CF938C
:104A0000DF93FC01EB0160E0562FD90190819923DF
:104A100009F440C09032F1F19A30E1F18C9198178D
:104A200059F411968C91882341F43196D9018081F3
:104A30008D3319F451E001C0D90131969081992349
:104A400031F0903221F09A3011F0552339F3513082
:104A500009F520812223E9F02032D9F02A30C9F06B
:104A60002632B9F0552741505040141615068CF4E3
:104A700029936F5F31962081222359F0203249F02B
:104A80002A3039F0263229F0862F99278417950786
:104A90007CF31882862F9927DF91CF910895982F64
:104AA00080538A3010F499270895892F81568630D3
:104AB00010F4975505C0892F8154863020F4975300
:104AC000892F9927089580E090E00895EF92FF9252
:104AD0000F931F93CF93DF937C01EC018881882390
:104AE000D1F08B3211F480E211C0853279F4219635
:104AF00089910E944F25082F112784E0000F111F74
:104B00008A95E1F788810E944F25802BF7018193D8
:104B10007F012196E3CFF7011082DF91CF911F91A2
:104B20000F91FF90EF900895382FFB01282F2F70E1
:104B3000205D21832053992787FD90958F70907079
:104B40000A9714F0295A218332953F70305D3083E3
:104B500030533A3014F0395A308312820895EF926C
:104B6000FF921F93CF93DF937C01EB01F70110813C
:104B70001123D1F0103241F0812F992787FD9095B4
:104B80000E94BA29892B29F0103209F41BE21993EB
:104B900007C085E28993BE01812F0E949425229649
:104BA0000894E11CF11CE2CF1882DF91CF911F9194
:104BB000FF90EF900895AF92BF92CF92DF92FF9255
:104BC0000F931F93CF93DF936C01EB01AA24BB24B7
:104BD000FC0193E0F92E1192FA94F7FEFCCFFF242A
:104BE0008881882309F1A114B10441F4992787FD34
:104BF00090950E94D029892B09F05E0188818E3220
:104C000061F4188286010F0D111DC5010E9409294A
:104C1000F8018083F394AA24BB24219688818823F9
:104C200019F0F3E0FF15F8F6188283E0F81641F466
:104C3000C5010E940929F601838320E030E002C00B
:104C400021E030E0C901DF91CF911F910F91FF90DA
:104C5000DF90CF90BF90AF9008959F92AF92BF9298
:104C6000CF92DF92EF92FF920F931F93CF93DF9338
:104C7000EC01B42E922EA02EFF24EF2CF416F0F4AB
:104C80006B018E010F0D111DF60181916F014A2DEF
:104C90005527B80199270E948129F801808188232E
:104CA00029F0F394FE01EF0DF11DF8CFFE01EF0D99
:104CB000F11D9082F394E394EB1418F3FA94CF0D62
:104CC000D11D1882DF91CF911F910F91FF90EF902E
:104CD000DF90CF90BF90AF909F9008951F920F925A
:104CE0000FB60F9211242F938F939F93EF93FF93FF
:104CF0009BB12CB19871E0916C06EF5FEF718091E0
:104D00006D06E81711F492E006C0E0936C06FF27E9
:104D1000E65BF94F208390936E06FF91EF919F9190
:104D20008F912F910F900FBE0F901F9018951F928B
:104D30000F920FB60F9211248F939F93EF93FF93CF
:104D400090916A0680916B06981769F080916B06C6
:104D50008F5F8F7180936B06E82FFF27E65DF94F19
:104D600080818CB901C05598FF91EF919F918F91EF
:104D70000F900FBE0F901F9018959C0110926A061D
:104D800010926B0610926C0610926D0697FF03C08E
:104D900082E08BB93F77832F992780BD29B988E9B5
:104DA0008AB986E880BD089590916C0680916D0661
:104DB000981719F480E091E0089580916D068F5F57
:104DC0008F7180936D06E82FFF27E65BF94F2081F6
:104DD00080916E069927982F8827820F911D08953C
:104DE000282F90916A069F5F9F7180916B0698179C
:104DF000E1F3E92FFF27E65DF94F208390936A06E0
:104E0000559A0895CF93DF93EC018881882331F080
:104E100089910E94F02688818823D1F7DF91CF9174
:104E20000895CF93DF93EC01FC01219684918823B0
:104E300039F00E94F026FE01219684918823C9F75B
:104E4000DF91CF9108950F931F93CF93C82FFB014C
:104E5000DA01A9018081282F332781819927982F92
:104E60008827282B392BC03159F42E7F63E0220F7D
:104E7000331F6A95E1F78681281B3109245F3F4F74
:104E800037FF06C081E08C93309521953F4F01C0DC
:104E90001C92C83291F48481682F7727CB018076E9
:104EA00090708036910549F066FF02C02E7F05C0E4
:104EB00065FF02C02C7F01C0287FC90134E09695B0
:104EC00087953A95E1F7FA018083822F8F70F80178
:104ED000808380E090E0CF911F910F9108950F9310
:104EE0001F93CF93DF938C01EB01BE01F80180810A
:104EF0000E947228982FF80180838E5F823038F0EC
:104F0000992329F08881883211F0803171F7DF917F
:104F1000CF911F910F9108951F93CF93DF93182F77
:104F2000EB010E9417280E940C28882359F0BE012B
:104F300084E40E94BD28113011F00E94112880E005
:104F400090E002C082E090E0DF91CF911F91089540
:104F50002F923F924F925F926F927F928F929F9289
:104F6000BF92CF92DF92EF92FF920F931F93CF9356
:104F7000DF93CDB7DEB729970FB6F894DEBF0FBE2B
:104F8000CDBF4C011B012A0139010E941728B40131
:104F90008EEB0E94BD28EE24FF24E8E0BE2E6E01B9
:104FA0000894C11CD11C87010C0D1D1D0E946D2889
:104FB000F8018083BA940894E11CF11CB7FEEFCF8E
:104FC00069E070E0C6010E94DC28882319F083E0C4
:104FD00090E00AC083019201A101B601F401808131
:104FE0000E94232780E090E029960FB6F894DEBF58
:104FF0000FBECDBFDF91CF911F910F91FF90EF902A
:10500000DF90CF90BF909F908F907F906F905F9038
:105010004F903F902F90089580B39927807490709F
:105020000895969A8E9A089596988E9808959698CF
:105030008E9A8BED95E08115910511F00197F1F7AE
:105040002FB7F8948E988EEC90E08115910511F0B1
:105050000197F1F730B330742FBF8DE095E08115E3
:10506000910511F00197F1F7869B31E0832F992785
:105070000895282F3FB7F8948E9A82E090E081152A
:10508000910511F00197F1F721118E988BE290E0D4
:105090008115910511F00197F1F7869B20E08CE8CE
:1050A00090E08115910511F00197F1F78E983FBFBF
:1050B000822F992708951F93CF93C82F18E08C2F24
:1050C00081700E943928C6958111C0681150B9F7C6
:1050D0008C2F9927CF911F9108958FEF0E945B2805
:1050E00099270895DF92EF92FF920F931F93CF932A
:1050F000DF93E82EEB010E941728182F882319F060
:105100008FEF90E032C080EF0E945B28D12E00E448
:1051100088E0F82E81E00E943928182F81E00E9453
:105120003928882329F0112371F08EEF90E01DC0FB
:10513000112349F40E1528F0888180FF04C0E01681
:1051400011F011E0D02E812F0E9439288881869598
:105150008883112311F0806888830150FA94D1F676
:1051600021960023A9F68D2D9927DF91CF911F91CC
:105170000F91FF90EF90DF9008950F931F93CF93BF
:10518000DF93082FEB010E941728209751F085E547
:105190000E945B2818E089910E945B281150D9F782
:1051A00003C08CEC0E945B28802F0E945B28DF915B
:1051B000CF911F910F91089530E040E050E04617E5
:1051C0005707B9F0B8E1FC012081A8E0832F8227BE
:1051D000982F917080FD3B273695913009F4306807
:1051E0002695A15099F74F5F5F4F319646175707A5
:1051F00059F7832F99270895DC01CB01811591057B
:10520000A105B10529F081509040A040B040D9F7E8
:105210000895FC0188279927E89421912223F1F031
:105220002032D9F32930C9F32A30B9F32C30A9F34D
:105230002D3099F3263789F32B3219F02D3221F4D2
:1052400068942191222351F0203344F02A3334F41E
:1052500020530E94A229820F911DF3CF8115910541
:1052600021F01EF48095909501960895FB01DC01D4
:105270008D910190801911F40020D1F7990B0895B8
:10528000FB01DC0101900D920020E1F70895FB0184
:10529000DC010D900020E9F711974150504028F0B3
:1052A000019000200D92C9F708951C920895FB010A
:1052B000DC014150504030F08D910190801919F47B
:1052C0000020B9F7881B990B0895FB01DC014150C0
:1052D000504048F001900D920020C9F701C01D9286
:1052E00041505040E0F70895DC015C91552341F0B6
:1052F0005F7D51341CF05B350CF45C931196F5CF57
:105300000895FB019F01E8944230C4F04532B4F4A3
:105310004A3029F497FB1EF4909581959F4F642F96
:1053200077270E94132A805D8A330CF0895D819370
:10533000CB010097A1F716F45DE251931082C901E9
:105340000C94AA297AE0979F902D879F802D910D2C
:1053500011240895DC01FC0101900020E9F7329747
:10536000AE17BF0730F47C916081708331976D93E5
:10537000F7CF0895911107C08F9312D088238F9192
:1053800009F0089505C099278827089585FDFBCF6A
:1053900080629111F8CF8136ECF38B37DCF70895FA
:1053A0009111F1CF80538A50E0F7089509D001920E
:1053B0001A94E1F7089501900BD01A94E1F708953B
:1053C000E199FECFBFBBAEBBE09A11960DB2089536
:1053D000E199FECFBFBBAEBB0DBA11960FB6F894E4
:1053E000E29AE19A0FBE0895629FD001739FF00187
:1053F000829FE00DF11D649FE00DF11D929FF00D65
:10540000839FF00D749FF00D659FF00D9927729F9B
:10541000B00DE11DF91F639FB00DE11DF91FBD0126
:10542000CF0111240895AA1BBB1B51E107C0AA1F7D
:10543000BB1FA617B70710F0A61BB70B881F991F35
:105440005A95A9F780959095BC01CD01089597FBD9
:10545000092E07260AD077FD04D0E5DF06D000200C
:105460001AF4709561957F4F0895F6F790958195A0
:045470009F4F0895AD
:105474000404040202010101010303AF01AD01AB05
:1054840001C602BD02B402AA029E028D028002730A
:1054940002660259024C023F023202250218020B34
:1054A400020202F901F001E701DE01D501CC01C3DA
:1054B40001BA01B10101494E0041004F5554005455
:1054C4000070617373776F72640000415400434F3E
:1054D4004E464947005345544D41432000534554DB
:1054E40049502000534554505744200048454C50DF
:1054F40000737461747573007374617400786D6CF7
:10550400007067006E006D0061006E616D65006D76
:105514006163006970006D61736B00676174657726
:10552400617900707764007400706F7274007300A6
:105534006B006D736700700063007600640073771E
:10554400003C3133343E207374617475733A004700
:0C555400455420002F20005001000A00E8
:00000001FF
