:0A0000001BC0FECFFDCFFCCFFBCFED
:10000A00FACF44C0F8CFF7CFF6CFF5CFF4CFF3CF7E
:10001A00F2CFF1CFF0CFEFCFEECFEDCF000080C01F
:10002A000200040026000200600128000000F89483
:10003A00EE27ECBBF1E0FBBFEBBFE5BFF8E1F1BD9A
:10004A00E1BD8DE0A2E0BB27ED938A95E9F780E058
:10005A0094E0A0E6ED930197E9F7EAE2F0E08591F2
:10006A009591009761F0A591B59105901590BF0102
:10007A00F00105900D920197E1F7FB01F0CFEFE552
:10008A00EDBFE4E0EEBFC0E6D1E014C0EA93FA9314
:10009A00EFB7EA93F20131962F01EBE3F0E0E415B2
:1000AA00F50514F444245524D1D0E991EFBFF99110
:1000BA00E9911895E0E0EFBDE5E0EEBDC7D0E0E0DC
:1000CA00E7BDE6BDEEE1EBBDE5E8EABDE0E1E9BF8B
:1000DA00E8E0EA938FD07894E0E0EA93EA9349D093
:1000EA00D201EAE0F0E0D3D0F096EA935CD0D201F4
:1000FA00EAE0F0E0D1D0F096EA9355D0EDCFFFCF09
:10010A00FFE0FA95F1F70895A7B3AF70A7BBC19ABC
:10011A00C098F6DFC29AF4DFA6B3C298F1DFC29A9A
:10012A00EFDFC298A7FDF5CF0895A07FAB2BA8BB40
:10013A00C29AE6DFC298E4DF0895C198A7B3A76F11
:10014A00A7BBB8B3BF70A881F0DFA881A295EDDF85
:10015A00C19A7AC0C29AD4DFE6B3C298D1DFE07FEF
:10016A000895CEDFF7DFAE2FF5DFC198E295EA2BCF
:10017A000895CADFE881F0E0E05AFE4FE081A981E4
:10018A00EA0F68D07980688022960895BDDFE2E0A0
:10019A0061D0BADFECE05ED0B7DFE1E05BD0E0E04F
:1001AA006E2E7E2E0895EF93FF93A8816894AA304D
:1001BA0021F0E8947394971430F46394E0E0EA939E
:1001CA006A92D7DF2EF0A0DFC09AA881AA93B5DF82
:1001DA00FF91EF9139C0AA27BB271197F1F708952C
:1001EA00C198A7B3A76FA7BBB8B3BF70A8819DDF9B
:1001FA00C19A2AC0C298C0989880E881E058E093D2
:10020A006201E881E054E093630126D025D024D02E
:10021A00E2DFE0E2EA93E4DFDEDFE8E21BD0DBDFE5
:10022A00E4E018D0D8DFE5E815D0D5DFA7B3AF7082
:10023A00A7BBC19A96DFE53011F0E0E005C064DFA4
:10024A00E6E008D0A3DFE1E021960895E0E0EDBD05
:10025A00ECBD0895EA9371CFBEDFE0E3EA93C0CF25
:10026A00F195E195F04008950024112490E1AA0F38
:10027A00BB1F001C111C0E1A1F0A18F40E0E1F1E9B
:10028A0001C0A1609A9599F7FD01D001089512D095
:10029A00EBDF0EF4E5DF0895E894B7FF04C0A095FC
:1002AA00B09511966894F7FDDBDFDEDFFD010EF4F1
:1002BA00D7DF0895E894F7FF02C0D2DF6894B7FF4A
:1002CA0006C0A095B095119600F8039400FA089517
:00000001FF
