:1000000024C0FECFFDCFFCCFFBCFFACFF9CFF8CF86
:10001000F7CFF6CFF5CFF4CFF3CFF2CFF1CFF0CFCC
:10002000EFCFEECFEDCF48656C6C6F2120416C694E
:100030006E61210080C00E006001260001006E018B
:10004000330002006F0134000000F894EE27ECBB8F
:10005000F1E0FBBFEBBFE5BFF8E1F1BDE1BD8DE035
:10006000A2E0BB27ED938A95E9F780E094E0A0E653
:10007000ED930197E9F7E6E3F0E08591959100971C
:1000800061F0A591B59105901590BF01F001059023
:100090000D920197E1F7FB01F0CFEFE5EDBFE4E052
:1000A000EEBFC0E6D1E000C000E611E02EE631E090
:1000B000E0E0E2BBEFEFE1BB909AE0E1EA9395D09C
:1000C000E0E0EA93EA9341D01A930A9370D0B9D052
:1000D00049D0B7D0F9CFFFCFFFE0FA95F1F70895F7
:1000E000A7B3AF70A7BBC19AC098F6DFC29AF4DF7E
:1000F000A6B3C298F1DFC29AEFDFC298A7FDF5CF91
:100100000895A07FAB2BA8BBC29AE6DFC298E4DFBC
:100110000895C198A7B3A76FA7BBB8B3BF70A88154
:10012000F0DFA881A295EDDFC19A89C0C29AD4DF21
:10013000E6B3C298D1DFE07F0895CEDFF7DFAE2FC0
:10014000F5DFC198E295EA2B0895CADFE881F0E077
:10015000E159FE4FE081A981EA0F78D059804880AB
:1001600022960895BDDFE2E071D0BADFECE06ED0F8
:10017000B7DFE1E06BD0E0E04E2E5E2E0895EF9306
:10018000FF93A8816894AA3021F0E89453947514E1
:1001900030F44394E0E0EA934A92D7DF2EF0A0DFF8
:1001A000C09AA881AA93B5DFFF91EF9148C01A9336
:1001B000A981BA81ED91A983BA831E2FE03019F08D
:1001C0001A93DDDFF5CF188123960895AA27BB2760
:1001D0001197F1F70895C198A7B3A76FA7BBB8B35C
:1001E000BF70A8818EDFC19A2AC0C298C09878805B
:1001F000E881E058E0937101E881E054E0937201F6
:1002000027D026D025D0E2DFE0E2EA93E4DFDEDF8C
:10021000E8E21CD0DBDFE4E019D0D8DFE5E816D057
:10022000D5DFA7B3AF70A7BBC19A87DFE53011F068
:10023000E0E005C055DFE6E009D094DFE1E021967B
:100240000895E2E3F0E0FA93EA9306C0EA9361CFFF
:10025000BDDFE0E3EA93BFCFE991F991309639F041
:1002600080ED97E00197F1F7A8953197C9F70895C8
:00000001FF
