:100000002CC0FECFFDCFFCCFFBCFFACFF9CFF8CF7E
:10001000F7CF9CC0F5CFF4CFF3CFF2CFF1CFF0CF35
:10002000EFCFEECFEDCF1027E80364000A00010008
:100030000010000110000100010025640A00256481
:100040000A0D000001002D4E414E0000020002008A
:10005000380001005E0344000000F894EE27ECBB7A
:10006000F1E0FBBFEBBFE5BFF8E1F1BDE1BD8DE025
:10007000A2E0BB27ED938A95E9F780E094E0A0E643
:10008000ED930197E9F7ECE4F0E085919591009705
:1000900061F0A591B59105901590BF01F001059013
:1000A0000D920197E1F7FB01F0CFEFE5EDBFE4E042
:1000B000EEBFC0E6D1E066C0E881E7B954D2E064A3
:1000C000E6B951D2E071E9F34ED2E061E6B9E4B1AC
:1000D000F5B18DC0A0E020FCA1E0A130B1F5F401A4
:1000E00031964F013197E8EEF3E0E815F90569F52F
:1000F000E0E0EA93E1DF5E2E882499247394E72DF3
:1001000035D2AE0FBF1FE52D37D2ED93FC93E4E15E
:10011000E715D9F477244424E4E14E1680F4EAE3A9
:10012000F0E02CD2E42D22D2AE0FBF1F7FD2662783
:10013000772784D284E0E6D126964394EDCFEEE390
:10014000F0E01CD280E0DED1229608950A921A9245
:10015000FA926A937A938A939A93AA93BA93EA93B8
:10016000FA93EFB7EA93B6DFE991EFBFF991E9911E
:10017000B991A9919991899179916991F990199081
:1001800009901895E0E0E8BBE7BBEFEFE5BBE4BB07
:10019000E0E0E2BBE1BBE2E0E3BFE0E0E2BFEFBDF5
:1001A000EEBDEDBDECBDE7BDE6BDEBBDEABDE9BD15
:1001B000E8BDE2BDE5BDE4BDE3BDE5BFE1E0E9BF0B
:1001C000E0E0EBB9E8EDEAB9E6E8E0BDE0E0E0BD8B
:1001D000E3E3E9B9E0E0E0BFE0E8E8B9E4E8E6B984
:1001E0007894FFCFFFCF5D9BFECFE881ECB92196DD
:1001F000089534D2AC81BD8119D23097D1F0AA8153
:10020000BB8114D28F01309749F00230E0E01E0725
:1002100078F0F80131978F01ED93FC93AC81BD81AB
:10022000ED91FD913196FE93EE933197AE81A083CF
:1002300003C0EE81EA93D7DF18D227960895269758
:1002400009D210E0EA89FB893196EA8BFB8B319762
:10025000E4912E2FE03009F452C1E12F8DD1309777
:1002600031F4253211F411E001C08BD147C1E130E6
:10027000A0E0FA07A1F4253211F483D13EC112E0C7
:1002800040E000E02D3211F401E038C12B3211F4CE
:100290004BE234C1203211F440E230C104C0E230FC
:1002A000A0E0FA0751F450E013E0203329F471D1B3
:1002B000E0E8F0E071D122C105C0E330A0E0FA0728
:1002C00009F01CC1203310F02A3308F014C0A52F08
:1002D00066D1EAE0F0E0EA02F0015E2F652F7727B1
:1002E000A22F5DD1E0E3F0E0AED1EA1BFB0BDB0116
:1002F000EA0F5E2F03C1E22F3FD1E336A0E0FA07F9
:1003000039F44FD151D14DD1A481AA9351D1F5C027
:10031000E337A0E0FA0729F452D153D10FD11E2FB1
:100320000CC0E037A0E0FA0791F449D14AD110D1CE
:100330001E2F2FD1E8E0F0E02FD12BD1E2E0F0E04A
:100340002BD127D1EFE7FFEF43D130E03EC0E436B9
:10035000A0E0FA0721F0E936A0E0FA0721F419D16C
:100360003AD11AD104C0E537A0E0FA0729F4E6E251
:10037000F0E034D115E012C0E835A0E0FA0729F426
:1003800008D1E8E0F0E008D105C0E837A0E0FA07BE
:1003900009F0B3C0E0E3F0E021D114E0FAD021D1BC
:1003A00091F00DD123D1AB85AA2332F4EA85FB85E8
:1003B00039D1EA87FB874DE2403011F01F5F02C060
:1003C000E8D01BD102C0FBD011D11AD199F4151776
:1003D00088F4DFD019D151F0DCD003D129F0D9D085
:1003E0000CD1242F115001C020E301C020E2C9D05C
:1003F0005150EDCF312FCDD0E2E0F0E00BD1D9F06C
:100400003030C1F0C6D0E8E0F0E004D139F0EE8140
:10041000FF813196E3D03197E49105C0AE81BF8171
:10042000ED91AE83BF83EA93C3D0503009F05150B1
:100430003150E6CF59C020E3EE81FF81FBD0E88741
:10044000F987EE81FF813296C9D0E885F985AA85C2
:10045000BB85AE17BF0750F02F5FA885B985EA8529
:10046000FB85EA1BFB0BEA87FB87EFCF2A3368F09B
:1004700090D0E8E0F0E0CED021F0E22F7DD03796AA
:1004800003C0E22F79D0B7962E2F83D0E0E1F0E0C1
:10049000C1D001F5213320F4A885B985119709F45D
:1004A0000AC0531710F0ACD009F018C020E271D088
:1004B000ABD081F020E3A02F72D0E0E1F0E06CD06F
:1004C00068D08FD039F065D098D04A9371D0503031
:1004D00009F0515056D0503009F051503150A88594
:1004E000B985129708F0A7CF8BD039F0503029F09A
:1004F0005150E0E2EA935CD0F9CF10E0A3CEB1D046
:1005000064960895FF92F82E2297A8D0DE0186D037
:100510008D01E0E0EA83EB83DE0114967FD086D084
:100520002DD01A930A93FE01369628D0E0E0F0E031
:1005300025D085DE9AD02496FF900895A991B9918F
:10054000EE27FF276D91662311F03196FBCF0895BA
:10055000AA27BB27E991F9910590002011F0119687
:10056000FBCFFD010895E6B1F0E00895A0E6B1E00B
:10057000F0E0EE0FFF1F0895F0E00895FA93EA937C
:1005800008952A93EF85F889F9DFFE013F96F6DF9B
:1005900030CEA02FB0E00895EA2B0E2F0895B0E0E2
:1005A0000895E889F98908953497E88BF98B0895BF
:1005B000EF85F889E3DFFE013F96E0DF1ACEF1DF39
:1005C000F3CFA889B989149631D0EE83FF83D6CFB3
:1005D000EA230E2F0895E4E0F0E00895EE83FF8310
:1005E0000895F9DFEA23FB2330970895A889B98994
:1005F00014961CD0EA87FB870895EBEFFFEFE8CF56
:10060000E02FBADFE1700895E0E8F0E0EA23FB2391
:1006100030970895EA23FB23309708950024AF0D07
:10062000B01D0895F195E195F0400895ED91FC918C
:10063000119708950590F491E02D08957A936A93A7
:10064000FA93EA9308951B2EBF2FF12D1A2EAE2F89
:10065000E12D08955A934A933A932A931A930A9351
:1006600008955D814C813B812A811981088108951B
:00000001FF
