:020000020000FC
:0200000016C028
:10002C0045C008E00EBF0FE50DBF0FEF04BB08E1A4
:10003C0007BB32E04DEF07E108BB03E003BF01E073
:10004C0009BF06D1C49800E000C0B09B05C0B19BAD
:10005C0003C0B29B01C0F9CFC49AC39A42BF789433
:10006C0040D000C0B09B05C0B19B07C0B29B09C07B
:10007C00F9CFF894C39835D0E5CF2DEF231305C0F5
:10008C00F1CF22E0231306C0EDCF21E0320F421B4B
:10009C0028D005C021E0420F321B23D000C0532FC3
:1000AC0085E6589F512D0ED027D0DCCF039500FD4F
:1000BC0002C000FF03C0C39832BF03C0C39A42BF43
:1000CC0000C01895332444245524545610F033940E
:1000DC00FCCF5C595A5010F04394FCCF565F552E10
:1000EC00089502E0602E772488248A94F1F77A949C
:1000FC00D9F76A94C1F708951F936F9310E3312ACF
:10010C00412A512A60E86DD064E44BD065E549D0B2
:10011C0064E547D069E545D060E243D063E441D063
:10012C0069E53FD063E43DD06CE43BD065E439D065
:10013C0060E237D060E535D065E533D06CE431D082
:10014C0063E52FD065E42DD060EC4BD060E229D074
:10015C0060E227D060E225D060E523D067E521D0AE
:10016C006DE41FD06DE31DD0632D1BD0642D19D011
:10017C00652D17D065E215D080D06F911F91089531
:10018C0014B3106F14BB15B31F70607F162B15BB07
:10019C00AB9A000000000000AB9814B31F7014BBA6
:1001AC0008956F9314B3106F14BB15B31170607F67
:1001BC00162B15BBA99AAB9A000000000000AB9857
:1001CC006F911F706295607F162B15BBA99AAB9A25
:1001DC00000000000000AB98A99814B31F7014BB6A
:1001EC0008956F9314B3106F14BB15B31170607F27
:1001FC00162B15BBAB9A000000000000AB986F915A
:10020C001F706295607F162B15BBAB9A0000000027
:10021C000000AB9814B31F7014BB089514B31F7077
:10022C0014BBA998AA9AAB9A000013B3107F712F34
:10023C00AB9800000000AB9A000013B3107F12952E
:10024C00712BAB98AA980895E9DF7078E9F70895B7
:10025C006F931EE014BB11D060E292DFF5DF68E211
:10026C00C0DFF2DF6CE0BDDFEFDF61E0BADFECDFB7
:10027C0066E0B7DFE9DF6F910895882784E6E82E02
:10028C0088ECF82E00000000FA94E1F7EA94C1F72C
:02029C000895C3
:00000001FF
