:0400000012C0FECF5D
:10000400FDCFFCCFFBCFFACFF9CFF8CFF7CFF6CFA8
:10001400F5CFF4CFF3CFF2CFF1CFF0CFEFCFEECFD8
:10002400EDCFF894EE27ECBBF1E0FBBFEBBFE5BFEF
:10003400F8E1F1BDE1BD8DE0A2E0BB27ED938A9527
:10004400E9F780E094E0A0E6ED930197E9F7EFE5A6
:10005400EDBFE4E0EEBFC0E6D1E02FC0E0E0E8BBD6
:10006400E6E0E7BBE0E0E5BBE0E2E4BBE0E0E2BB06
:10007400E1E0E1BB0895E3E0E3BFE0E0E2BF08951F
:10008400E0E0EEBDECEFEDBDE8E1ECBDE0E7F0E073
:10009400FBBDEABDF9BDE8BDE3E0E7BDE8EEE6BDC2
:1000A4000895F894DBDFE7DFEBDFE2E0E5BFE0E4AF
:1000B400EBBFE0E0E9BF78940895F3DFFFCFFFCF13
:00000001FF
