:0E0000002EC0FECFFDCFFCCF55C1FACFF9CFF9
:10000E00F8CFF7CFF6CFF5CFF4CFF3CFF2CFF1CFC6
:10001E00F0CFEFCFEECFEDCF53554E004D4F4E00FC
:10002E005455450057454400544855004652490022
:10003E00534154002E32300057454C434F4D004330
:10004E006C6B206F66204153594E4320544D520025
:10005E00F894EE27ECBBF1E0FBBFEBBFE5BFF8E198
:10006E00F1BDE1BD8DE0A2E0BB27ED938A95E9F7E6
:10007E0080E094E0A0E6ED930197E9F7EFE5EDBFA0
:10008E00E4E0EEBFC0E6D1E074C0E9D1DF01EAE002
:10009E00F0E055D2F096E6D1A881BB27EAE0F0E079
:1000AE0053D2F096DFD1CCC1DFD1DED1D5D0E091E5
:1000BE006201DDD1E0916101DAD1E0916001DBD125
:1000CE00D3D1DBD1E0916401DBD1309719F4E6E2B4
:1000DE00F0E023C0D7D119F4EAE2F0E01EC0D6D189
:1000EE0019F4EEE2F0E019C0D5D119F4E2E3F0E034
:1000FE0014C0E430A0E0FA0719F4E6E3F0E00DC016
:10010E00E530A0E0FA0719F4EAE3F0E006C0E630C5
:10011E00A0E0FA0729F4EEE3F0E0FA93EA938DD02B
:10012E00E6E0EA93AAD1E0916301A5D1EEE29AD17D
:10013E00E0916501A0D1E2E4F0E0B0D17ED0E09193
:10014E00660199D10895E0E0E0936001EDE1E0935E
:10015E006101E7E1E0936201E1E0E0936301E3E036
:10016E00E0936401E8E0E0936501ECE0E093660162
:10017E000895EFE3E7BBE0E8E8B92ED0E4DFE0E670
:10018E00F1E08CD1E1E0EA935DD1789447D0E4E0E0
:10019E00EA933DD0E5E0EA9367D15ED0E6E4F0E085
:1001AE007DD14BD061D169D1EDE4F0E077D145D06E
:1001BE00E0EDF7E073D197D131D01CD1E030E9F307
:1001CE0073DFFBCFFFCF6DD14AD19DD170D169D1F5
:1001DE00E881EF706CD134C1C598C498E8B3E07F64
:1001EE00E8BBC19AE4E1F0E059D17DD1C59A83E034
:1001FE008A95F1F7C598E8E265D166D1E8E062D15B
:10020E00E6E060D161D1E0E15DD15ED108C0C49875
:10021E00E881E86057D158D1C49A12C1C498E1E080
:10022E0051D1E2E0F0E03AD15ED1C49A0895E8816E
:10023E0049D181E18A95F1F703C1E881F981E49111
:10024E00E03049F0E881F9813196E883F9833197FE
:10025E00E49108D1F2CF1DC0C49801D1309721F49A
:10026E0037D1E058FF4F11C00DD121F431D1E054F8
:10027E00FF4F0BC00BD121F42BD1EC56FF4F05C015
:10028E0009D129F425D1EC52FF4FEA939CDF1CD102
:10029E00C49A22960895D2011396E1E01BD11596C9
:1002AE001CD1EC9308950A921A92FA926A937A9359
:1002BE008A939A93AA93BA93EA93FA93EFB7EA932F
:1002CE00D2010BD107D1AC91AC3308F483C0D2016B
:1002DE00E0E000D1119601D1EC93F201A181AC3393
:1002EE0008F478C0D2011196E0E0F4D01296F5D061
:1002FE00EC93F201A281A83108F46CC0D2011296DF
:10030E00E0E0EC9321FE66C0D2011496E6D0EC93A9
:10031E00F201A481A73020F0D2011496E0E0EC9314
:10032E00D2011396DAD0D6D01596EC91A9D0AAD0D8
:10033E0011F0B0D009F404C0E530A0E0FA0709F4DA
:10034E0004C0E730A0E0FA0709F404C0E830A0E0EA
:10035E00FA0709F404C0EA30A0E0FA0709F404C071
:10036E00EC30A0E0FA0729F4BBD0A03208F093DFFE
:10037E0026C08CD071F4F201A681A37029F4B0D0FE
:10038E00AE3108F088DF04C0ABD0AD3108F083DFAA
:10039E0016C0E430A0E0FA0721F0E630A0E0FA073C
:1003AE0009F404C0E930A0E0FA0709F404C0EB3008
:1003BE00A0E0FA0721F494D0AF3108F06CDFF2011F
:1003CE00A581AD3038F0D2011596E1E083D01696B6
:1003DE0084D0EC93689420F8E991EFBFF991E991FC
:1003EE00B991A9919991899179916991F990199001
:1003FE000990189520FC02C0E0E00895E89420F8DA
:10040E00E1E008950895E881E030A1F4E9B7EF73D3
:10041E00E9BFE8E0E2BDE0E0E4BDE3BDE5E0E5BD57
:10042E00E2B5E770E9F7E8B7EF73E8BFE9B7E06464
:10043E00E9BF06C0E9B7EF7BE9BFE0E0E5BDE2BD8D
:10044E0021960895E881E03011F4E89401C0689493
:10045E0021F849805A8008D0D6DF23960895E88186
:10046E00F0E00895EA93E3CEE0E0EA930895EA938C
:10047E000CDEEAE3F7CFEA9308CEE1E0EA93ECCEA6
:10048E00F0E00895E130A0E0FA070895E230A0E030
:10049E00FA070895E330A0E0FA070895FA93EA9375
:1004AE000895E8B3E07FE8BBE8B3AE2F0895EA2BDA
:1004BE00E8BB83E08A95F1F7C59A83E08A95F1F758
:1004CE00C5980895EA937FCE8DE08A95F1F7089549
:1004DE00E981D6CFEC93D2010895EC91EF5F0895A8
:1004EE00F201A3810895E991F991309639F08AEFDE
:1004FE0090E00197F1F7A8953197C9F70895F19516
:10050E00E195F0400895F595E795F595E795F59504
:10051E00E795F595E79508950024112490E1AA0F2B
:10052E00BB1F001C111C0E1A1F0A18F40E0E1F1EE4
:10053E0001C0A1609A9599F7FD01D001089512D0DE
:10054E00EBDF0EF4DCDF0895E894B7FF04C0A0954E
:10055E00B09511966894F7FDD2DFDEDFFD010EF443
:10056E00CEDF0895E894F7FF02C0C9DF6894B7FFA5
:10057E0006C0A095B095119600F8039400FA089560
:00000001FF
