:0200000028C016
:10000200FECFFDCFFCCFFBCFFACF53C0F8CFF7CF57
:10001200F6CFF5CFF4CFF3CFF2CFF1CFF0CFEFCFD2
:10002200EECFEDCF3F065B4F666D7D077F6F0063BE
:1000320039761027E80364000A000100001000016D
:10004200100001000001000004000400460000004E
:10005200F894EE27ECBBE5BFF8E1A4B7A77FA4BFF5
:10006200F1BDE1BD8DE0A2E0ED938A95E9F780E86C
:10007200A0E6ED938A95E9F7EAE4F0E0859195919F
:10008200009761F0A591B59105901590BF01F0011F
:1000920005900D920197E1F7FB01F0CFE0E0E3BBA1
:1000A200E0E0E4BBE0E0E5BBEFEDEDBFC0E8D0E0AF
:1000B20067C00A92AA93BA93EA93FA93EFB7EA93C4
:1000C200A52D34D1E2E0F0E07AD15E2EE0E1E51533
:1000D20011F4E1E05E2E662031F52AD131F4E2E33B
:1000E200F0E02CD1909A93981DC0E230A0E0FA077C
:1000F20031F4E1E3F0E022D1919A909813C0E43018
:10010200A0E0FA0731F4E09187001CD1929A91980D
:1001120009C0E830A0E0FA0729F4E091880012D182
:10012200939A929825C004D131F4E09185000AD1C6
:10013200909A93981DC0E230A0E0FA0731F4E09162
:10014200860000D1919A909813C0E430A0E0FA079B
:1001520031F4E0E3F0E0F2D0929A919809C0E830ED
:10016200A0E0FA0729F4E3E3F0E0E8D0939A92984A
:10017200E991EFBFF991E991B991A9910990189587
:10018200E0E8E6BDE0E0E6BDE0E8E8BBEFE7E7BBBC
:10019200E2BBEFE0E1BBE0E0EBB9EAB9E3B9E2B917
:1001A200E9B9E0BFE3E0E3BFE0E0E2BFE2E0E9BFDC
:1001B200789430D0E8EEF3E0C9D0F894EFEFE8BBE2
:1001C200E62DC7D0A1E0B0E00BD1EA1B6E2E25D000
:1001D2007894332089F4E0918200EA9386D0E8E8AB
:1001E2004082E7E87082E0918000EA937ED0E6E800
:1001F20040827092850009C0EAE0E0938500E093B6
:100202008600E0938700E0938800E8EBFBE09ED055
:10021200D4CFFFCF8E9A969A0895E9D000E0332486
:100222009698E7E1F0E092D0969A8BE68A95F1F7FC
:100232008E988BE68A95F1F78ED019F0E1E03E2E8A
:1002420052C085ED8A95F1F786D019F4E2E03E2E90
:100252004AC085ED8A95F1F700E0053040F4E02FC1
:10026200E058EF931FD0AF91EC930F5FF6CF8E9AC9
:10027200969AA0918000BB27E09181006AD0AE0FD0
:10028200BF1FE091820065D0AE0FBF1FE0918300D7
:1002920060D0EA0F1E2FA09184001A1711F0E3E03C
:1002A2003E2E21C0A4D010E000E010E01830D0F4BF
:1002B200869BFECF80E58A95F1F753D079F4602FC3
:1002C2007727E12F46D0A7E0B0E08AD0EA1BFB0BEC
:1002D200A1E0B0E057D0DB01EA2B0E2F42D0F1F3C0
:1002E2001F5FE4CFE02F89D0089581D010E00A810A
:1002F200442477240A3060F0A02F18D0EAE0F0E01E
:100302006FD0EA1B0E2FE42D24D031964E2EF2CF61
:10031200702EA42D0BD0FD013ED0DF01E72D19D0A8
:10032200EA2B1E2FE12F66D023960895B0E00895A0
:10033200E52DF0E0E130A0E0FA070895E491E095C0
:10034200E8BB0895F0E0EA5DFF4FF8CFFA93EA9335
:100352000DC0F0E00895E0E08699E1E02E2E222023
:100362000895A0E08699A1E0A1300895E991F9915C
:10037200309639F080ED97E00197F1F7A895319723
:10038200C9F70895EE230E2EFD0121F0EE0FFF1F97
:100392000A94E1F70895EE0FFF1FEE0FFF1FEE0F15
:1003A200FF1FEE0FFF1F08950A2EAA1BB9E003C01C
:1003B20008F4A00DA695E795BA95D1F7089504D053
:1003C200F3DF0EF4E1950895E894E7FF02C0E195AA
:1003D2006894A7FF04C0A19500F8039400FA089559
:1003E2001B2EBF2FF12D1A2EAE2FE12D08951A9339
:1003F2000A93089519810881089509911991089520
:00000001FF
